{
	"TeslaToken.sol": {
		"TeslaToken": {
			"abi": [
				{
					"inputs": [],
					"stateMutability": "nonpayable",
					"type": "constructor"
				},
				{
					"anonymous": false,
					"inputs": [
						{
							"indexed": true,
							"internalType": "address",
							"name": "owner",
							"type": "address"
						},
						{
							"indexed": true,
							"internalType": "address",
							"name": "spender",
							"type": "address"
						},
						{
							"indexed": false,
							"internalType": "uint256",
							"name": "value",
							"type": "uint256"
						}
					],
					"name": "Approval",
					"type": "event"
				},
				{
					"anonymous": false,
					"inputs": [
						{
							"indexed": true,
							"internalType": "address",
							"name": "previousOwner",
							"type": "address"
						},
						{
							"indexed": true,
							"internalType": "address",
							"name": "newOwner",
							"type": "address"
						}
					],
					"name": "OwnershipTransferred",
					"type": "event"
				},
				{
					"anonymous": false,
					"inputs": [
						{
							"indexed": true,
							"internalType": "address",
							"name": "from",
							"type": "address"
						},
						{
							"indexed": true,
							"internalType": "address",
							"name": "to",
							"type": "address"
						},
						{
							"indexed": false,
							"internalType": "uint256",
							"name": "value",
							"type": "uint256"
						}
					],
					"name": "Transfer",
					"type": "event"
				},
				{
					"inputs": [
						{
							"internalType": "address",
							"name": "owner",
							"type": "address"
						},
						{
							"internalType": "address",
							"name": "spender",
							"type": "address"
						}
					],
					"name": "allowance",
					"outputs": [
						{
							"internalType": "uint256",
							"name": "",
							"type": "uint256"
						}
					],
					"stateMutability": "view",
					"type": "function"
				},
				{
					"inputs": [
						{
							"internalType": "address",
							"name": "spender",
							"type": "address"
						},
						{
							"internalType": "uint256",
							"name": "amount",
							"type": "uint256"
						}
					],
					"name": "approve",
					"outputs": [
						{
							"internalType": "bool",
							"name": "",
							"type": "bool"
						}
					],
					"stateMutability": "nonpayable",
					"type": "function"
				},
				{
					"inputs": [
						{
							"internalType": "address",
							"name": "account",
							"type": "address"
						}
					],
					"name": "balanceOf",
					"outputs": [
						{
							"internalType": "uint256",
							"name": "",
							"type": "uint256"
						}
					],
					"stateMutability": "view",
					"type": "function"
				},
				{
					"inputs": [],
					"name": "decimals",
					"outputs": [
						{
							"internalType": "uint8",
							"name": "",
							"type": "uint8"
						}
					],
					"stateMutability": "view",
					"type": "function"
				},
				{
					"inputs": [
						{
							"internalType": "address",
							"name": "spender",
							"type": "address"
						},
						{
							"internalType": "uint256",
							"name": "subtractedValue",
							"type": "uint256"
						}
					],
					"name": "decreaseAllowance",
					"outputs": [
						{
							"internalType": "bool",
							"name": "",
							"type": "bool"
						}
					],
					"stateMutability": "nonpayable",
					"type": "function"
				},
				{
					"inputs": [
						{
							"internalType": "address",
							"name": "spender",
							"type": "address"
						},
						{
							"internalType": "uint256",
							"name": "addedValue",
							"type": "uint256"
						}
					],
					"name": "increaseAllowance",
					"outputs": [
						{
							"internalType": "bool",
							"name": "",
							"type": "bool"
						}
					],
					"stateMutability": "nonpayable",
					"type": "function"
				},
				{
					"inputs": [],
					"name": "logoHash",
					"outputs": [
						{
							"internalType": "string",
							"name": "",
							"type": "string"
						}
					],
					"stateMutability": "view",
					"type": "function"
				},
				{
					"inputs": [
						{
							"internalType": "address",
							"name": "to",
							"type": "address"
						},
						{
							"internalType": "uint256",
							"name": "amount",
							"type": "uint256"
						}
					],
					"name": "mint",
					"outputs": [],
					"stateMutability": "nonpayable",
					"type": "function"
				},
				{
					"inputs": [],
					"name": "name",
					"outputs": [
						{
							"internalType": "string",
							"name": "",
							"type": "string"
						}
					],
					"stateMutability": "view",
					"type": "function"
				},
				{
					"inputs": [],
					"name": "owner",
					"outputs": [
						{
							"internalType": "address",
							"name": "",
							"type": "address"
						}
					],
					"stateMutability": "view",
					"type": "function"
				},
				{
					"inputs": [],
					"name": "renounceOwnership",
					"outputs": [],
					"stateMutability": "nonpayable",
					"type": "function"
				},
				{
					"inputs": [
						{
							"internalType": "string",
							"name": "_logoHash",
							"type": "string"
						}
					],
					"name": "setLogoHash",
					"outputs": [],
					"stateMutability": "nonpayable",
					"type": "function"
				},
				{
					"inputs": [],
					"name": "symbol",
					"outputs": [
						{
							"internalType": "string",
							"name": "",
							"type": "string"
						}
					],
					"stateMutability": "view",
					"type": "function"
				},
				{
					"inputs": [],
					"name": "totalSupply",
					"outputs": [
						{
							"internalType": "uint256",
							"name": "",
							"type": "uint256"
						}
					],
					"stateMutability": "view",
					"type": "function"
				},
				{
					"inputs": [
						{
							"internalType": "address",
							"name": "to",
							"type": "address"
						},
						{
							"internalType": "uint256",
							"name": "amount",
							"type": "uint256"
						}
					],
					"name": "transfer",
					"outputs": [
						{
							"internalType": "bool",
							"name": "",
							"type": "bool"
						}
					],
					"stateMutability": "nonpayable",
					"type": "function"
				},
				{
					"inputs": [
						{
							"internalType": "address",
							"name": "from",
							"type": "address"
						},
						{
							"internalType": "address",
							"name": "to",
							"type": "address"
						},
						{
							"internalType": "uint256",
							"name": "amount",
							"type": "uint256"
						}
					],
					"name": "transferFrom",
					"outputs": [
						{
							"internalType": "bool",
							"name": "",
							"type": "bool"
						}
					],
					"stateMutability": "nonpayable",
					"type": "function"
				},
				{
					"inputs": [
						{
							"internalType": "address",
							"name": "newOwner",
							"type": "address"
						}
					],
					"name": "transferOwnership",
					"outputs": [],
					"stateMutability": "nonpayable",
					"type": "function"
				}
			],
			"devdoc": {
				"events": {
					"Approval(address,address,uint256)": {
						"details": "Emitted when the allowance of a `spender` for an `owner` is set by a call to {approve}. `value` is the new allowance."
					},
					"Transfer(address,address,uint256)": {
						"details": "Emitted when `value` tokens are moved from one account (`from`) to another (`to`). Note that `value` may be zero."
					}
				},
				"kind": "dev",
				"methods": {
					"allowance(address,address)": {
						"details": "See {IERC20-allowance}."
					},
					"approve(address,uint256)": {
						"details": "See {IERC20-approve}. NOTE: If `amount` is the maximum `uint256`, the allowance is not updated on `transferFrom`. This is semantically equivalent to an infinite approval. Requirements: - `spender` cannot be the zero address."
					},
					"balanceOf(address)": {
						"details": "See {IERC20-balanceOf}."
					},
					"decimals()": {
						"details": "Returns the number of decimals used to get its user representation. For example, if `decimals` equals `2`, a balance of `505` tokens should be displayed to a user as `5.05` (`505 / 10 ** 2`). Tokens usually opt for a value of 18, imitating the relationship between Ether and Wei. This is the default value returned by this function, unless it's overridden. NOTE: This information is only used for _display_ purposes: it in no way affects any of the arithmetic of the contract, including {IERC20-balanceOf} and {IERC20-transfer}."
					},
					"decreaseAllowance(address,uint256)": {
						"details": "Atomically decreases the allowance granted to `spender` by the caller. This is an alternative to {approve} that can be used as a mitigation for problems described in {IERC20-approve}. Emits an {Approval} event indicating the updated allowance. Requirements: - `spender` cannot be the zero address. - `spender` must have allowance for the caller of at least `subtractedValue`."
					},
					"increaseAllowance(address,uint256)": {
						"details": "Atomically increases the allowance granted to `spender` by the caller. This is an alternative to {approve} that can be used as a mitigation for problems described in {IERC20-approve}. Emits an {Approval} event indicating the updated allowance. Requirements: - `spender` cannot be the zero address."
					},
					"name()": {
						"details": "Returns the name of the token."
					},
					"owner()": {
						"details": "Returns the address of the current owner."
					},
					"renounceOwnership()": {
						"details": "Leaves the contract without owner. It will not be possible to call `onlyOwner` functions. Can only be called by the current owner. NOTE: Renouncing ownership will leave the contract without an owner, thereby disabling any functionality that is only available to the owner."
					},
					"symbol()": {
						"details": "Returns the symbol of the token, usually a shorter version of the name."
					},
					"totalSupply()": {
						"details": "See {IERC20-totalSupply}."
					},
					"transfer(address,uint256)": {
						"details": "See {IERC20-transfer}. Requirements: - `to` cannot be the zero address. - the caller must have a balance of at least `amount`."
					},
					"transferFrom(address,address,uint256)": {
						"details": "See {IERC20-transferFrom}. Emits an {Approval} event indicating the updated allowance. This is not required by the EIP. See the note at the beginning of {ERC20}. NOTE: Does not update the allowance if the current allowance is the maximum `uint256`. Requirements: - `from` and `to` cannot be the zero address. - `from` must have a balance of at least `amount`. - the caller must have allowance for ``from``'s tokens of at least `amount`."
					},
					"transferOwnership(address)": {
						"details": "Transfers ownership of the contract to a new account (`newOwner`). Can only be called by the current owner."
					}
				},
				"version": 1
			},
			"evm": {
				"assembly": "    /* \"TeslaToken.sol\":292:772  contract TeslaToken is ERC20, Ownable {... */\n  mstore(0x40, 0x80)\n    /* \"TeslaToken.sol\":368:556  constructor() ERC20(\"Tesla\", \"TSL\") {... */\n  callvalue\n  dup1\n  iszero\n  tag_1\n  jumpi\n  0x00\n  dup1\n  revert\ntag_1:\n  pop\n    /* \"https://github.com/OpenZeppelin/openzeppelin-contracts/blob/release-v4.9/contracts/token/ERC20/ERC20.sol\":1980:2093  constructor(string memory name_, string memory symbol_) {... */\n  mload(0x40)\n  dup1\n  0x40\n  add\n  0x40\n  mstore\n  dup1\n  0x05\n  dup2\n  mstore\n  0x20\n  add\n  0x5465736c61000000000000000000000000000000000000000000000000000000\n  dup2\n  mstore\n  pop\n  mload(0x40)\n  dup1\n  0x40\n  add\n  0x40\n  mstore\n  dup1\n  0x03\n  dup2\n  mstore\n  0x20\n  add\n  0x54534c0000000000000000000000000000000000000000000000000000000000\n  dup2\n  mstore\n  pop\n    /* \"https://github.com/OpenZeppelin/openzeppelin-contracts/blob/release-v4.9/contracts/token/ERC20/ERC20.sol\":2054:2059  name_ */\n  dup2\n    /* \"https://github.com/OpenZeppelin/openzeppelin-contracts/blob/release-v4.9/contracts/token/ERC20/ERC20.sol\":2046:2051  _name */\n  0x03\n    /* \"https://github.com/OpenZeppelin/openzeppelin-contracts/blob/release-v4.9/contracts/token/ERC20/ERC20.sol\":2046:2059  _name = name_ */\n  swap1\n  dup2\n  tag_6\n  swap2\n  swap1\n  tag_7\n  jump\t// in\ntag_6:\n  pop\n    /* \"https://github.com/OpenZeppelin/openzeppelin-contracts/blob/release-v4.9/contracts/token/ERC20/ERC20.sol\":2079:2086  symbol_ */\n  dup1\n    /* \"https://github.com/OpenZeppelin/openzeppelin-contracts/blob/release-v4.9/contracts/token/ERC20/ERC20.sol\":2069:2076  _symbol */\n  0x04\n    /* \"https://github.com/OpenZeppelin/openzeppelin-contracts/blob/release-v4.9/contracts/token/ERC20/ERC20.sol\":2069:2086  _symbol = symbol_ */\n  swap1\n  dup2\n  tag_8\n  swap2\n  swap1\n  tag_7\n  jump\t// in\ntag_8:\n  pop\n    /* \"https://github.com/OpenZeppelin/openzeppelin-contracts/blob/release-v4.9/contracts/token/ERC20/ERC20.sol\":1980:2093  constructor(string memory name_, string memory symbol_) {... */\n  pop\n  pop\n    /* \"https://github.com/OpenZeppelin/openzeppelin-contracts/blob/release-v4.9/contracts/access/Ownable.sol\":936:968  _transferOwnership(_msgSender()) */\n  tag_10\n    /* \"https://github.com/OpenZeppelin/openzeppelin-contracts/blob/release-v4.9/contracts/access/Ownable.sol\":955:967  _msgSender() */\n  tag_11\n    /* \"https://github.com/OpenZeppelin/openzeppelin-contracts/blob/release-v4.9/contracts/access/Ownable.sol\":955:965  _msgSender */\n  shl(0x20, tag_12)\n    /* \"https://github.com/OpenZeppelin/openzeppelin-contracts/blob/release-v4.9/contracts/access/Ownable.sol\":955:967  _msgSender() */\n  0x20\n  shr\n  jump\t// in\ntag_11:\n    /* \"https://github.com/OpenZeppelin/openzeppelin-contracts/blob/release-v4.9/contracts/access/Ownable.sol\":936:954  _transferOwnership */\n  shl(0x20, tag_13)\n    /* \"https://github.com/OpenZeppelin/openzeppelin-contracts/blob/release-v4.9/contracts/access/Ownable.sol\":936:968  _transferOwnership(_msgSender()) */\n  0x20\n  shr\n  jump\t// in\ntag_10:\n    /* \"TeslaToken.sol\":415:478  _mint(msg.sender, 1000000000000000000000000 * 10 ** decimals()) */\n  tag_15\n    /* \"TeslaToken.sol\":421:431  msg.sender */\n  caller\n    /* \"TeslaToken.sol\":467:477  decimals() */\n  tag_16\n    /* \"TeslaToken.sol\":467:475  decimals */\n  shl(0x20, tag_17)\n    /* \"TeslaToken.sol\":467:477  decimals() */\n  0x20\n  shr\n  jump\t// in\ntag_16:\n    /* \"TeslaToken.sol\":461:463  10 */\n  0x0a\n    /* \"TeslaToken.sol\":461:477  10 ** decimals() */\n  tag_18\n  swap2\n  swap1\n  tag_19\n  jump\t// in\ntag_18:\n    /* \"TeslaToken.sol\":433:458  1000000000000000000000000 */\n  0xd3c21bcecceda1000000\n    /* \"TeslaToken.sol\":433:477  1000000000000000000000000 * 10 ** decimals() */\n  tag_20\n  swap2\n  swap1\n  tag_21\n  jump\t// in\ntag_20:\n    /* \"TeslaToken.sol\":415:420  _mint */\n  shl(0x20, tag_22)\n    /* \"TeslaToken.sol\":415:478  _mint(msg.sender, 1000000000000000000000000 * 10 ** decimals()) */\n  0x20\n  shr\n  jump\t// in\ntag_15:\n    /* \"TeslaToken.sol\":489:548  logoHash = \"QmWpffSgXHBgT3kCPukkwNDpzyJArt8vkgLcWw1qS8Vtgt\" */\n  mload(0x40)\n  dup1\n  0x60\n  add\n  0x40\n  mstore\n  dup1\n  0x2e\n  dup2\n  mstore\n  0x20\n  add\n  data_7b67d38243a34afe829933ff6dc77d9aca0e97b9baf8d55aad5983db4c306e68\n  0x2e\n  swap2\n  codecopy\n    /* \"TeslaToken.sol\":489:497  logoHash */\n  0x06\n    /* \"TeslaToken.sol\":489:548  logoHash = \"QmWpffSgXHBgT3kCPukkwNDpzyJArt8vkgLcWw1qS8Vtgt\" */\n  swap1\n  dup2\n  tag_23\n  swap2\n  swap1\n  tag_7\n  jump\t// in\ntag_23:\n  pop\n    /* \"TeslaToken.sol\":292:772  contract TeslaToken is ERC20, Ownable {... */\n  jump(tag_24)\n    /* \"https://github.com/OpenZeppelin/openzeppelin-contracts/blob/release-v4.9/contracts/utils/Context.sol\":655:751  function _msgSender() internal view virtual returns (address) {... */\ntag_12:\n    /* \"https://github.com/OpenZeppelin/openzeppelin-contracts/blob/release-v4.9/contracts/utils/Context.sol\":708:715  address */\n  0x00\n    /* \"https://github.com/OpenZeppelin/openzeppelin-contracts/blob/release-v4.9/contracts/utils/Context.sol\":734:744  msg.sender */\n  caller\n    /* \"https://github.com/OpenZeppelin/openzeppelin-contracts/blob/release-v4.9/contracts/utils/Context.sol\":727:744  return msg.sender */\n  swap1\n  pop\n    /* \"https://github.com/OpenZeppelin/openzeppelin-contracts/blob/release-v4.9/contracts/utils/Context.sol\":655:751  function _msgSender() internal view virtual returns (address) {... */\n  swap1\n  jump\t// out\n    /* \"https://github.com/OpenZeppelin/openzeppelin-contracts/blob/release-v4.9/contracts/access/Ownable.sol\":2426:2613  function _transferOwnership(address newOwner) internal virtual {... */\ntag_13:\n    /* \"https://github.com/OpenZeppelin/openzeppelin-contracts/blob/release-v4.9/contracts/access/Ownable.sol\":2499:2515  address oldOwner */\n  0x00\n    /* \"https://github.com/OpenZeppelin/openzeppelin-contracts/blob/release-v4.9/contracts/access/Ownable.sol\":2518:2524  _owner */\n  0x05\n  0x00\n  swap1\n  sload\n  swap1\n  0x0100\n  exp\n  swap1\n  div\n  0xffffffffffffffffffffffffffffffffffffffff\n  and\n    /* \"https://github.com/OpenZeppelin/openzeppelin-contracts/blob/release-v4.9/contracts/access/Ownable.sol\":2499:2524  address oldOwner = _owner */\n  swap1\n  pop\n    /* \"https://github.com/OpenZeppelin/openzeppelin-contracts/blob/release-v4.9/contracts/access/Ownable.sol\":2543:2551  newOwner */\n  dup2\n    /* \"https://github.com/OpenZeppelin/openzeppelin-contracts/blob/release-v4.9/contracts/access/Ownable.sol\":2534:2540  _owner */\n  0x05\n  0x00\n    /* \"https://github.com/OpenZeppelin/openzeppelin-contracts/blob/release-v4.9/contracts/access/Ownable.sol\":2534:2551  _owner = newOwner */\n  0x0100\n  exp\n  dup2\n  sload\n  dup2\n  0xffffffffffffffffffffffffffffffffffffffff\n  mul\n  not\n  and\n  swap1\n  dup4\n  0xffffffffffffffffffffffffffffffffffffffff\n  and\n  mul\n  or\n  swap1\n  sstore\n  pop\n    /* \"https://github.com/OpenZeppelin/openzeppelin-contracts/blob/release-v4.9/contracts/access/Ownable.sol\":2597:2605  newOwner */\n  dup2\n    /* \"https://github.com/OpenZeppelin/openzeppelin-contracts/blob/release-v4.9/contracts/access/Ownable.sol\":2566:2606  OwnershipTransferred(oldOwner, newOwner) */\n  0xffffffffffffffffffffffffffffffffffffffff\n  and\n    /* \"https://github.com/OpenZeppelin/openzeppelin-contracts/blob/release-v4.9/contracts/access/Ownable.sol\":2587:2595  oldOwner */\n  dup2\n    /* \"https://github.com/OpenZeppelin/openzeppelin-contracts/blob/release-v4.9/contracts/access/Ownable.sol\":2566:2606  OwnershipTransferred(oldOwner, newOwner) */\n  0xffffffffffffffffffffffffffffffffffffffff\n  and\n  0x8be0079c531659141344cd1fd0a4f28419497f9722a3daafe3b4186f6b6457e0\n  mload(0x40)\n  mload(0x40)\n  dup1\n  swap2\n  sub\n  swap1\n  log3\n    /* \"https://github.com/OpenZeppelin/openzeppelin-contracts/blob/release-v4.9/contracts/access/Ownable.sol\":2489:2613  {... */\n  pop\n    /* \"https://github.com/OpenZeppelin/openzeppelin-contracts/blob/release-v4.9/contracts/access/Ownable.sol\":2426:2613  function _transferOwnership(address newOwner) internal virtual {... */\n  pop\n  jump\t// out\n    /* \"https://github.com/OpenZeppelin/openzeppelin-contracts/blob/release-v4.9/contracts/token/ERC20/ERC20.sol\":3104:3195  function decimals() public view virtual override returns (uint8) {... */\ntag_17:\n    /* \"https://github.com/OpenZeppelin/openzeppelin-contracts/blob/release-v4.9/contracts/token/ERC20/ERC20.sol\":3162:3167  uint8 */\n  0x00\n    /* \"https://github.com/OpenZeppelin/openzeppelin-contracts/blob/release-v4.9/contracts/token/ERC20/ERC20.sol\":3186:3188  18 */\n  0x12\n    /* \"https://github.com/OpenZeppelin/openzeppelin-contracts/blob/release-v4.9/contracts/token/ERC20/ERC20.sol\":3179:3188  return 18 */\n  swap1\n  pop\n    /* \"https://github.com/OpenZeppelin/openzeppelin-contracts/blob/release-v4.9/contracts/token/ERC20/ERC20.sol\":3104:3195  function decimals() public view virtual override returns (uint8) {... */\n  swap1\n  jump\t// out\n    /* \"https://github.com/OpenZeppelin/openzeppelin-contracts/blob/release-v4.9/contracts/token/ERC20/ERC20.sol\":8520:9055  function _mint(address account, uint256 amount) internal virtual {... */\ntag_22:\n    /* \"https://github.com/OpenZeppelin/openzeppelin-contracts/blob/release-v4.9/contracts/token/ERC20/ERC20.sol\":8622:8623  0 */\n  0x00\n    /* \"https://github.com/OpenZeppelin/openzeppelin-contracts/blob/release-v4.9/contracts/token/ERC20/ERC20.sol\":8603:8624  account != address(0) */\n  0xffffffffffffffffffffffffffffffffffffffff\n  and\n    /* \"https://github.com/OpenZeppelin/openzeppelin-contracts/blob/release-v4.9/contracts/token/ERC20/ERC20.sol\":8603:8610  account */\n  dup3\n    /* \"https://github.com/OpenZeppelin/openzeppelin-contracts/blob/release-v4.9/contracts/token/ERC20/ERC20.sol\":8603:8624  account != address(0) */\n  0xffffffffffffffffffffffffffffffffffffffff\n  and\n  sub\n    /* \"https://github.com/OpenZeppelin/openzeppelin-contracts/blob/release-v4.9/contracts/token/ERC20/ERC20.sol\":8595:8660  require(account != address(0), \"ERC20: mint to the zero address\") */\n  tag_29\n  jumpi\n  mload(0x40)\n  0x08c379a000000000000000000000000000000000000000000000000000000000\n  dup2\n  mstore\n  0x04\n  add\n  tag_30\n  swap1\n  tag_31\n  jump\t// in\ntag_30:\n  mload(0x40)\n  dup1\n  swap2\n  sub\n  swap1\n  revert\ntag_29:\n    /* \"https://github.com/OpenZeppelin/openzeppelin-contracts/blob/release-v4.9/contracts/token/ERC20/ERC20.sol\":8671:8720  _beforeTokenTransfer(address(0), account, amount) */\n  tag_32\n    /* \"https://github.com/OpenZeppelin/openzeppelin-contracts/blob/release-v4.9/contracts/token/ERC20/ERC20.sol\":8700:8701  0 */\n  0x00\n    /* \"https://github.com/OpenZeppelin/openzeppelin-contracts/blob/release-v4.9/contracts/token/ERC20/ERC20.sol\":8704:8711  account */\n  dup4\n    /* \"https://github.com/OpenZeppelin/openzeppelin-contracts/blob/release-v4.9/contracts/token/ERC20/ERC20.sol\":8713:8719  amount */\n  dup4\n    /* \"https://github.com/OpenZeppelin/openzeppelin-contracts/blob/release-v4.9/contracts/token/ERC20/ERC20.sol\":8671:8691  _beforeTokenTransfer */\n  shl(0x20, tag_33)\n    /* \"https://github.com/OpenZeppelin/openzeppelin-contracts/blob/release-v4.9/contracts/token/ERC20/ERC20.sol\":8671:8720  _beforeTokenTransfer(address(0), account, amount) */\n  0x20\n  shr\n  jump\t// in\ntag_32:\n    /* \"https://github.com/OpenZeppelin/openzeppelin-contracts/blob/release-v4.9/contracts/token/ERC20/ERC20.sol\":8747:8753  amount */\n  dup1\n    /* \"https://github.com/OpenZeppelin/openzeppelin-contracts/blob/release-v4.9/contracts/token/ERC20/ERC20.sol\":8731:8743  _totalSupply */\n  0x02\n  0x00\n    /* \"https://github.com/OpenZeppelin/openzeppelin-contracts/blob/release-v4.9/contracts/token/ERC20/ERC20.sol\":8731:8753  _totalSupply += amount */\n  dup3\n  dup3\n  sload\n  tag_34\n  swap2\n  swap1\n  tag_35\n  jump\t// in\ntag_34:\n  swap3\n  pop\n  pop\n  dup2\n  swap1\n  sstore\n  pop\n    /* \"https://github.com/OpenZeppelin/openzeppelin-contracts/blob/release-v4.9/contracts/token/ERC20/ERC20.sol\":8921:8927  amount */\n  dup1\n    /* \"https://github.com/OpenZeppelin/openzeppelin-contracts/blob/release-v4.9/contracts/token/ERC20/ERC20.sol\":8899:8908  _balances */\n  0x00\n    /* \"https://github.com/OpenZeppelin/openzeppelin-contracts/blob/release-v4.9/contracts/token/ERC20/ERC20.sol\":8899:8917  _balances[account] */\n  dup1\n    /* \"https://github.com/OpenZeppelin/openzeppelin-contracts/blob/release-v4.9/contracts/token/ERC20/ERC20.sol\":8909:8916  account */\n  dup5\n    /* \"https://github.com/OpenZeppelin/openzeppelin-contracts/blob/release-v4.9/contracts/token/ERC20/ERC20.sol\":8899:8917  _balances[account] */\n  0xffffffffffffffffffffffffffffffffffffffff\n  and\n  0xffffffffffffffffffffffffffffffffffffffff\n  and\n  dup2\n  mstore\n  0x20\n  add\n  swap1\n  dup2\n  mstore\n  0x20\n  add\n  0x00\n  keccak256\n  0x00\n    /* \"https://github.com/OpenZeppelin/openzeppelin-contracts/blob/release-v4.9/contracts/token/ERC20/ERC20.sol\":8899:8927  _balances[account] += amount */\n  dup3\n  dup3\n  sload\n  add\n  swap3\n  pop\n  pop\n  dup2\n  swap1\n  sstore\n  pop\n    /* \"https://github.com/OpenZeppelin/openzeppelin-contracts/blob/release-v4.9/contracts/token/ERC20/ERC20.sol\":8973:8980  account */\n  dup2\n    /* \"https://github.com/OpenZeppelin/openzeppelin-contracts/blob/release-v4.9/contracts/token/ERC20/ERC20.sol\":8952:8989  Transfer(address(0), account, amount) */\n  0xffffffffffffffffffffffffffffffffffffffff\n  and\n    /* \"https://github.com/OpenZeppelin/openzeppelin-contracts/blob/release-v4.9/contracts/token/ERC20/ERC20.sol\":8969:8970  0 */\n  0x00\n    /* \"https://github.com/OpenZeppelin/openzeppelin-contracts/blob/release-v4.9/contracts/token/ERC20/ERC20.sol\":8952:8989  Transfer(address(0), account, amount) */\n  0xffffffffffffffffffffffffffffffffffffffff\n  and\n  0xddf252ad1be2c89b69c2b068fc378daa952ba7f163c4a11628f55a4df523b3ef\n    /* \"https://github.com/OpenZeppelin/openzeppelin-contracts/blob/release-v4.9/contracts/token/ERC20/ERC20.sol\":8982:8988  amount */\n  dup4\n    /* \"https://github.com/OpenZeppelin/openzeppelin-contracts/blob/release-v4.9/contracts/token/ERC20/ERC20.sol\":8952:8989  Transfer(address(0), account, amount) */\n  mload(0x40)\n  tag_36\n  swap2\n  swap1\n  tag_37\n  jump\t// in\ntag_36:\n  mload(0x40)\n  dup1\n  swap2\n  sub\n  swap1\n  log3\n    /* \"https://github.com/OpenZeppelin/openzeppelin-contracts/blob/release-v4.9/contracts/token/ERC20/ERC20.sol\":9000:9048  _afterTokenTransfer(address(0), account, amount) */\n  tag_38\n    /* \"https://github.com/OpenZeppelin/openzeppelin-contracts/blob/release-v4.9/contracts/token/ERC20/ERC20.sol\":9028:9029  0 */\n  0x00\n    /* \"https://github.com/OpenZeppelin/openzeppelin-contracts/blob/release-v4.9/contracts/token/ERC20/ERC20.sol\":9032:9039  account */\n  dup4\n    /* \"https://github.com/OpenZeppelin/openzeppelin-contracts/blob/release-v4.9/contracts/token/ERC20/ERC20.sol\":9041:9047  amount */\n  dup4\n    /* \"https://github.com/OpenZeppelin/openzeppelin-contracts/blob/release-v4.9/contracts/token/ERC20/ERC20.sol\":9000:9019  _afterTokenTransfer */\n  shl(0x20, tag_39)\n    /* \"https://github.com/OpenZeppelin/openzeppelin-contracts/blob/release-v4.9/contracts/token/ERC20/ERC20.sol\":9000:9048  _afterTokenTransfer(address(0), account, amount) */\n  0x20\n  shr\n  jump\t// in\ntag_38:\n    /* \"https://github.com/OpenZeppelin/openzeppelin-contracts/blob/release-v4.9/contracts/token/ERC20/ERC20.sol\":8520:9055  function _mint(address account, uint256 amount) internal virtual {... */\n  pop\n  pop\n  jump\t// out\n    /* \"https://github.com/OpenZeppelin/openzeppelin-contracts/blob/release-v4.9/contracts/token/ERC20/ERC20.sol\":12073:12164  function _beforeTokenTransfer(address from, address to, uint256 amount) internal virtual {} */\ntag_33:\n  pop\n  pop\n  pop\n  jump\t// out\n    /* \"https://github.com/OpenZeppelin/openzeppelin-contracts/blob/release-v4.9/contracts/token/ERC20/ERC20.sol\":12752:12842  function _afterTokenTransfer(address from, address to, uint256 amount) internal virtual {} */\ntag_39:\n  pop\n  pop\n  pop\n  jump\t// out\n    /* \"#utility.yul\":7:106   */\ntag_42:\n    /* \"#utility.yul\":59:65   */\n  0x00\n    /* \"#utility.yul\":93:98   */\n  dup2\n    /* \"#utility.yul\":87:99   */\n  mload\n    /* \"#utility.yul\":77:99   */\n  swap1\n  pop\n    /* \"#utility.yul\":7:106   */\n  swap2\n  swap1\n  pop\n  jump\t// out\n    /* \"#utility.yul\":112:292   */\ntag_43:\n    /* \"#utility.yul\":160:237   */\n  0x4e487b7100000000000000000000000000000000000000000000000000000000\n    /* \"#utility.yul\":157:158   */\n  0x00\n    /* \"#utility.yul\":150:238   */\n  mstore\n    /* \"#utility.yul\":257:261   */\n  0x41\n    /* \"#utility.yul\":254:255   */\n  0x04\n    /* \"#utility.yul\":247:262   */\n  mstore\n    /* \"#utility.yul\":281:285   */\n  0x24\n    /* \"#utility.yul\":278:279   */\n  0x00\n    /* \"#utility.yul\":271:286   */\n  revert\n    /* \"#utility.yul\":298:478   */\ntag_44:\n    /* \"#utility.yul\":346:423   */\n  0x4e487b7100000000000000000000000000000000000000000000000000000000\n    /* \"#utility.yul\":343:344   */\n  0x00\n    /* \"#utility.yul\":336:424   */\n  mstore\n    /* \"#utility.yul\":443:447   */\n  0x22\n    /* \"#utility.yul\":440:441   */\n  0x04\n    /* \"#utility.yul\":433:448   */\n  mstore\n    /* \"#utility.yul\":467:471   */\n  0x24\n    /* \"#utility.yul\":464:465   */\n  0x00\n    /* \"#utility.yul\":457:472   */\n  revert\n    /* \"#utility.yul\":484:804   */\ntag_45:\n    /* \"#utility.yul\":528:534   */\n  0x00\n    /* \"#utility.yul\":565:566   */\n  0x02\n    /* \"#utility.yul\":559:563   */\n  dup3\n    /* \"#utility.yul\":555:567   */\n  div\n    /* \"#utility.yul\":545:567   */\n  swap1\n  pop\n    /* \"#utility.yul\":612:613   */\n  0x01\n    /* \"#utility.yul\":606:610   */\n  dup3\n    /* \"#utility.yul\":602:614   */\n  and\n    /* \"#utility.yul\":633:651   */\n  dup1\n    /* \"#utility.yul\":623:704   */\n  tag_76\n  jumpi\n    /* \"#utility.yul\":689:693   */\n  0x7f\n    /* \"#utility.yul\":681:687   */\n  dup3\n    /* \"#utility.yul\":677:694   */\n  and\n    /* \"#utility.yul\":667:694   */\n  swap2\n  pop\n    /* \"#utility.yul\":623:704   */\ntag_76:\n    /* \"#utility.yul\":751:753   */\n  0x20\n    /* \"#utility.yul\":743:749   */\n  dup3\n    /* \"#utility.yul\":740:754   */\n  lt\n    /* \"#utility.yul\":720:738   */\n  dup2\n    /* \"#utility.yul\":717:755   */\n  sub\n    /* \"#utility.yul\":714:798   */\n  tag_77\n  jumpi\n    /* \"#utility.yul\":770:788   */\n  tag_78\n  tag_44\n  jump\t// in\ntag_78:\n    /* \"#utility.yul\":714:798   */\ntag_77:\n    /* \"#utility.yul\":535:804   */\n  pop\n    /* \"#utility.yul\":484:804   */\n  swap2\n  swap1\n  pop\n  jump\t// out\n    /* \"#utility.yul\":810:951   */\ntag_46:\n    /* \"#utility.yul\":859:863   */\n  0x00\n    /* \"#utility.yul\":882:885   */\n  dup2\n    /* \"#utility.yul\":874:885   */\n  swap1\n  pop\n    /* \"#utility.yul\":905:908   */\n  dup2\n    /* \"#utility.yul\":902:903   */\n  0x00\n    /* \"#utility.yul\":895:909   */\n  mstore\n    /* \"#utility.yul\":939:943   */\n  0x20\n    /* \"#utility.yul\":936:937   */\n  0x00\n    /* \"#utility.yul\":926:944   */\n  keccak256\n    /* \"#utility.yul\":918:944   */\n  swap1\n  pop\n    /* \"#utility.yul\":810:951   */\n  swap2\n  swap1\n  pop\n  jump\t// out\n    /* \"#utility.yul\":957:1050   */\ntag_47:\n    /* \"#utility.yul\":994:1000   */\n  0x00\n    /* \"#utility.yul\":1041:1043   */\n  0x20\n    /* \"#utility.yul\":1036:1038   */\n  0x1f\n    /* \"#utility.yul\":1029:1034   */\n  dup4\n    /* \"#utility.yul\":1025:1039   */\n  add\n    /* \"#utility.yul\":1021:1044   */\n  div\n    /* \"#utility.yul\":1011:1044   */\n  swap1\n  pop\n    /* \"#utility.yul\":957:1050   */\n  swap2\n  swap1\n  pop\n  jump\t// out\n    /* \"#utility.yul\":1056:1163   */\ntag_48:\n    /* \"#utility.yul\":1100:1108   */\n  0x00\n    /* \"#utility.yul\":1150:1155   */\n  dup3\n    /* \"#utility.yul\":1144:1148   */\n  dup3\n    /* \"#utility.yul\":1140:1156   */\n  shl\n    /* \"#utility.yul\":1119:1156   */\n  swap1\n  pop\n    /* \"#utility.yul\":1056:1163   */\n  swap3\n  swap2\n  pop\n  pop\n  jump\t// out\n    /* \"#utility.yul\":1169:1562   */\ntag_49:\n    /* \"#utility.yul\":1238:1244   */\n  0x00\n    /* \"#utility.yul\":1288:1289   */\n  0x08\n    /* \"#utility.yul\":1276:1286   */\n  dup4\n    /* \"#utility.yul\":1272:1290   */\n  mul\n    /* \"#utility.yul\":1311:1408   */\n  tag_83\n    /* \"#utility.yul\":1341:1407   */\n  0xffffffffffffffffffffffffffffffffffffffffffffffffffffffffffffffff\n    /* \"#utility.yul\":1330:1339   */\n  dup3\n    /* \"#utility.yul\":1311:1408   */\n  tag_48\n  jump\t// in\ntag_83:\n    /* \"#utility.yul\":1429:1468   */\n  tag_84\n    /* \"#utility.yul\":1459:1467   */\n  dup7\n    /* \"#utility.yul\":1448:1457   */\n  dup4\n    /* \"#utility.yul\":1429:1468   */\n  tag_48\n  jump\t// in\ntag_84:\n    /* \"#utility.yul\":1417:1468   */\n  swap6\n  pop\n    /* \"#utility.yul\":1501:1505   */\n  dup1\n    /* \"#utility.yul\":1497:1506   */\n  not\n    /* \"#utility.yul\":1490:1495   */\n  dup5\n    /* \"#utility.yul\":1486:1507   */\n  and\n    /* \"#utility.yul\":1477:1507   */\n  swap4\n  pop\n    /* \"#utility.yul\":1550:1554   */\n  dup1\n    /* \"#utility.yul\":1540:1548   */\n  dup7\n    /* \"#utility.yul\":1536:1555   */\n  and\n    /* \"#utility.yul\":1529:1534   */\n  dup5\n    /* \"#utility.yul\":1526:1556   */\n  or\n    /* \"#utility.yul\":1516:1556   */\n  swap3\n  pop\n    /* \"#utility.yul\":1245:1562   */\n  pop\n  pop\n    /* \"#utility.yul\":1169:1562   */\n  swap4\n  swap3\n  pop\n  pop\n  pop\n  jump\t// out\n    /* \"#utility.yul\":1568:1645   */\ntag_50:\n    /* \"#utility.yul\":1605:1612   */\n  0x00\n    /* \"#utility.yul\":1634:1639   */\n  dup2\n    /* \"#utility.yul\":1623:1639   */\n  swap1\n  pop\n    /* \"#utility.yul\":1568:1645   */\n  swap2\n  swap1\n  pop\n  jump\t// out\n    /* \"#utility.yul\":1651:1711   */\ntag_51:\n    /* \"#utility.yul\":1679:1682   */\n  0x00\n    /* \"#utility.yul\":1700:1705   */\n  dup2\n    /* \"#utility.yul\":1693:1705   */\n  swap1\n  pop\n    /* \"#utility.yul\":1651:1711   */\n  swap2\n  swap1\n  pop\n  jump\t// out\n    /* \"#utility.yul\":1717:1859   */\ntag_52:\n    /* \"#utility.yul\":1767:1776   */\n  0x00\n    /* \"#utility.yul\":1800:1853   */\n  tag_88\n    /* \"#utility.yul\":1818:1852   */\n  tag_89\n    /* \"#utility.yul\":1827:1851   */\n  tag_90\n    /* \"#utility.yul\":1845:1850   */\n  dup5\n    /* \"#utility.yul\":1827:1851   */\n  tag_50\n  jump\t// in\ntag_90:\n    /* \"#utility.yul\":1818:1852   */\n  tag_51\n  jump\t// in\ntag_89:\n    /* \"#utility.yul\":1800:1853   */\n  tag_50\n  jump\t// in\ntag_88:\n    /* \"#utility.yul\":1787:1853   */\n  swap1\n  pop\n    /* \"#utility.yul\":1717:1859   */\n  swap2\n  swap1\n  pop\n  jump\t// out\n    /* \"#utility.yul\":1865:1940   */\ntag_53:\n    /* \"#utility.yul\":1908:1911   */\n  0x00\n    /* \"#utility.yul\":1929:1934   */\n  dup2\n    /* \"#utility.yul\":1922:1934   */\n  swap1\n  pop\n    /* \"#utility.yul\":1865:1940   */\n  swap2\n  swap1\n  pop\n  jump\t// out\n    /* \"#utility.yul\":1946:2215   */\ntag_54:\n    /* \"#utility.yul\":2056:2095   */\n  tag_93\n    /* \"#utility.yul\":2087:2094   */\n  dup4\n    /* \"#utility.yul\":2056:2095   */\n  tag_52\n  jump\t// in\ntag_93:\n    /* \"#utility.yul\":2117:2208   */\n  tag_94\n    /* \"#utility.yul\":2166:2207   */\n  tag_95\n    /* \"#utility.yul\":2190:2206   */\n  dup3\n    /* \"#utility.yul\":2166:2207   */\n  tag_53\n  jump\t// in\ntag_95:\n    /* \"#utility.yul\":2158:2164   */\n  dup5\n    /* \"#utility.yul\":2151:2155   */\n  dup5\n    /* \"#utility.yul\":2145:2156   */\n  sload\n    /* \"#utility.yul\":2117:2208   */\n  tag_49\n  jump\t// in\ntag_94:\n    /* \"#utility.yul\":2111:2115   */\n  dup3\n    /* \"#utility.yul\":2104:2209   */\n  sstore\n    /* \"#utility.yul\":2022:2215   */\n  pop\n    /* \"#utility.yul\":1946:2215   */\n  pop\n  pop\n  pop\n  jump\t// out\n    /* \"#utility.yul\":2221:2294   */\ntag_55:\n    /* \"#utility.yul\":2266:2269   */\n  0x00\n    /* \"#utility.yul\":2221:2294   */\n  swap1\n  jump\t// out\n    /* \"#utility.yul\":2300:2489   */\ntag_56:\n    /* \"#utility.yul\":2377:2409   */\n  tag_98\n  tag_55\n  jump\t// in\ntag_98:\n    /* \"#utility.yul\":2418:2483   */\n  tag_99\n    /* \"#utility.yul\":2476:2482   */\n  dup2\n    /* \"#utility.yul\":2468:2474   */\n  dup5\n    /* \"#utility.yul\":2462:2466   */\n  dup5\n    /* \"#utility.yul\":2418:2483   */\n  tag_54\n  jump\t// in\ntag_99:\n    /* \"#utility.yul\":2353:2489   */\n  pop\n    /* \"#utility.yul\":2300:2489   */\n  pop\n  pop\n  jump\t// out\n    /* \"#utility.yul\":2495:2681   */\ntag_57:\n    /* \"#utility.yul\":2555:2675   */\ntag_101:\n    /* \"#utility.yul\":2572:2575   */\n  dup2\n    /* \"#utility.yul\":2565:2570   */\n  dup2\n    /* \"#utility.yul\":2562:2576   */\n  lt\n    /* \"#utility.yul\":2555:2675   */\n  iszero\n  tag_103\n  jumpi\n    /* \"#utility.yul\":2626:2665   */\n  tag_104\n    /* \"#utility.yul\":2663:2664   */\n  0x00\n    /* \"#utility.yul\":2656:2661   */\n  dup3\n    /* \"#utility.yul\":2626:2665   */\n  tag_56\n  jump\t// in\ntag_104:\n    /* \"#utility.yul\":2599:2600   */\n  0x01\n    /* \"#utility.yul\":2592:2597   */\n  dup2\n    /* \"#utility.yul\":2588:2601   */\n  add\n    /* \"#utility.yul\":2579:2601   */\n  swap1\n  pop\n    /* \"#utility.yul\":2555:2675   */\n  jump(tag_101)\ntag_103:\n    /* \"#utility.yul\":2495:2681   */\n  pop\n  pop\n  jump\t// out\n    /* \"#utility.yul\":2687:3230   */\ntag_58:\n    /* \"#utility.yul\":2788:2790   */\n  0x1f\n    /* \"#utility.yul\":2783:2786   */\n  dup3\n    /* \"#utility.yul\":2780:2791   */\n  gt\n    /* \"#utility.yul\":2777:3223   */\n  iszero\n  tag_106\n  jumpi\n    /* \"#utility.yul\":2822:2860   */\n  tag_107\n    /* \"#utility.yul\":2854:2859   */\n  dup2\n    /* \"#utility.yul\":2822:2860   */\n  tag_46\n  jump\t// in\ntag_107:\n    /* \"#utility.yul\":2906:2935   */\n  tag_108\n    /* \"#utility.yul\":2924:2934   */\n  dup5\n    /* \"#utility.yul\":2906:2935   */\n  tag_47\n  jump\t// in\ntag_108:\n    /* \"#utility.yul\":2896:2904   */\n  dup2\n    /* \"#utility.yul\":2892:2936   */\n  add\n    /* \"#utility.yul\":3089:3091   */\n  0x20\n    /* \"#utility.yul\":3077:3087   */\n  dup6\n    /* \"#utility.yul\":3074:3092   */\n  lt\n    /* \"#utility.yul\":3071:3120   */\n  iszero\n  tag_109\n  jumpi\n    /* \"#utility.yul\":3110:3118   */\n  dup2\n    /* \"#utility.yul\":3095:3118   */\n  swap1\n  pop\n    /* \"#utility.yul\":3071:3120   */\ntag_109:\n    /* \"#utility.yul\":3133:3213   */\n  tag_110\n    /* \"#utility.yul\":3189:3211   */\n  tag_111\n    /* \"#utility.yul\":3207:3210   */\n  dup6\n    /* \"#utility.yul\":3189:3211   */\n  tag_47\n  jump\t// in\ntag_111:\n    /* \"#utility.yul\":3179:3187   */\n  dup4\n    /* \"#utility.yul\":3175:3212   */\n  add\n    /* \"#utility.yul\":3162:3173   */\n  dup3\n    /* \"#utility.yul\":3133:3213   */\n  tag_57\n  jump\t// in\ntag_110:\n    /* \"#utility.yul\":2792:3223   */\n  pop\n  pop\n    /* \"#utility.yul\":2777:3223   */\ntag_106:\n    /* \"#utility.yul\":2687:3230   */\n  pop\n  pop\n  pop\n  jump\t// out\n    /* \"#utility.yul\":3236:3353   */\ntag_59:\n    /* \"#utility.yul\":3290:3298   */\n  0x00\n    /* \"#utility.yul\":3340:3345   */\n  dup3\n    /* \"#utility.yul\":3334:3338   */\n  dup3\n    /* \"#utility.yul\":3330:3346   */\n  shr\n    /* \"#utility.yul\":3309:3346   */\n  swap1\n  pop\n    /* \"#utility.yul\":3236:3353   */\n  swap3\n  swap2\n  pop\n  pop\n  jump\t// out\n    /* \"#utility.yul\":3359:3528   */\ntag_60:\n    /* \"#utility.yul\":3403:3409   */\n  0x00\n    /* \"#utility.yul\":3436:3487   */\n  tag_114\n    /* \"#utility.yul\":3484:3485   */\n  0x00\n    /* \"#utility.yul\":3480:3486   */\n  not\n    /* \"#utility.yul\":3472:3477   */\n  dup5\n    /* \"#utility.yul\":3469:3470   */\n  0x08\n    /* \"#utility.yul\":3465:3478   */\n  mul\n    /* \"#utility.yul\":3436:3487   */\n  tag_59\n  jump\t// in\ntag_114:\n    /* \"#utility.yul\":3432:3488   */\n  not\n    /* \"#utility.yul\":3517:3521   */\n  dup1\n    /* \"#utility.yul\":3511:3515   */\n  dup4\n    /* \"#utility.yul\":3507:3522   */\n  and\n    /* \"#utility.yul\":3497:3522   */\n  swap2\n  pop\n    /* \"#utility.yul\":3410:3528   */\n  pop\n    /* \"#utility.yul\":3359:3528   */\n  swap3\n  swap2\n  pop\n  pop\n  jump\t// out\n    /* \"#utility.yul\":3533:3828   */\ntag_61:\n    /* \"#utility.yul\":3609:3613   */\n  0x00\n    /* \"#utility.yul\":3755:3784   */\n  tag_116\n    /* \"#utility.yul\":3780:3783   */\n  dup4\n    /* \"#utility.yul\":3774:3778   */\n  dup4\n    /* \"#utility.yul\":3755:3784   */\n  tag_60\n  jump\t// in\ntag_116:\n    /* \"#utility.yul\":3747:3784   */\n  swap2\n  pop\n    /* \"#utility.yul\":3817:3820   */\n  dup3\n    /* \"#utility.yul\":3814:3815   */\n  0x02\n    /* \"#utility.yul\":3810:3821   */\n  mul\n    /* \"#utility.yul\":3804:3808   */\n  dup3\n    /* \"#utility.yul\":3801:3822   */\n  or\n    /* \"#utility.yul\":3793:3822   */\n  swap1\n  pop\n    /* \"#utility.yul\":3533:3828   */\n  swap3\n  swap2\n  pop\n  pop\n  jump\t// out\n    /* \"#utility.yul\":3833:5228   */\ntag_7:\n    /* \"#utility.yul\":3950:3987   */\n  tag_118\n    /* \"#utility.yul\":3983:3986   */\n  dup3\n    /* \"#utility.yul\":3950:3987   */\n  tag_42\n  jump\t// in\ntag_118:\n    /* \"#utility.yul\":4052:4070   */\n  0xffffffffffffffff\n    /* \"#utility.yul\":4044:4050   */\n  dup2\n    /* \"#utility.yul\":4041:4071   */\n  gt\n    /* \"#utility.yul\":4038:4094   */\n  iszero\n  tag_119\n  jumpi\n    /* \"#utility.yul\":4074:4092   */\n  tag_120\n  tag_43\n  jump\t// in\ntag_120:\n    /* \"#utility.yul\":4038:4094   */\ntag_119:\n    /* \"#utility.yul\":4118:4156   */\n  tag_121\n    /* \"#utility.yul\":4150:4154   */\n  dup3\n    /* \"#utility.yul\":4144:4155   */\n  sload\n    /* \"#utility.yul\":4118:4156   */\n  tag_45\n  jump\t// in\ntag_121:\n    /* \"#utility.yul\":4203:4270   */\n  tag_122\n    /* \"#utility.yul\":4263:4269   */\n  dup3\n    /* \"#utility.yul\":4255:4261   */\n  dup3\n    /* \"#utility.yul\":4249:4253   */\n  dup6\n    /* \"#utility.yul\":4203:4270   */\n  tag_58\n  jump\t// in\ntag_122:\n    /* \"#utility.yul\":4297:4298   */\n  0x00\n    /* \"#utility.yul\":4321:4325   */\n  0x20\n    /* \"#utility.yul\":4308:4325   */\n  swap1\n  pop\n    /* \"#utility.yul\":4353:4355   */\n  0x1f\n    /* \"#utility.yul\":4345:4351   */\n  dup4\n    /* \"#utility.yul\":4342:4356   */\n  gt\n    /* \"#utility.yul\":4370:4371   */\n  0x01\n    /* \"#utility.yul\":4365:4983   */\n  dup2\n  eq\n  tag_124\n  jumpi\n    /* \"#utility.yul\":5027:5028   */\n  0x00\n    /* \"#utility.yul\":5044:5050   */\n  dup5\n    /* \"#utility.yul\":5041:5118   */\n  iszero\n  tag_125\n  jumpi\n    /* \"#utility.yul\":5093:5102   */\n  dup3\n    /* \"#utility.yul\":5088:5091   */\n  dup8\n    /* \"#utility.yul\":5084:5103   */\n  add\n    /* \"#utility.yul\":5078:5104   */\n  mload\n    /* \"#utility.yul\":5069:5104   */\n  swap1\n  pop\n    /* \"#utility.yul\":5041:5118   */\ntag_125:\n    /* \"#utility.yul\":5144:5211   */\n  tag_126\n    /* \"#utility.yul\":5204:5210   */\n  dup6\n    /* \"#utility.yul\":5197:5202   */\n  dup3\n    /* \"#utility.yul\":5144:5211   */\n  tag_61\n  jump\t// in\ntag_126:\n    /* \"#utility.yul\":5138:5142   */\n  dup7\n    /* \"#utility.yul\":5131:5212   */\n  sstore\n    /* \"#utility.yul\":5000:5222   */\n  pop\n    /* \"#utility.yul\":4335:5222   */\n  jump(tag_123)\n    /* \"#utility.yul\":4365:4983   */\ntag_124:\n    /* \"#utility.yul\":4417:4421   */\n  0x1f\n    /* \"#utility.yul\":4413:4422   */\n  not\n    /* \"#utility.yul\":4405:4411   */\n  dup5\n    /* \"#utility.yul\":4401:4423   */\n  and\n    /* \"#utility.yul\":4451:4488   */\n  tag_127\n    /* \"#utility.yul\":4483:4487   */\n  dup7\n    /* \"#utility.yul\":4451:4488   */\n  tag_46\n  jump\t// in\ntag_127:\n    /* \"#utility.yul\":4510:4511   */\n  0x00\n    /* \"#utility.yul\":4524:4732   */\ntag_128:\n    /* \"#utility.yul\":4538:4545   */\n  dup3\n    /* \"#utility.yul\":4535:4536   */\n  dup2\n    /* \"#utility.yul\":4532:4546   */\n  lt\n    /* \"#utility.yul\":4524:4732   */\n  iszero\n  tag_130\n  jumpi\n    /* \"#utility.yul\":4617:4626   */\n  dup5\n    /* \"#utility.yul\":4612:4615   */\n  dup10\n    /* \"#utility.yul\":4608:4627   */\n  add\n    /* \"#utility.yul\":4602:4628   */\n  mload\n    /* \"#utility.yul\":4594:4600   */\n  dup3\n    /* \"#utility.yul\":4587:4629   */\n  sstore\n    /* \"#utility.yul\":4668:4669   */\n  0x01\n    /* \"#utility.yul\":4660:4666   */\n  dup3\n    /* \"#utility.yul\":4656:4670   */\n  add\n    /* \"#utility.yul\":4646:4670   */\n  swap2\n  pop\n    /* \"#utility.yul\":4715:4717   */\n  0x20\n    /* \"#utility.yul\":4704:4713   */\n  dup6\n    /* \"#utility.yul\":4700:4718   */\n  add\n    /* \"#utility.yul\":4687:4718   */\n  swap5\n  pop\n    /* \"#utility.yul\":4561:4565   */\n  0x20\n    /* \"#utility.yul\":4558:4559   */\n  dup2\n    /* \"#utility.yul\":4554:4566   */\n  add\n    /* \"#utility.yul\":4549:4566   */\n  swap1\n  pop\n    /* \"#utility.yul\":4524:4732   */\n  jump(tag_128)\ntag_130:\n    /* \"#utility.yul\":4760:4766   */\n  dup7\n    /* \"#utility.yul\":4751:4758   */\n  dup4\n    /* \"#utility.yul\":4748:4767   */\n  lt\n    /* \"#utility.yul\":4745:4924   */\n  iszero\n  tag_131\n  jumpi\n    /* \"#utility.yul\":4818:4827   */\n  dup5\n    /* \"#utility.yul\":4813:4816   */\n  dup10\n    /* \"#utility.yul\":4809:4828   */\n  add\n    /* \"#utility.yul\":4803:4829   */\n  mload\n    /* \"#utility.yul\":4861:4909   */\n  tag_132\n    /* \"#utility.yul\":4903:4907   */\n  0x1f\n    /* \"#utility.yul\":4895:4901   */\n  dup10\n    /* \"#utility.yul\":4891:4908   */\n  and\n    /* \"#utility.yul\":4880:4889   */\n  dup3\n    /* \"#utility.yul\":4861:4909   */\n  tag_60\n  jump\t// in\ntag_132:\n    /* \"#utility.yul\":4853:4859   */\n  dup4\n    /* \"#utility.yul\":4846:4910   */\n  sstore\n    /* \"#utility.yul\":4768:4924   */\n  pop\n    /* \"#utility.yul\":4745:4924   */\ntag_131:\n    /* \"#utility.yul\":4970:4971   */\n  0x01\n    /* \"#utility.yul\":4966:4967   */\n  0x02\n    /* \"#utility.yul\":4958:4964   */\n  dup9\n    /* \"#utility.yul\":4954:4968   */\n  mul\n    /* \"#utility.yul\":4950:4972   */\n  add\n    /* \"#utility.yul\":4944:4948   */\n  dup9\n    /* \"#utility.yul\":4937:4973   */\n  sstore\n    /* \"#utility.yul\":4372:4983   */\n  pop\n  pop\n  pop\n    /* \"#utility.yul\":4335:5222   */\ntag_123:\n  pop\n    /* \"#utility.yul\":3925:5228   */\n  pop\n  pop\n  pop\n    /* \"#utility.yul\":3833:5228   */\n  pop\n  pop\n  jump\t// out\n    /* \"#utility.yul\":5234:5414   */\ntag_62:\n    /* \"#utility.yul\":5282:5359   */\n  0x4e487b7100000000000000000000000000000000000000000000000000000000\n    /* \"#utility.yul\":5279:5280   */\n  0x00\n    /* \"#utility.yul\":5272:5360   */\n  mstore\n    /* \"#utility.yul\":5379:5383   */\n  0x11\n    /* \"#utility.yul\":5376:5377   */\n  0x04\n    /* \"#utility.yul\":5369:5384   */\n  mstore\n    /* \"#utility.yul\":5403:5407   */\n  0x24\n    /* \"#utility.yul\":5400:5401   */\n  0x00\n    /* \"#utility.yul\":5393:5408   */\n  revert\n    /* \"#utility.yul\":5420:5522   */\ntag_63:\n    /* \"#utility.yul\":5462:5470   */\n  0x00\n    /* \"#utility.yul\":5509:5514   */\n  dup2\n    /* \"#utility.yul\":5506:5507   */\n  0x01\n    /* \"#utility.yul\":5502:5515   */\n  shr\n    /* \"#utility.yul\":5481:5515   */\n  swap1\n  pop\n    /* \"#utility.yul\":5420:5522   */\n  swap2\n  swap1\n  pop\n  jump\t// out\n    /* \"#utility.yul\":5528:6376   */\ntag_64:\n    /* \"#utility.yul\":5589:5594   */\n  0x00\n    /* \"#utility.yul\":5596:5600   */\n  dup1\n    /* \"#utility.yul\":5620:5626   */\n  dup3\n    /* \"#utility.yul\":5611:5626   */\n  swap2\n  pop\n    /* \"#utility.yul\":5644:5649   */\n  dup4\n    /* \"#utility.yul\":5635:5649   */\n  swap1\n  pop\n    /* \"#utility.yul\":5658:6370   */\ntag_136:\n    /* \"#utility.yul\":5679:5680   */\n  0x01\n    /* \"#utility.yul\":5669:5677   */\n  dup6\n    /* \"#utility.yul\":5666:5681   */\n  gt\n    /* \"#utility.yul\":5658:6370   */\n  iszero\n  tag_138\n  jumpi\n    /* \"#utility.yul\":5774:5778   */\n  dup1\n    /* \"#utility.yul\":5769:5772   */\n  dup7\n    /* \"#utility.yul\":5765:5779   */\n  div\n    /* \"#utility.yul\":5759:5763   */\n  dup2\n    /* \"#utility.yul\":5756:5780   */\n  gt\n    /* \"#utility.yul\":5753:5803   */\n  iszero\n  tag_139\n  jumpi\n    /* \"#utility.yul\":5783:5801   */\n  tag_140\n  tag_62\n  jump\t// in\ntag_140:\n    /* \"#utility.yul\":5753:5803   */\ntag_139:\n    /* \"#utility.yul\":5833:5834   */\n  0x01\n    /* \"#utility.yul\":5823:5831   */\n  dup6\n    /* \"#utility.yul\":5819:5835   */\n  and\n    /* \"#utility.yul\":5816:6267   */\n  iszero\n  tag_141\n  jumpi\n    /* \"#utility.yul\":6248:6252   */\n  dup1\n    /* \"#utility.yul\":6241:6246   */\n  dup3\n    /* \"#utility.yul\":6237:6253   */\n  mul\n    /* \"#utility.yul\":6228:6253   */\n  swap2\n  pop\n    /* \"#utility.yul\":5816:6267   */\ntag_141:\n    /* \"#utility.yul\":6298:6302   */\n  dup1\n    /* \"#utility.yul\":6292:6296   */\n  dup2\n    /* \"#utility.yul\":6288:6303   */\n  mul\n    /* \"#utility.yul\":6280:6303   */\n  swap1\n  pop\n    /* \"#utility.yul\":6328:6360   */\n  tag_142\n    /* \"#utility.yul\":6351:6359   */\n  dup6\n    /* \"#utility.yul\":6328:6360   */\n  tag_63\n  jump\t// in\ntag_142:\n    /* \"#utility.yul\":6316:6360   */\n  swap5\n  pop\n    /* \"#utility.yul\":5658:6370   */\n  jump(tag_136)\ntag_138:\n    /* \"#utility.yul\":5528:6376   */\n  swap5\n  pop\n  swap5\n  swap3\n  pop\n  pop\n  pop\n  jump\t// out\n    /* \"#utility.yul\":6382:7455   */\ntag_65:\n    /* \"#utility.yul\":6436:6441   */\n  0x00\n    /* \"#utility.yul\":6627:6635   */\n  dup3\n    /* \"#utility.yul\":6617:6657   */\n  tag_144\n  jumpi\n    /* \"#utility.yul\":6648:6649   */\n  0x01\n    /* \"#utility.yul\":6639:6649   */\n  swap1\n  pop\n    /* \"#utility.yul\":6650:6655   */\n  jump(tag_143)\n    /* \"#utility.yul\":6617:6657   */\ntag_144:\n    /* \"#utility.yul\":6676:6680   */\n  dup2\n    /* \"#utility.yul\":6666:6702   */\n  tag_145\n  jumpi\n    /* \"#utility.yul\":6693:6694   */\n  0x00\n    /* \"#utility.yul\":6684:6694   */\n  swap1\n  pop\n    /* \"#utility.yul\":6695:6700   */\n  jump(tag_143)\n    /* \"#utility.yul\":6666:6702   */\ntag_145:\n    /* \"#utility.yul\":6762:6766   */\n  dup2\n    /* \"#utility.yul\":6810:6811   */\n  0x01\n    /* \"#utility.yul\":6805:6832   */\n  dup2\n  eq\n  tag_147\n  jumpi\n    /* \"#utility.yul\":6846:6847   */\n  0x02\n    /* \"#utility.yul\":6841:7032   */\n  dup2\n  eq\n  tag_148\n  jumpi\n    /* \"#utility.yul\":6755:7032   */\n  jump(tag_146)\n    /* \"#utility.yul\":6805:6832   */\ntag_147:\n    /* \"#utility.yul\":6823:6824   */\n  0x01\n    /* \"#utility.yul\":6814:6824   */\n  swap2\n  pop\n    /* \"#utility.yul\":6825:6830   */\n  pop\n  jump(tag_143)\n    /* \"#utility.yul\":6841:7032   */\ntag_148:\n    /* \"#utility.yul\":6886:6889   */\n  0xff\n    /* \"#utility.yul\":6876:6884   */\n  dup5\n    /* \"#utility.yul\":6873:6890   */\n  gt\n    /* \"#utility.yul\":6870:6913   */\n  iszero\n  tag_149\n  jumpi\n    /* \"#utility.yul\":6893:6911   */\n  tag_150\n  tag_62\n  jump\t// in\ntag_150:\n    /* \"#utility.yul\":6870:6913   */\ntag_149:\n    /* \"#utility.yul\":6942:6950   */\n  dup4\n    /* \"#utility.yul\":6939:6940   */\n  0x02\n    /* \"#utility.yul\":6935:6951   */\n  exp\n    /* \"#utility.yul\":6926:6951   */\n  swap2\n  pop\n    /* \"#utility.yul\":6977:6980   */\n  dup5\n    /* \"#utility.yul\":6970:6975   */\n  dup3\n    /* \"#utility.yul\":6967:6981   */\n  gt\n    /* \"#utility.yul\":6964:7004   */\n  iszero\n  tag_151\n  jumpi\n    /* \"#utility.yul\":6984:7002   */\n  tag_152\n  tag_62\n  jump\t// in\ntag_152:\n    /* \"#utility.yul\":6964:7004   */\ntag_151:\n    /* \"#utility.yul\":7017:7022   */\n  pop\n  jump(tag_143)\n    /* \"#utility.yul\":6755:7032   */\ntag_146:\n  pop\n    /* \"#utility.yul\":7141:7143   */\n  0x20\n    /* \"#utility.yul\":7131:7139   */\n  dup4\n    /* \"#utility.yul\":7128:7144   */\n  lt\n    /* \"#utility.yul\":7122:7125   */\n  0x0133\n    /* \"#utility.yul\":7116:7120   */\n  dup4\n    /* \"#utility.yul\":7113:7126   */\n  lt\n    /* \"#utility.yul\":7109:7145   */\n  and\n    /* \"#utility.yul\":7091:7093   */\n  0x4e\n    /* \"#utility.yul\":7081:7089   */\n  dup5\n    /* \"#utility.yul\":7078:7094   */\n  lt\n    /* \"#utility.yul\":7073:7075   */\n  0x0b\n    /* \"#utility.yul\":7067:7071   */\n  dup5\n    /* \"#utility.yul\":7064:7076   */\n  lt\n    /* \"#utility.yul\":7060:7095   */\n  and\n    /* \"#utility.yul\":7044:7155   */\n  or\n    /* \"#utility.yul\":7041:7287   */\n  iszero\n  tag_153\n  jumpi\n    /* \"#utility.yul\":7197:7205   */\n  dup3\n    /* \"#utility.yul\":7191:7195   */\n  dup3\n    /* \"#utility.yul\":7187:7206   */\n  exp\n    /* \"#utility.yul\":7178:7206   */\n  swap1\n  pop\n    /* \"#utility.yul\":7232:7235   */\n  dup4\n    /* \"#utility.yul\":7225:7230   */\n  dup2\n    /* \"#utility.yul\":7222:7236   */\n  gt\n    /* \"#utility.yul\":7219:7259   */\n  iszero\n  tag_154\n  jumpi\n    /* \"#utility.yul\":7239:7257   */\n  tag_155\n  tag_62\n  jump\t// in\ntag_155:\n    /* \"#utility.yul\":7219:7259   */\ntag_154:\n    /* \"#utility.yul\":7272:7277   */\n  jump(tag_143)\n    /* \"#utility.yul\":7041:7287   */\ntag_153:\n    /* \"#utility.yul\":7312:7354   */\n  tag_156\n    /* \"#utility.yul\":7350:7353   */\n  dup5\n    /* \"#utility.yul\":7340:7348   */\n  dup5\n    /* \"#utility.yul\":7334:7338   */\n  dup5\n    /* \"#utility.yul\":7331:7332   */\n  0x01\n    /* \"#utility.yul\":7312:7354   */\n  tag_64\n  jump\t// in\ntag_156:\n    /* \"#utility.yul\":7297:7354   */\n  swap3\n  pop\n  swap1\n  pop\n    /* \"#utility.yul\":7386:7390   */\n  dup2\n    /* \"#utility.yul\":7381:7384   */\n  dup5\n    /* \"#utility.yul\":7377:7391   */\n  div\n    /* \"#utility.yul\":7370:7375   */\n  dup2\n    /* \"#utility.yul\":7367:7392   */\n  gt\n    /* \"#utility.yul\":7364:7415   */\n  iszero\n  tag_157\n  jumpi\n    /* \"#utility.yul\":7395:7413   */\n  tag_158\n  tag_62\n  jump\t// in\ntag_158:\n    /* \"#utility.yul\":7364:7415   */\ntag_157:\n    /* \"#utility.yul\":7444:7448   */\n  dup2\n    /* \"#utility.yul\":7437:7442   */\n  dup2\n    /* \"#utility.yul\":7433:7449   */\n  mul\n    /* \"#utility.yul\":7424:7449   */\n  swap1\n  pop\n    /* \"#utility.yul\":6382:7455   */\ntag_143:\n  swap4\n  swap3\n  pop\n  pop\n  pop\n  jump\t// out\n    /* \"#utility.yul\":7461:7547   */\ntag_66:\n    /* \"#utility.yul\":7496:7503   */\n  0x00\n    /* \"#utility.yul\":7536:7540   */\n  0xff\n    /* \"#utility.yul\":7529:7534   */\n  dup3\n    /* \"#utility.yul\":7525:7541   */\n  and\n    /* \"#utility.yul\":7514:7541   */\n  swap1\n  pop\n    /* \"#utility.yul\":7461:7547   */\n  swap2\n  swap1\n  pop\n  jump\t// out\n    /* \"#utility.yul\":7553:7834   */\ntag_19:\n    /* \"#utility.yul\":7611:7616   */\n  0x00\n    /* \"#utility.yul\":7635:7658   */\n  tag_161\n    /* \"#utility.yul\":7653:7657   */\n  dup3\n    /* \"#utility.yul\":7635:7658   */\n  tag_50\n  jump\t// in\ntag_161:\n    /* \"#utility.yul\":7627:7658   */\n  swap2\n  pop\n    /* \"#utility.yul\":7679:7704   */\n  tag_162\n    /* \"#utility.yul\":7695:7703   */\n  dup4\n    /* \"#utility.yul\":7679:7704   */\n  tag_66\n  jump\t// in\ntag_162:\n    /* \"#utility.yul\":7667:7704   */\n  swap3\n  pop\n    /* \"#utility.yul\":7723:7827   */\n  tag_163\n    /* \"#utility.yul\":7760:7826   */\n  0xffffffffffffffffffffffffffffffffffffffffffffffffffffffffffffffff\n    /* \"#utility.yul\":7750:7758   */\n  dup5\n    /* \"#utility.yul\":7744:7748   */\n  dup5\n    /* \"#utility.yul\":7723:7827   */\n  tag_65\n  jump\t// in\ntag_163:\n    /* \"#utility.yul\":7714:7827   */\n  swap1\n  pop\n    /* \"#utility.yul\":7553:7834   */\n  swap3\n  swap2\n  pop\n  pop\n  jump\t// out\n    /* \"#utility.yul\":7840:8250   */\ntag_21:\n    /* \"#utility.yul\":7880:7887   */\n  0x00\n    /* \"#utility.yul\":7903:7923   */\n  tag_165\n    /* \"#utility.yul\":7921:7922   */\n  dup3\n    /* \"#utility.yul\":7903:7923   */\n  tag_50\n  jump\t// in\ntag_165:\n    /* \"#utility.yul\":7898:7923   */\n  swap2\n  pop\n    /* \"#utility.yul\":7937:7957   */\n  tag_166\n    /* \"#utility.yul\":7955:7956   */\n  dup4\n    /* \"#utility.yul\":7937:7957   */\n  tag_50\n  jump\t// in\ntag_166:\n    /* \"#utility.yul\":7932:7957   */\n  swap3\n  pop\n    /* \"#utility.yul\":7992:7993   */\n  dup3\n    /* \"#utility.yul\":7989:7990   */\n  dup3\n    /* \"#utility.yul\":7985:7994   */\n  mul\n    /* \"#utility.yul\":8014:8044   */\n  tag_167\n    /* \"#utility.yul\":8032:8043   */\n  dup2\n    /* \"#utility.yul\":8014:8044   */\n  tag_50\n  jump\t// in\ntag_167:\n    /* \"#utility.yul\":8003:8044   */\n  swap2\n  pop\n    /* \"#utility.yul\":8193:8194   */\n  dup3\n    /* \"#utility.yul\":8184:8191   */\n  dup3\n    /* \"#utility.yul\":8180:8195   */\n  div\n    /* \"#utility.yul\":8177:8178   */\n  dup5\n    /* \"#utility.yul\":8174:8196   */\n  eq\n    /* \"#utility.yul\":8154:8155   */\n  dup4\n    /* \"#utility.yul\":8147:8156   */\n  iszero\n    /* \"#utility.yul\":8127:8210   */\n  or\n    /* \"#utility.yul\":8104:8243   */\n  tag_168\n  jumpi\n    /* \"#utility.yul\":8223:8241   */\n  tag_169\n  tag_62\n  jump\t// in\ntag_169:\n    /* \"#utility.yul\":8104:8243   */\ntag_168:\n    /* \"#utility.yul\":7888:8250   */\n  pop\n    /* \"#utility.yul\":7840:8250   */\n  swap3\n  swap2\n  pop\n  pop\n  jump\t// out\n    /* \"#utility.yul\":8256:8425   */\ntag_67:\n    /* \"#utility.yul\":8340:8351   */\n  0x00\n    /* \"#utility.yul\":8374:8380   */\n  dup3\n    /* \"#utility.yul\":8369:8372   */\n  dup3\n    /* \"#utility.yul\":8362:8381   */\n  mstore\n    /* \"#utility.yul\":8414:8418   */\n  0x20\n    /* \"#utility.yul\":8409:8412   */\n  dup3\n    /* \"#utility.yul\":8405:8419   */\n  add\n    /* \"#utility.yul\":8390:8419   */\n  swap1\n  pop\n    /* \"#utility.yul\":8256:8425   */\n  swap3\n  swap2\n  pop\n  pop\n  jump\t// out\n    /* \"#utility.yul\":8431:8612   */\ntag_68:\n    /* \"#utility.yul\":8571:8604   */\n  0x45524332303a206d696e7420746f20746865207a65726f206164647265737300\n    /* \"#utility.yul\":8567:8568   */\n  0x00\n    /* \"#utility.yul\":8559:8565   */\n  dup3\n    /* \"#utility.yul\":8555:8569   */\n  add\n    /* \"#utility.yul\":8548:8605   */\n  mstore\n    /* \"#utility.yul\":8431:8612   */\n  pop\n  jump\t// out\n    /* \"#utility.yul\":8618:8984   */\ntag_69:\n    /* \"#utility.yul\":8760:8763   */\n  0x00\n    /* \"#utility.yul\":8781:8848   */\n  tag_173\n    /* \"#utility.yul\":8845:8847   */\n  0x1f\n    /* \"#utility.yul\":8840:8843   */\n  dup4\n    /* \"#utility.yul\":8781:8848   */\n  tag_67\n  jump\t// in\ntag_173:\n    /* \"#utility.yul\":8774:8848   */\n  swap2\n  pop\n    /* \"#utility.yul\":8857:8950   */\n  tag_174\n    /* \"#utility.yul\":8946:8949   */\n  dup3\n    /* \"#utility.yul\":8857:8950   */\n  tag_68\n  jump\t// in\ntag_174:\n    /* \"#utility.yul\":8975:8977   */\n  0x20\n    /* \"#utility.yul\":8970:8973   */\n  dup3\n    /* \"#utility.yul\":8966:8978   */\n  add\n    /* \"#utility.yul\":8959:8978   */\n  swap1\n  pop\n    /* \"#utility.yul\":8618:8984   */\n  swap2\n  swap1\n  pop\n  jump\t// out\n    /* \"#utility.yul\":8990:9409   */\ntag_31:\n    /* \"#utility.yul\":9156:9160   */\n  0x00\n    /* \"#utility.yul\":9194:9196   */\n  0x20\n    /* \"#utility.yul\":9183:9192   */\n  dup3\n    /* \"#utility.yul\":9179:9197   */\n  add\n    /* \"#utility.yul\":9171:9197   */\n  swap1\n  pop\n    /* \"#utility.yul\":9243:9252   */\n  dup2\n    /* \"#utility.yul\":9237:9241   */\n  dup2\n    /* \"#utility.yul\":9233:9253   */\n  sub\n    /* \"#utility.yul\":9229:9230   */\n  0x00\n    /* \"#utility.yul\":9218:9227   */\n  dup4\n    /* \"#utility.yul\":9214:9231   */\n  add\n    /* \"#utility.yul\":9207:9254   */\n  mstore\n    /* \"#utility.yul\":9271:9402   */\n  tag_176\n    /* \"#utility.yul\":9397:9401   */\n  dup2\n    /* \"#utility.yul\":9271:9402   */\n  tag_69\n  jump\t// in\ntag_176:\n    /* \"#utility.yul\":9263:9402   */\n  swap1\n  pop\n    /* \"#utility.yul\":8990:9409   */\n  swap2\n  swap1\n  pop\n  jump\t// out\n    /* \"#utility.yul\":9415:9606   */\ntag_35:\n    /* \"#utility.yul\":9455:9458   */\n  0x00\n    /* \"#utility.yul\":9474:9494   */\n  tag_178\n    /* \"#utility.yul\":9492:9493   */\n  dup3\n    /* \"#utility.yul\":9474:9494   */\n  tag_50\n  jump\t// in\ntag_178:\n    /* \"#utility.yul\":9469:9494   */\n  swap2\n  pop\n    /* \"#utility.yul\":9508:9528   */\n  tag_179\n    /* \"#utility.yul\":9526:9527   */\n  dup4\n    /* \"#utility.yul\":9508:9528   */\n  tag_50\n  jump\t// in\ntag_179:\n    /* \"#utility.yul\":9503:9528   */\n  swap3\n  pop\n    /* \"#utility.yul\":9551:9552   */\n  dup3\n    /* \"#utility.yul\":9548:9549   */\n  dup3\n    /* \"#utility.yul\":9544:9553   */\n  add\n    /* \"#utility.yul\":9537:9553   */\n  swap1\n  pop\n    /* \"#utility.yul\":9572:9575   */\n  dup1\n    /* \"#utility.yul\":9569:9570   */\n  dup3\n    /* \"#utility.yul\":9566:9576   */\n  gt\n    /* \"#utility.yul\":9563:9599   */\n  iszero\n  tag_180\n  jumpi\n    /* \"#utility.yul\":9579:9597   */\n  tag_181\n  tag_62\n  jump\t// in\ntag_181:\n    /* \"#utility.yul\":9563:9599   */\ntag_180:\n    /* \"#utility.yul\":9415:9606   */\n  swap3\n  swap2\n  pop\n  pop\n  jump\t// out\n    /* \"#utility.yul\":9612:9730   */\ntag_70:\n    /* \"#utility.yul\":9699:9723   */\n  tag_183\n    /* \"#utility.yul\":9717:9722   */\n  dup2\n    /* \"#utility.yul\":9699:9723   */\n  tag_50\n  jump\t// in\ntag_183:\n    /* \"#utility.yul\":9694:9697   */\n  dup3\n    /* \"#utility.yul\":9687:9724   */\n  mstore\n    /* \"#utility.yul\":9612:9730   */\n  pop\n  pop\n  jump\t// out\n    /* \"#utility.yul\":9736:9958   */\ntag_37:\n    /* \"#utility.yul\":9829:9833   */\n  0x00\n    /* \"#utility.yul\":9867:9869   */\n  0x20\n    /* \"#utility.yul\":9856:9865   */\n  dup3\n    /* \"#utility.yul\":9852:9870   */\n  add\n    /* \"#utility.yul\":9844:9870   */\n  swap1\n  pop\n    /* \"#utility.yul\":9880:9951   */\n  tag_185\n    /* \"#utility.yul\":9948:9949   */\n  0x00\n    /* \"#utility.yul\":9937:9946   */\n  dup4\n    /* \"#utility.yul\":9933:9950   */\n  add\n    /* \"#utility.yul\":9924:9930   */\n  dup5\n    /* \"#utility.yul\":9880:9951   */\n  tag_70\n  jump\t// in\ntag_185:\n    /* \"#utility.yul\":9736:9958   */\n  swap3\n  swap2\n  pop\n  pop\n  jump\t// out\n    /* \"TeslaToken.sol\":292:772  contract TeslaToken is ERC20, Ownable {... */\ntag_24:\n  dataSize(sub_0)\n  dup1\n  dataOffset(sub_0)\n  0x00\n  codecopy\n  0x00\n  return\nstop\ndata_7b67d38243a34afe829933ff6dc77d9aca0e97b9baf8d55aad5983db4c306e68 516d5770666653675848426754336b4350756b6b774e44707a794a41727438766b674c6357773171533856746774\n\nsub_0: assembly {\n        /* \"TeslaToken.sol\":292:772  contract TeslaToken is ERC20, Ownable {... */\n      mstore(0x40, 0x80)\n      callvalue\n      dup1\n      iszero\n      tag_1\n      jumpi\n      0x00\n      dup1\n      revert\n    tag_1:\n      pop\n      jumpi(tag_2, lt(calldatasize, 0x04))\n      shr(0xe0, calldataload(0x00))\n      dup1\n      0x70a08231\n      gt\n      tag_20\n      jumpi\n      dup1\n      0xa457c2d7\n      gt\n      tag_21\n      jumpi\n      dup1\n      0xa457c2d7\n      eq\n      tag_15\n      jumpi\n      dup1\n      0xa9059cbb\n      eq\n      tag_16\n      jumpi\n      dup1\n      0xdd62ed3e\n      eq\n      tag_17\n      jumpi\n      dup1\n      0xdf7be1ca\n      eq\n      tag_18\n      jumpi\n      dup1\n      0xf2fde38b\n      eq\n      tag_19\n      jumpi\n      jump(tag_2)\n    tag_21:\n      dup1\n      0x70a08231\n      eq\n      tag_11\n      jumpi\n      dup1\n      0x715018a6\n      eq\n      tag_12\n      jumpi\n      dup1\n      0x8da5cb5b\n      eq\n      tag_13\n      jumpi\n      dup1\n      0x95d89b41\n      eq\n      tag_14\n      jumpi\n      jump(tag_2)\n    tag_20:\n      dup1\n      0x23b872dd\n      gt\n      tag_22\n      jumpi\n      dup1\n      0x23b872dd\n      eq\n      tag_7\n      jumpi\n      dup1\n      0x313ce567\n      eq\n      tag_8\n      jumpi\n      dup1\n      0x39509351\n      eq\n      tag_9\n      jumpi\n      dup1\n      0x40c10f19\n      eq\n      tag_10\n      jumpi\n      jump(tag_2)\n    tag_22:\n      dup1\n      0x01c402ff\n      eq\n      tag_3\n      jumpi\n      dup1\n      0x06fdde03\n      eq\n      tag_4\n      jumpi\n      dup1\n      0x095ea7b3\n      eq\n      tag_5\n      jumpi\n      dup1\n      0x18160ddd\n      eq\n      tag_6\n      jumpi\n    tag_2:\n      0x00\n      dup1\n      revert\n        /* \"TeslaToken.sol\":667:769  function setLogoHash(string memory _logoHash) public onlyOwner {... */\n    tag_3:\n      tag_23\n      0x04\n      dup1\n      calldatasize\n      sub\n      dup2\n      add\n      swap1\n      tag_24\n      swap2\n      swap1\n      tag_25\n      jump\t// in\n    tag_24:\n      tag_26\n      jump\t// in\n    tag_23:\n      stop\n        /* \"https://github.com/OpenZeppelin/openzeppelin-contracts/blob/release-v4.9/contracts/token/ERC20/ERC20.sol\":2158:2256  function name() public view virtual override returns (string memory) {... */\n    tag_4:\n      tag_27\n      tag_28\n      jump\t// in\n    tag_27:\n      mload(0x40)\n      tag_29\n      swap2\n      swap1\n      tag_30\n      jump\t// in\n    tag_29:\n      mload(0x40)\n      dup1\n      swap2\n      sub\n      swap1\n      return\n        /* \"https://github.com/OpenZeppelin/openzeppelin-contracts/blob/release-v4.9/contracts/token/ERC20/ERC20.sol\":4444:4641  function approve(address spender, uint256 amount) public virtual override returns (bool) {... */\n    tag_5:\n      tag_31\n      0x04\n      dup1\n      calldatasize\n      sub\n      dup2\n      add\n      swap1\n      tag_32\n      swap2\n      swap1\n      tag_33\n      jump\t// in\n    tag_32:\n      tag_34\n      jump\t// in\n    tag_31:\n      mload(0x40)\n      tag_35\n      swap2\n      swap1\n      tag_36\n      jump\t// in\n    tag_35:\n      mload(0x40)\n      dup1\n      swap2\n      sub\n      swap1\n      return\n        /* \"https://github.com/OpenZeppelin/openzeppelin-contracts/blob/release-v4.9/contracts/token/ERC20/ERC20.sol\":3255:3361  function totalSupply() public view virtual override returns (uint256) {... */\n    tag_6:\n      tag_37\n      tag_38\n      jump\t// in\n    tag_37:\n      mload(0x40)\n      tag_39\n      swap2\n      swap1\n      tag_40\n      jump\t// in\n    tag_39:\n      mload(0x40)\n      dup1\n      swap2\n      sub\n      swap1\n      return\n        /* \"https://github.com/OpenZeppelin/openzeppelin-contracts/blob/release-v4.9/contracts/token/ERC20/ERC20.sol\":5203:5459  function transferFrom(address from, address to, uint256 amount) public virtual override returns (bool) {... */\n    tag_7:\n      tag_41\n      0x04\n      dup1\n      calldatasize\n      sub\n      dup2\n      add\n      swap1\n      tag_42\n      swap2\n      swap1\n      tag_43\n      jump\t// in\n    tag_42:\n      tag_44\n      jump\t// in\n    tag_41:\n      mload(0x40)\n      tag_45\n      swap2\n      swap1\n      tag_36\n      jump\t// in\n    tag_45:\n      mload(0x40)\n      dup1\n      swap2\n      sub\n      swap1\n      return\n        /* \"https://github.com/OpenZeppelin/openzeppelin-contracts/blob/release-v4.9/contracts/token/ERC20/ERC20.sol\":3104:3195  function decimals() public view virtual override returns (uint8) {... */\n    tag_8:\n      tag_46\n      tag_47\n      jump\t// in\n    tag_46:\n      mload(0x40)\n      tag_48\n      swap2\n      swap1\n      tag_49\n      jump\t// in\n    tag_48:\n      mload(0x40)\n      dup1\n      swap2\n      sub\n      swap1\n      return\n        /* \"https://github.com/OpenZeppelin/openzeppelin-contracts/blob/release-v4.9/contracts/token/ERC20/ERC20.sol\":5854:6088  function increaseAllowance(address spender, uint256 addedValue) public virtual returns (bool) {... */\n    tag_9:\n      tag_50\n      0x04\n      dup1\n      calldatasize\n      sub\n      dup2\n      add\n      swap1\n      tag_51\n      swap2\n      swap1\n      tag_33\n      jump\t// in\n    tag_51:\n      tag_52\n      jump\t// in\n    tag_50:\n      mload(0x40)\n      tag_53\n      swap2\n      swap1\n      tag_36\n      jump\t// in\n    tag_53:\n      mload(0x40)\n      dup1\n      swap2\n      sub\n      swap1\n      return\n        /* \"TeslaToken.sol\":564:659  function mint(address to, uint256 amount) public onlyOwner {... */\n    tag_10:\n      tag_54\n      0x04\n      dup1\n      calldatasize\n      sub\n      dup2\n      add\n      swap1\n      tag_55\n      swap2\n      swap1\n      tag_33\n      jump\t// in\n    tag_55:\n      tag_56\n      jump\t// in\n    tag_54:\n      stop\n        /* \"https://github.com/OpenZeppelin/openzeppelin-contracts/blob/release-v4.9/contracts/token/ERC20/ERC20.sol\":3419:3544  function balanceOf(address account) public view virtual override returns (uint256) {... */\n    tag_11:\n      tag_57\n      0x04\n      dup1\n      calldatasize\n      sub\n      dup2\n      add\n      swap1\n      tag_58\n      swap2\n      swap1\n      tag_59\n      jump\t// in\n    tag_58:\n      tag_60\n      jump\t// in\n    tag_57:\n      mload(0x40)\n      tag_61\n      swap2\n      swap1\n      tag_40\n      jump\t// in\n    tag_61:\n      mload(0x40)\n      dup1\n      swap2\n      sub\n      swap1\n      return\n        /* \"https://github.com/OpenZeppelin/openzeppelin-contracts/blob/release-v4.9/contracts/access/Ownable.sol\":1824:1925  function renounceOwnership() public virtual onlyOwner {... */\n    tag_12:\n      tag_62\n      tag_63\n      jump\t// in\n    tag_62:\n      stop\n        /* \"https://github.com/OpenZeppelin/openzeppelin-contracts/blob/release-v4.9/contracts/access/Ownable.sol\":1201:1286  function owner() public view virtual returns (address) {... */\n    tag_13:\n      tag_64\n      tag_65\n      jump\t// in\n    tag_64:\n      mload(0x40)\n      tag_66\n      swap2\n      swap1\n      tag_67\n      jump\t// in\n    tag_66:\n      mload(0x40)\n      dup1\n      swap2\n      sub\n      swap1\n      return\n        /* \"https://github.com/OpenZeppelin/openzeppelin-contracts/blob/release-v4.9/contracts/token/ERC20/ERC20.sol\":2369:2471  function symbol() public view virtual override returns (string memory) {... */\n    tag_14:\n      tag_68\n      tag_69\n      jump\t// in\n    tag_68:\n      mload(0x40)\n      tag_70\n      swap2\n      swap1\n      tag_30\n      jump\t// in\n    tag_70:\n      mload(0x40)\n      dup1\n      swap2\n      sub\n      swap1\n      return\n        /* \"https://github.com/OpenZeppelin/openzeppelin-contracts/blob/release-v4.9/contracts/token/ERC20/ERC20.sol\":6575:7002  function decreaseAllowance(address spender, uint256 subtractedValue) public virtual returns (bool) {... */\n    tag_15:\n      tag_71\n      0x04\n      dup1\n      calldatasize\n      sub\n      dup2\n      add\n      swap1\n      tag_72\n      swap2\n      swap1\n      tag_33\n      jump\t// in\n    tag_72:\n      tag_73\n      jump\t// in\n    tag_71:\n      mload(0x40)\n      tag_74\n      swap2\n      swap1\n      tag_36\n      jump\t// in\n    tag_74:\n      mload(0x40)\n      dup1\n      swap2\n      sub\n      swap1\n      return\n        /* \"https://github.com/OpenZeppelin/openzeppelin-contracts/blob/release-v4.9/contracts/token/ERC20/ERC20.sol\":3740:3929  function transfer(address to, uint256 amount) public virtual override returns (bool) {... */\n    tag_16:\n      tag_75\n      0x04\n      dup1\n      calldatasize\n      sub\n      dup2\n      add\n      swap1\n      tag_76\n      swap2\n      swap1\n      tag_33\n      jump\t// in\n    tag_76:\n      tag_77\n      jump\t// in\n    tag_75:\n      mload(0x40)\n      tag_78\n      swap2\n      swap1\n      tag_36\n      jump\t// in\n    tag_78:\n      mload(0x40)\n      dup1\n      swap2\n      sub\n      swap1\n      return\n        /* \"https://github.com/OpenZeppelin/openzeppelin-contracts/blob/release-v4.9/contracts/token/ERC20/ERC20.sol\":3987:4136  function allowance(address owner, address spender) public view virtual override returns (uint256) {... */\n    tag_17:\n      tag_79\n      0x04\n      dup1\n      calldatasize\n      sub\n      dup2\n      add\n      swap1\n      tag_80\n      swap2\n      swap1\n      tag_81\n      jump\t// in\n    tag_80:\n      tag_82\n      jump\t// in\n    tag_79:\n      mload(0x40)\n      tag_83\n      swap2\n      swap1\n      tag_40\n      jump\t// in\n    tag_83:\n      mload(0x40)\n      dup1\n      swap2\n      sub\n      swap1\n      return\n        /* \"TeslaToken.sol\":337:359  string public logoHash */\n    tag_18:\n      tag_84\n      tag_85\n      jump\t// in\n    tag_84:\n      mload(0x40)\n      tag_86\n      swap2\n      swap1\n      tag_30\n      jump\t// in\n    tag_86:\n      mload(0x40)\n      dup1\n      swap2\n      sub\n      swap1\n      return\n        /* \"https://github.com/OpenZeppelin/openzeppelin-contracts/blob/release-v4.9/contracts/access/Ownable.sol\":2074:2272  function transferOwnership(address newOwner) public virtual onlyOwner {... */\n    tag_19:\n      tag_87\n      0x04\n      dup1\n      calldatasize\n      sub\n      dup2\n      add\n      swap1\n      tag_88\n      swap2\n      swap1\n      tag_59\n      jump\t// in\n    tag_88:\n      tag_89\n      jump\t// in\n    tag_87:\n      stop\n        /* \"TeslaToken.sol\":667:769  function setLogoHash(string memory _logoHash) public onlyOwner {... */\n    tag_26:\n        /* \"https://github.com/OpenZeppelin/openzeppelin-contracts/blob/release-v4.9/contracts/access/Ownable.sol\":1094:1107  _checkOwner() */\n      tag_91\n        /* \"https://github.com/OpenZeppelin/openzeppelin-contracts/blob/release-v4.9/contracts/access/Ownable.sol\":1094:1105  _checkOwner */\n      tag_92\n        /* \"https://github.com/OpenZeppelin/openzeppelin-contracts/blob/release-v4.9/contracts/access/Ownable.sol\":1094:1107  _checkOwner() */\n      jump\t// in\n    tag_91:\n        /* \"TeslaToken.sol\":752:761  _logoHash */\n      dup1\n        /* \"TeslaToken.sol\":741:749  logoHash */\n      0x06\n        /* \"TeslaToken.sol\":741:761  logoHash = _logoHash */\n      swap1\n      dup2\n      tag_94\n      swap2\n      swap1\n      tag_95\n      jump\t// in\n    tag_94:\n      pop\n        /* \"TeslaToken.sol\":667:769  function setLogoHash(string memory _logoHash) public onlyOwner {... */\n      pop\n      jump\t// out\n        /* \"https://github.com/OpenZeppelin/openzeppelin-contracts/blob/release-v4.9/contracts/token/ERC20/ERC20.sol\":2158:2256  function name() public view virtual override returns (string memory) {... */\n    tag_28:\n        /* \"https://github.com/OpenZeppelin/openzeppelin-contracts/blob/release-v4.9/contracts/token/ERC20/ERC20.sol\":2212:2225  string memory */\n      0x60\n        /* \"https://github.com/OpenZeppelin/openzeppelin-contracts/blob/release-v4.9/contracts/token/ERC20/ERC20.sol\":2244:2249  _name */\n      0x03\n        /* \"https://github.com/OpenZeppelin/openzeppelin-contracts/blob/release-v4.9/contracts/token/ERC20/ERC20.sol\":2237:2249  return _name */\n      dup1\n      sload\n      tag_97\n      swap1\n      tag_98\n      jump\t// in\n    tag_97:\n      dup1\n      0x1f\n      add\n      0x20\n      dup1\n      swap2\n      div\n      mul\n      0x20\n      add\n      mload(0x40)\n      swap1\n      dup2\n      add\n      0x40\n      mstore\n      dup1\n      swap3\n      swap2\n      swap1\n      dup2\n      dup2\n      mstore\n      0x20\n      add\n      dup3\n      dup1\n      sload\n      tag_99\n      swap1\n      tag_98\n      jump\t// in\n    tag_99:\n      dup1\n      iszero\n      tag_100\n      jumpi\n      dup1\n      0x1f\n      lt\n      tag_101\n      jumpi\n      0x0100\n      dup1\n      dup4\n      sload\n      div\n      mul\n      dup4\n      mstore\n      swap2\n      0x20\n      add\n      swap2\n      jump(tag_100)\n    tag_101:\n      dup3\n      add\n      swap2\n      swap1\n      0x00\n      mstore\n      keccak256(0x00, 0x20)\n      swap1\n    tag_102:\n      dup2\n      sload\n      dup2\n      mstore\n      swap1\n      0x01\n      add\n      swap1\n      0x20\n      add\n      dup1\n      dup4\n      gt\n      tag_102\n      jumpi\n      dup3\n      swap1\n      sub\n      0x1f\n      and\n      dup3\n      add\n      swap2\n    tag_100:\n      pop\n      pop\n      pop\n      pop\n      pop\n      swap1\n      pop\n        /* \"https://github.com/OpenZeppelin/openzeppelin-contracts/blob/release-v4.9/contracts/token/ERC20/ERC20.sol\":2158:2256  function name() public view virtual override returns (string memory) {... */\n      swap1\n      jump\t// out\n        /* \"https://github.com/OpenZeppelin/openzeppelin-contracts/blob/release-v4.9/contracts/token/ERC20/ERC20.sol\":4444:4641  function approve(address spender, uint256 amount) public virtual override returns (bool) {... */\n    tag_34:\n        /* \"https://github.com/OpenZeppelin/openzeppelin-contracts/blob/release-v4.9/contracts/token/ERC20/ERC20.sol\":4527:4531  bool */\n      0x00\n        /* \"https://github.com/OpenZeppelin/openzeppelin-contracts/blob/release-v4.9/contracts/token/ERC20/ERC20.sol\":4543:4556  address owner */\n      dup1\n        /* \"https://github.com/OpenZeppelin/openzeppelin-contracts/blob/release-v4.9/contracts/token/ERC20/ERC20.sol\":4559:4571  _msgSender() */\n      tag_104\n        /* \"https://github.com/OpenZeppelin/openzeppelin-contracts/blob/release-v4.9/contracts/token/ERC20/ERC20.sol\":4559:4569  _msgSender */\n      tag_105\n        /* \"https://github.com/OpenZeppelin/openzeppelin-contracts/blob/release-v4.9/contracts/token/ERC20/ERC20.sol\":4559:4571  _msgSender() */\n      jump\t// in\n    tag_104:\n        /* \"https://github.com/OpenZeppelin/openzeppelin-contracts/blob/release-v4.9/contracts/token/ERC20/ERC20.sol\":4543:4571  address owner = _msgSender() */\n      swap1\n      pop\n        /* \"https://github.com/OpenZeppelin/openzeppelin-contracts/blob/release-v4.9/contracts/token/ERC20/ERC20.sol\":4581:4613  _approve(owner, spender, amount) */\n      tag_106\n        /* \"https://github.com/OpenZeppelin/openzeppelin-contracts/blob/release-v4.9/contracts/token/ERC20/ERC20.sol\":4590:4595  owner */\n      dup2\n        /* \"https://github.com/OpenZeppelin/openzeppelin-contracts/blob/release-v4.9/contracts/token/ERC20/ERC20.sol\":4597:4604  spender */\n      dup6\n        /* \"https://github.com/OpenZeppelin/openzeppelin-contracts/blob/release-v4.9/contracts/token/ERC20/ERC20.sol\":4606:4612  amount */\n      dup6\n        /* \"https://github.com/OpenZeppelin/openzeppelin-contracts/blob/release-v4.9/contracts/token/ERC20/ERC20.sol\":4581:4589  _approve */\n      tag_107\n        /* \"https://github.com/OpenZeppelin/openzeppelin-contracts/blob/release-v4.9/contracts/token/ERC20/ERC20.sol\":4581:4613  _approve(owner, spender, amount) */\n      jump\t// in\n    tag_106:\n        /* \"https://github.com/OpenZeppelin/openzeppelin-contracts/blob/release-v4.9/contracts/token/ERC20/ERC20.sol\":4630:4634  true */\n      0x01\n        /* \"https://github.com/OpenZeppelin/openzeppelin-contracts/blob/release-v4.9/contracts/token/ERC20/ERC20.sol\":4623:4634  return true */\n      swap2\n      pop\n      pop\n        /* \"https://github.com/OpenZeppelin/openzeppelin-contracts/blob/release-v4.9/contracts/token/ERC20/ERC20.sol\":4444:4641  function approve(address spender, uint256 amount) public virtual override returns (bool) {... */\n      swap3\n      swap2\n      pop\n      pop\n      jump\t// out\n        /* \"https://github.com/OpenZeppelin/openzeppelin-contracts/blob/release-v4.9/contracts/token/ERC20/ERC20.sol\":3255:3361  function totalSupply() public view virtual override returns (uint256) {... */\n    tag_38:\n        /* \"https://github.com/OpenZeppelin/openzeppelin-contracts/blob/release-v4.9/contracts/token/ERC20/ERC20.sol\":3316:3323  uint256 */\n      0x00\n        /* \"https://github.com/OpenZeppelin/openzeppelin-contracts/blob/release-v4.9/contracts/token/ERC20/ERC20.sol\":3342:3354  _totalSupply */\n      sload(0x02)\n        /* \"https://github.com/OpenZeppelin/openzeppelin-contracts/blob/release-v4.9/contracts/token/ERC20/ERC20.sol\":3335:3354  return _totalSupply */\n      swap1\n      pop\n        /* \"https://github.com/OpenZeppelin/openzeppelin-contracts/blob/release-v4.9/contracts/token/ERC20/ERC20.sol\":3255:3361  function totalSupply() public view virtual override returns (uint256) {... */\n      swap1\n      jump\t// out\n        /* \"https://github.com/OpenZeppelin/openzeppelin-contracts/blob/release-v4.9/contracts/token/ERC20/ERC20.sol\":5203:5459  function transferFrom(address from, address to, uint256 amount) public virtual override returns (bool) {... */\n    tag_44:\n        /* \"https://github.com/OpenZeppelin/openzeppelin-contracts/blob/release-v4.9/contracts/token/ERC20/ERC20.sol\":5300:5304  bool */\n      0x00\n        /* \"https://github.com/OpenZeppelin/openzeppelin-contracts/blob/release-v4.9/contracts/token/ERC20/ERC20.sol\":5316:5331  address spender */\n      dup1\n        /* \"https://github.com/OpenZeppelin/openzeppelin-contracts/blob/release-v4.9/contracts/token/ERC20/ERC20.sol\":5334:5346  _msgSender() */\n      tag_110\n        /* \"https://github.com/OpenZeppelin/openzeppelin-contracts/blob/release-v4.9/contracts/token/ERC20/ERC20.sol\":5334:5344  _msgSender */\n      tag_105\n        /* \"https://github.com/OpenZeppelin/openzeppelin-contracts/blob/release-v4.9/contracts/token/ERC20/ERC20.sol\":5334:5346  _msgSender() */\n      jump\t// in\n    tag_110:\n        /* \"https://github.com/OpenZeppelin/openzeppelin-contracts/blob/release-v4.9/contracts/token/ERC20/ERC20.sol\":5316:5346  address spender = _msgSender() */\n      swap1\n      pop\n        /* \"https://github.com/OpenZeppelin/openzeppelin-contracts/blob/release-v4.9/contracts/token/ERC20/ERC20.sol\":5356:5394  _spendAllowance(from, spender, amount) */\n      tag_111\n        /* \"https://github.com/OpenZeppelin/openzeppelin-contracts/blob/release-v4.9/contracts/token/ERC20/ERC20.sol\":5372:5376  from */\n      dup6\n        /* \"https://github.com/OpenZeppelin/openzeppelin-contracts/blob/release-v4.9/contracts/token/ERC20/ERC20.sol\":5378:5385  spender */\n      dup3\n        /* \"https://github.com/OpenZeppelin/openzeppelin-contracts/blob/release-v4.9/contracts/token/ERC20/ERC20.sol\":5387:5393  amount */\n      dup6\n        /* \"https://github.com/OpenZeppelin/openzeppelin-contracts/blob/release-v4.9/contracts/token/ERC20/ERC20.sol\":5356:5371  _spendAllowance */\n      tag_112\n        /* \"https://github.com/OpenZeppelin/openzeppelin-contracts/blob/release-v4.9/contracts/token/ERC20/ERC20.sol\":5356:5394  _spendAllowance(from, spender, amount) */\n      jump\t// in\n    tag_111:\n        /* \"https://github.com/OpenZeppelin/openzeppelin-contracts/blob/release-v4.9/contracts/token/ERC20/ERC20.sol\":5404:5431  _transfer(from, to, amount) */\n      tag_113\n        /* \"https://github.com/OpenZeppelin/openzeppelin-contracts/blob/release-v4.9/contracts/token/ERC20/ERC20.sol\":5414:5418  from */\n      dup6\n        /* \"https://github.com/OpenZeppelin/openzeppelin-contracts/blob/release-v4.9/contracts/token/ERC20/ERC20.sol\":5420:5422  to */\n      dup6\n        /* \"https://github.com/OpenZeppelin/openzeppelin-contracts/blob/release-v4.9/contracts/token/ERC20/ERC20.sol\":5424:5430  amount */\n      dup6\n        /* \"https://github.com/OpenZeppelin/openzeppelin-contracts/blob/release-v4.9/contracts/token/ERC20/ERC20.sol\":5404:5413  _transfer */\n      tag_114\n        /* \"https://github.com/OpenZeppelin/openzeppelin-contracts/blob/release-v4.9/contracts/token/ERC20/ERC20.sol\":5404:5431  _transfer(from, to, amount) */\n      jump\t// in\n    tag_113:\n        /* \"https://github.com/OpenZeppelin/openzeppelin-contracts/blob/release-v4.9/contracts/token/ERC20/ERC20.sol\":5448:5452  true */\n      0x01\n        /* \"https://github.com/OpenZeppelin/openzeppelin-contracts/blob/release-v4.9/contracts/token/ERC20/ERC20.sol\":5441:5452  return true */\n      swap2\n      pop\n      pop\n        /* \"https://github.com/OpenZeppelin/openzeppelin-contracts/blob/release-v4.9/contracts/token/ERC20/ERC20.sol\":5203:5459  function transferFrom(address from, address to, uint256 amount) public virtual override returns (bool) {... */\n      swap4\n      swap3\n      pop\n      pop\n      pop\n      jump\t// out\n        /* \"https://github.com/OpenZeppelin/openzeppelin-contracts/blob/release-v4.9/contracts/token/ERC20/ERC20.sol\":3104:3195  function decimals() public view virtual override returns (uint8) {... */\n    tag_47:\n        /* \"https://github.com/OpenZeppelin/openzeppelin-contracts/blob/release-v4.9/contracts/token/ERC20/ERC20.sol\":3162:3167  uint8 */\n      0x00\n        /* \"https://github.com/OpenZeppelin/openzeppelin-contracts/blob/release-v4.9/contracts/token/ERC20/ERC20.sol\":3186:3188  18 */\n      0x12\n        /* \"https://github.com/OpenZeppelin/openzeppelin-contracts/blob/release-v4.9/contracts/token/ERC20/ERC20.sol\":3179:3188  return 18 */\n      swap1\n      pop\n        /* \"https://github.com/OpenZeppelin/openzeppelin-contracts/blob/release-v4.9/contracts/token/ERC20/ERC20.sol\":3104:3195  function decimals() public view virtual override returns (uint8) {... */\n      swap1\n      jump\t// out\n        /* \"https://github.com/OpenZeppelin/openzeppelin-contracts/blob/release-v4.9/contracts/token/ERC20/ERC20.sol\":5854:6088  function increaseAllowance(address spender, uint256 addedValue) public virtual returns (bool) {... */\n    tag_52:\n        /* \"https://github.com/OpenZeppelin/openzeppelin-contracts/blob/release-v4.9/contracts/token/ERC20/ERC20.sol\":5942:5946  bool */\n      0x00\n        /* \"https://github.com/OpenZeppelin/openzeppelin-contracts/blob/release-v4.9/contracts/token/ERC20/ERC20.sol\":5958:5971  address owner */\n      dup1\n        /* \"https://github.com/OpenZeppelin/openzeppelin-contracts/blob/release-v4.9/contracts/token/ERC20/ERC20.sol\":5974:5986  _msgSender() */\n      tag_117\n        /* \"https://github.com/OpenZeppelin/openzeppelin-contracts/blob/release-v4.9/contracts/token/ERC20/ERC20.sol\":5974:5984  _msgSender */\n      tag_105\n        /* \"https://github.com/OpenZeppelin/openzeppelin-contracts/blob/release-v4.9/contracts/token/ERC20/ERC20.sol\":5974:5986  _msgSender() */\n      jump\t// in\n    tag_117:\n        /* \"https://github.com/OpenZeppelin/openzeppelin-contracts/blob/release-v4.9/contracts/token/ERC20/ERC20.sol\":5958:5986  address owner = _msgSender() */\n      swap1\n      pop\n        /* \"https://github.com/OpenZeppelin/openzeppelin-contracts/blob/release-v4.9/contracts/token/ERC20/ERC20.sol\":5996:6060  _approve(owner, spender, allowance(owner, spender) + addedValue) */\n      tag_118\n        /* \"https://github.com/OpenZeppelin/openzeppelin-contracts/blob/release-v4.9/contracts/token/ERC20/ERC20.sol\":6005:6010  owner */\n      dup2\n        /* \"https://github.com/OpenZeppelin/openzeppelin-contracts/blob/release-v4.9/contracts/token/ERC20/ERC20.sol\":6012:6019  spender */\n      dup6\n        /* \"https://github.com/OpenZeppelin/openzeppelin-contracts/blob/release-v4.9/contracts/token/ERC20/ERC20.sol\":6049:6059  addedValue */\n      dup6\n        /* \"https://github.com/OpenZeppelin/openzeppelin-contracts/blob/release-v4.9/contracts/token/ERC20/ERC20.sol\":6021:6046  allowance(owner, spender) */\n      tag_119\n        /* \"https://github.com/OpenZeppelin/openzeppelin-contracts/blob/release-v4.9/contracts/token/ERC20/ERC20.sol\":6031:6036  owner */\n      dup6\n        /* \"https://github.com/OpenZeppelin/openzeppelin-contracts/blob/release-v4.9/contracts/token/ERC20/ERC20.sol\":6038:6045  spender */\n      dup10\n        /* \"https://github.com/OpenZeppelin/openzeppelin-contracts/blob/release-v4.9/contracts/token/ERC20/ERC20.sol\":6021:6030  allowance */\n      tag_82\n        /* \"https://github.com/OpenZeppelin/openzeppelin-contracts/blob/release-v4.9/contracts/token/ERC20/ERC20.sol\":6021:6046  allowance(owner, spender) */\n      jump\t// in\n    tag_119:\n        /* \"https://github.com/OpenZeppelin/openzeppelin-contracts/blob/release-v4.9/contracts/token/ERC20/ERC20.sol\":6021:6059  allowance(owner, spender) + addedValue */\n      tag_120\n      swap2\n      swap1\n      tag_121\n      jump\t// in\n    tag_120:\n        /* \"https://github.com/OpenZeppelin/openzeppelin-contracts/blob/release-v4.9/contracts/token/ERC20/ERC20.sol\":5996:6004  _approve */\n      tag_107\n        /* \"https://github.com/OpenZeppelin/openzeppelin-contracts/blob/release-v4.9/contracts/token/ERC20/ERC20.sol\":5996:6060  _approve(owner, spender, allowance(owner, spender) + addedValue) */\n      jump\t// in\n    tag_118:\n        /* \"https://github.com/OpenZeppelin/openzeppelin-contracts/blob/release-v4.9/contracts/token/ERC20/ERC20.sol\":6077:6081  true */\n      0x01\n        /* \"https://github.com/OpenZeppelin/openzeppelin-contracts/blob/release-v4.9/contracts/token/ERC20/ERC20.sol\":6070:6081  return true */\n      swap2\n      pop\n      pop\n        /* \"https://github.com/OpenZeppelin/openzeppelin-contracts/blob/release-v4.9/contracts/token/ERC20/ERC20.sol\":5854:6088  function increaseAllowance(address spender, uint256 addedValue) public virtual returns (bool) {... */\n      swap3\n      swap2\n      pop\n      pop\n      jump\t// out\n        /* \"TeslaToken.sol\":564:659  function mint(address to, uint256 amount) public onlyOwner {... */\n    tag_56:\n        /* \"https://github.com/OpenZeppelin/openzeppelin-contracts/blob/release-v4.9/contracts/access/Ownable.sol\":1094:1107  _checkOwner() */\n      tag_123\n        /* \"https://github.com/OpenZeppelin/openzeppelin-contracts/blob/release-v4.9/contracts/access/Ownable.sol\":1094:1105  _checkOwner */\n      tag_92\n        /* \"https://github.com/OpenZeppelin/openzeppelin-contracts/blob/release-v4.9/contracts/access/Ownable.sol\":1094:1107  _checkOwner() */\n      jump\t// in\n    tag_123:\n        /* \"TeslaToken.sol\":634:651  _mint(to, amount) */\n      tag_125\n        /* \"TeslaToken.sol\":640:642  to */\n      dup3\n        /* \"TeslaToken.sol\":644:650  amount */\n      dup3\n        /* \"TeslaToken.sol\":634:639  _mint */\n      tag_126\n        /* \"TeslaToken.sol\":634:651  _mint(to, amount) */\n      jump\t// in\n    tag_125:\n        /* \"TeslaToken.sol\":564:659  function mint(address to, uint256 amount) public onlyOwner {... */\n      pop\n      pop\n      jump\t// out\n        /* \"https://github.com/OpenZeppelin/openzeppelin-contracts/blob/release-v4.9/contracts/token/ERC20/ERC20.sol\":3419:3544  function balanceOf(address account) public view virtual override returns (uint256) {... */\n    tag_60:\n        /* \"https://github.com/OpenZeppelin/openzeppelin-contracts/blob/release-v4.9/contracts/token/ERC20/ERC20.sol\":3493:3500  uint256 */\n      0x00\n        /* \"https://github.com/OpenZeppelin/openzeppelin-contracts/blob/release-v4.9/contracts/token/ERC20/ERC20.sol\":3519:3528  _balances */\n      dup1\n        /* \"https://github.com/OpenZeppelin/openzeppelin-contracts/blob/release-v4.9/contracts/token/ERC20/ERC20.sol\":3519:3537  _balances[account] */\n      0x00\n        /* \"https://github.com/OpenZeppelin/openzeppelin-contracts/blob/release-v4.9/contracts/token/ERC20/ERC20.sol\":3529:3536  account */\n      dup4\n        /* \"https://github.com/OpenZeppelin/openzeppelin-contracts/blob/release-v4.9/contracts/token/ERC20/ERC20.sol\":3519:3537  _balances[account] */\n      0xffffffffffffffffffffffffffffffffffffffff\n      and\n      0xffffffffffffffffffffffffffffffffffffffff\n      and\n      dup2\n      mstore\n      0x20\n      add\n      swap1\n      dup2\n      mstore\n      0x20\n      add\n      0x00\n      keccak256\n      sload\n        /* \"https://github.com/OpenZeppelin/openzeppelin-contracts/blob/release-v4.9/contracts/token/ERC20/ERC20.sol\":3512:3537  return _balances[account] */\n      swap1\n      pop\n        /* \"https://github.com/OpenZeppelin/openzeppelin-contracts/blob/release-v4.9/contracts/token/ERC20/ERC20.sol\":3419:3544  function balanceOf(address account) public view virtual override returns (uint256) {... */\n      swap2\n      swap1\n      pop\n      jump\t// out\n        /* \"https://github.com/OpenZeppelin/openzeppelin-contracts/blob/release-v4.9/contracts/access/Ownable.sol\":1824:1925  function renounceOwnership() public virtual onlyOwner {... */\n    tag_63:\n        /* \"https://github.com/OpenZeppelin/openzeppelin-contracts/blob/release-v4.9/contracts/access/Ownable.sol\":1094:1107  _checkOwner() */\n      tag_129\n        /* \"https://github.com/OpenZeppelin/openzeppelin-contracts/blob/release-v4.9/contracts/access/Ownable.sol\":1094:1105  _checkOwner */\n      tag_92\n        /* \"https://github.com/OpenZeppelin/openzeppelin-contracts/blob/release-v4.9/contracts/access/Ownable.sol\":1094:1107  _checkOwner() */\n      jump\t// in\n    tag_129:\n        /* \"https://github.com/OpenZeppelin/openzeppelin-contracts/blob/release-v4.9/contracts/access/Ownable.sol\":1888:1918  _transferOwnership(address(0)) */\n      tag_131\n        /* \"https://github.com/OpenZeppelin/openzeppelin-contracts/blob/release-v4.9/contracts/access/Ownable.sol\":1915:1916  0 */\n      0x00\n        /* \"https://github.com/OpenZeppelin/openzeppelin-contracts/blob/release-v4.9/contracts/access/Ownable.sol\":1888:1906  _transferOwnership */\n      tag_132\n        /* \"https://github.com/OpenZeppelin/openzeppelin-contracts/blob/release-v4.9/contracts/access/Ownable.sol\":1888:1918  _transferOwnership(address(0)) */\n      jump\t// in\n    tag_131:\n        /* \"https://github.com/OpenZeppelin/openzeppelin-contracts/blob/release-v4.9/contracts/access/Ownable.sol\":1824:1925  function renounceOwnership() public virtual onlyOwner {... */\n      jump\t// out\n        /* \"https://github.com/OpenZeppelin/openzeppelin-contracts/blob/release-v4.9/contracts/access/Ownable.sol\":1201:1286  function owner() public view virtual returns (address) {... */\n    tag_65:\n        /* \"https://github.com/OpenZeppelin/openzeppelin-contracts/blob/release-v4.9/contracts/access/Ownable.sol\":1247:1254  address */\n      0x00\n        /* \"https://github.com/OpenZeppelin/openzeppelin-contracts/blob/release-v4.9/contracts/access/Ownable.sol\":1273:1279  _owner */\n      0x05\n      0x00\n      swap1\n      sload\n      swap1\n      0x0100\n      exp\n      swap1\n      div\n      0xffffffffffffffffffffffffffffffffffffffff\n      and\n        /* \"https://github.com/OpenZeppelin/openzeppelin-contracts/blob/release-v4.9/contracts/access/Ownable.sol\":1266:1279  return _owner */\n      swap1\n      pop\n        /* \"https://github.com/OpenZeppelin/openzeppelin-contracts/blob/release-v4.9/contracts/access/Ownable.sol\":1201:1286  function owner() public view virtual returns (address) {... */\n      swap1\n      jump\t// out\n        /* \"https://github.com/OpenZeppelin/openzeppelin-contracts/blob/release-v4.9/contracts/token/ERC20/ERC20.sol\":2369:2471  function symbol() public view virtual override returns (string memory) {... */\n    tag_69:\n        /* \"https://github.com/OpenZeppelin/openzeppelin-contracts/blob/release-v4.9/contracts/token/ERC20/ERC20.sol\":2425:2438  string memory */\n      0x60\n        /* \"https://github.com/OpenZeppelin/openzeppelin-contracts/blob/release-v4.9/contracts/token/ERC20/ERC20.sol\":2457:2464  _symbol */\n      0x04\n        /* \"https://github.com/OpenZeppelin/openzeppelin-contracts/blob/release-v4.9/contracts/token/ERC20/ERC20.sol\":2450:2464  return _symbol */\n      dup1\n      sload\n      tag_135\n      swap1\n      tag_98\n      jump\t// in\n    tag_135:\n      dup1\n      0x1f\n      add\n      0x20\n      dup1\n      swap2\n      div\n      mul\n      0x20\n      add\n      mload(0x40)\n      swap1\n      dup2\n      add\n      0x40\n      mstore\n      dup1\n      swap3\n      swap2\n      swap1\n      dup2\n      dup2\n      mstore\n      0x20\n      add\n      dup3\n      dup1\n      sload\n      tag_136\n      swap1\n      tag_98\n      jump\t// in\n    tag_136:\n      dup1\n      iszero\n      tag_137\n      jumpi\n      dup1\n      0x1f\n      lt\n      tag_138\n      jumpi\n      0x0100\n      dup1\n      dup4\n      sload\n      div\n      mul\n      dup4\n      mstore\n      swap2\n      0x20\n      add\n      swap2\n      jump(tag_137)\n    tag_138:\n      dup3\n      add\n      swap2\n      swap1\n      0x00\n      mstore\n      keccak256(0x00, 0x20)\n      swap1\n    tag_139:\n      dup2\n      sload\n      dup2\n      mstore\n      swap1\n      0x01\n      add\n      swap1\n      0x20\n      add\n      dup1\n      dup4\n      gt\n      tag_139\n      jumpi\n      dup3\n      swap1\n      sub\n      0x1f\n      and\n      dup3\n      add\n      swap2\n    tag_137:\n      pop\n      pop\n      pop\n      pop\n      pop\n      swap1\n      pop\n        /* \"https://github.com/OpenZeppelin/openzeppelin-contracts/blob/release-v4.9/contracts/token/ERC20/ERC20.sol\":2369:2471  function symbol() public view virtual override returns (string memory) {... */\n      swap1\n      jump\t// out\n        /* \"https://github.com/OpenZeppelin/openzeppelin-contracts/blob/release-v4.9/contracts/token/ERC20/ERC20.sol\":6575:7002  function decreaseAllowance(address spender, uint256 subtractedValue) public virtual returns (bool) {... */\n    tag_73:\n        /* \"https://github.com/OpenZeppelin/openzeppelin-contracts/blob/release-v4.9/contracts/token/ERC20/ERC20.sol\":6668:6672  bool */\n      0x00\n        /* \"https://github.com/OpenZeppelin/openzeppelin-contracts/blob/release-v4.9/contracts/token/ERC20/ERC20.sol\":6684:6697  address owner */\n      dup1\n        /* \"https://github.com/OpenZeppelin/openzeppelin-contracts/blob/release-v4.9/contracts/token/ERC20/ERC20.sol\":6700:6712  _msgSender() */\n      tag_141\n        /* \"https://github.com/OpenZeppelin/openzeppelin-contracts/blob/release-v4.9/contracts/token/ERC20/ERC20.sol\":6700:6710  _msgSender */\n      tag_105\n        /* \"https://github.com/OpenZeppelin/openzeppelin-contracts/blob/release-v4.9/contracts/token/ERC20/ERC20.sol\":6700:6712  _msgSender() */\n      jump\t// in\n    tag_141:\n        /* \"https://github.com/OpenZeppelin/openzeppelin-contracts/blob/release-v4.9/contracts/token/ERC20/ERC20.sol\":6684:6712  address owner = _msgSender() */\n      swap1\n      pop\n        /* \"https://github.com/OpenZeppelin/openzeppelin-contracts/blob/release-v4.9/contracts/token/ERC20/ERC20.sol\":6722:6746  uint256 currentAllowance */\n      0x00\n        /* \"https://github.com/OpenZeppelin/openzeppelin-contracts/blob/release-v4.9/contracts/token/ERC20/ERC20.sol\":6749:6774  allowance(owner, spender) */\n      tag_142\n        /* \"https://github.com/OpenZeppelin/openzeppelin-contracts/blob/release-v4.9/contracts/token/ERC20/ERC20.sol\":6759:6764  owner */\n      dup3\n        /* \"https://github.com/OpenZeppelin/openzeppelin-contracts/blob/release-v4.9/contracts/token/ERC20/ERC20.sol\":6766:6773  spender */\n      dup7\n        /* \"https://github.com/OpenZeppelin/openzeppelin-contracts/blob/release-v4.9/contracts/token/ERC20/ERC20.sol\":6749:6758  allowance */\n      tag_82\n        /* \"https://github.com/OpenZeppelin/openzeppelin-contracts/blob/release-v4.9/contracts/token/ERC20/ERC20.sol\":6749:6774  allowance(owner, spender) */\n      jump\t// in\n    tag_142:\n        /* \"https://github.com/OpenZeppelin/openzeppelin-contracts/blob/release-v4.9/contracts/token/ERC20/ERC20.sol\":6722:6774  uint256 currentAllowance = allowance(owner, spender) */\n      swap1\n      pop\n        /* \"https://github.com/OpenZeppelin/openzeppelin-contracts/blob/release-v4.9/contracts/token/ERC20/ERC20.sol\":6812:6827  subtractedValue */\n      dup4\n        /* \"https://github.com/OpenZeppelin/openzeppelin-contracts/blob/release-v4.9/contracts/token/ERC20/ERC20.sol\":6792:6808  currentAllowance */\n      dup2\n        /* \"https://github.com/OpenZeppelin/openzeppelin-contracts/blob/release-v4.9/contracts/token/ERC20/ERC20.sol\":6792:6827  currentAllowance >= subtractedValue */\n      lt\n      iszero\n        /* \"https://github.com/OpenZeppelin/openzeppelin-contracts/blob/release-v4.9/contracts/token/ERC20/ERC20.sol\":6784:6869  require(currentAllowance >= subtractedValue, \"ERC20: decreased allowance below zero\") */\n      tag_143\n      jumpi\n      mload(0x40)\n      0x08c379a000000000000000000000000000000000000000000000000000000000\n      dup2\n      mstore\n      0x04\n      add\n      tag_144\n      swap1\n      tag_145\n      jump\t// in\n    tag_144:\n      mload(0x40)\n      dup1\n      swap2\n      sub\n      swap1\n      revert\n    tag_143:\n        /* \"https://github.com/OpenZeppelin/openzeppelin-contracts/blob/release-v4.9/contracts/token/ERC20/ERC20.sol\":6903:6963  _approve(owner, spender, currentAllowance - subtractedValue) */\n      tag_146\n        /* \"https://github.com/OpenZeppelin/openzeppelin-contracts/blob/release-v4.9/contracts/token/ERC20/ERC20.sol\":6912:6917  owner */\n      dup3\n        /* \"https://github.com/OpenZeppelin/openzeppelin-contracts/blob/release-v4.9/contracts/token/ERC20/ERC20.sol\":6919:6926  spender */\n      dup7\n        /* \"https://github.com/OpenZeppelin/openzeppelin-contracts/blob/release-v4.9/contracts/token/ERC20/ERC20.sol\":6947:6962  subtractedValue */\n      dup7\n        /* \"https://github.com/OpenZeppelin/openzeppelin-contracts/blob/release-v4.9/contracts/token/ERC20/ERC20.sol\":6928:6944  currentAllowance */\n      dup5\n        /* \"https://github.com/OpenZeppelin/openzeppelin-contracts/blob/release-v4.9/contracts/token/ERC20/ERC20.sol\":6928:6962  currentAllowance - subtractedValue */\n      sub\n        /* \"https://github.com/OpenZeppelin/openzeppelin-contracts/blob/release-v4.9/contracts/token/ERC20/ERC20.sol\":6903:6911  _approve */\n      tag_107\n        /* \"https://github.com/OpenZeppelin/openzeppelin-contracts/blob/release-v4.9/contracts/token/ERC20/ERC20.sol\":6903:6963  _approve(owner, spender, currentAllowance - subtractedValue) */\n      jump\t// in\n    tag_146:\n        /* \"https://github.com/OpenZeppelin/openzeppelin-contracts/blob/release-v4.9/contracts/token/ERC20/ERC20.sol\":6991:6995  true */\n      0x01\n        /* \"https://github.com/OpenZeppelin/openzeppelin-contracts/blob/release-v4.9/contracts/token/ERC20/ERC20.sol\":6984:6995  return true */\n      swap3\n      pop\n      pop\n      pop\n        /* \"https://github.com/OpenZeppelin/openzeppelin-contracts/blob/release-v4.9/contracts/token/ERC20/ERC20.sol\":6575:7002  function decreaseAllowance(address spender, uint256 subtractedValue) public virtual returns (bool) {... */\n      swap3\n      swap2\n      pop\n      pop\n      jump\t// out\n        /* \"https://github.com/OpenZeppelin/openzeppelin-contracts/blob/release-v4.9/contracts/token/ERC20/ERC20.sol\":3740:3929  function transfer(address to, uint256 amount) public virtual override returns (bool) {... */\n    tag_77:\n        /* \"https://github.com/OpenZeppelin/openzeppelin-contracts/blob/release-v4.9/contracts/token/ERC20/ERC20.sol\":3819:3823  bool */\n      0x00\n        /* \"https://github.com/OpenZeppelin/openzeppelin-contracts/blob/release-v4.9/contracts/token/ERC20/ERC20.sol\":3835:3848  address owner */\n      dup1\n        /* \"https://github.com/OpenZeppelin/openzeppelin-contracts/blob/release-v4.9/contracts/token/ERC20/ERC20.sol\":3851:3863  _msgSender() */\n      tag_148\n        /* \"https://github.com/OpenZeppelin/openzeppelin-contracts/blob/release-v4.9/contracts/token/ERC20/ERC20.sol\":3851:3861  _msgSender */\n      tag_105\n        /* \"https://github.com/OpenZeppelin/openzeppelin-contracts/blob/release-v4.9/contracts/token/ERC20/ERC20.sol\":3851:3863  _msgSender() */\n      jump\t// in\n    tag_148:\n        /* \"https://github.com/OpenZeppelin/openzeppelin-contracts/blob/release-v4.9/contracts/token/ERC20/ERC20.sol\":3835:3863  address owner = _msgSender() */\n      swap1\n      pop\n        /* \"https://github.com/OpenZeppelin/openzeppelin-contracts/blob/release-v4.9/contracts/token/ERC20/ERC20.sol\":3873:3901  _transfer(owner, to, amount) */\n      tag_149\n        /* \"https://github.com/OpenZeppelin/openzeppelin-contracts/blob/release-v4.9/contracts/token/ERC20/ERC20.sol\":3883:3888  owner */\n      dup2\n        /* \"https://github.com/OpenZeppelin/openzeppelin-contracts/blob/release-v4.9/contracts/token/ERC20/ERC20.sol\":3890:3892  to */\n      dup6\n        /* \"https://github.com/OpenZeppelin/openzeppelin-contracts/blob/release-v4.9/contracts/token/ERC20/ERC20.sol\":3894:3900  amount */\n      dup6\n        /* \"https://github.com/OpenZeppelin/openzeppelin-contracts/blob/release-v4.9/contracts/token/ERC20/ERC20.sol\":3873:3882  _transfer */\n      tag_114\n        /* \"https://github.com/OpenZeppelin/openzeppelin-contracts/blob/release-v4.9/contracts/token/ERC20/ERC20.sol\":3873:3901  _transfer(owner, to, amount) */\n      jump\t// in\n    tag_149:\n        /* \"https://github.com/OpenZeppelin/openzeppelin-contracts/blob/release-v4.9/contracts/token/ERC20/ERC20.sol\":3918:3922  true */\n      0x01\n        /* \"https://github.com/OpenZeppelin/openzeppelin-contracts/blob/release-v4.9/contracts/token/ERC20/ERC20.sol\":3911:3922  return true */\n      swap2\n      pop\n      pop\n        /* \"https://github.com/OpenZeppelin/openzeppelin-contracts/blob/release-v4.9/contracts/token/ERC20/ERC20.sol\":3740:3929  function transfer(address to, uint256 amount) public virtual override returns (bool) {... */\n      swap3\n      swap2\n      pop\n      pop\n      jump\t// out\n        /* \"https://github.com/OpenZeppelin/openzeppelin-contracts/blob/release-v4.9/contracts/token/ERC20/ERC20.sol\":3987:4136  function allowance(address owner, address spender) public view virtual override returns (uint256) {... */\n    tag_82:\n        /* \"https://github.com/OpenZeppelin/openzeppelin-contracts/blob/release-v4.9/contracts/token/ERC20/ERC20.sol\":4076:4083  uint256 */\n      0x00\n        /* \"https://github.com/OpenZeppelin/openzeppelin-contracts/blob/release-v4.9/contracts/token/ERC20/ERC20.sol\":4102:4113  _allowances */\n      0x01\n        /* \"https://github.com/OpenZeppelin/openzeppelin-contracts/blob/release-v4.9/contracts/token/ERC20/ERC20.sol\":4102:4120  _allowances[owner] */\n      0x00\n        /* \"https://github.com/OpenZeppelin/openzeppelin-contracts/blob/release-v4.9/contracts/token/ERC20/ERC20.sol\":4114:4119  owner */\n      dup5\n        /* \"https://github.com/OpenZeppelin/openzeppelin-contracts/blob/release-v4.9/contracts/token/ERC20/ERC20.sol\":4102:4120  _allowances[owner] */\n      0xffffffffffffffffffffffffffffffffffffffff\n      and\n      0xffffffffffffffffffffffffffffffffffffffff\n      and\n      dup2\n      mstore\n      0x20\n      add\n      swap1\n      dup2\n      mstore\n      0x20\n      add\n      0x00\n      keccak256\n        /* \"https://github.com/OpenZeppelin/openzeppelin-contracts/blob/release-v4.9/contracts/token/ERC20/ERC20.sol\":4102:4129  _allowances[owner][spender] */\n      0x00\n        /* \"https://github.com/OpenZeppelin/openzeppelin-contracts/blob/release-v4.9/contracts/token/ERC20/ERC20.sol\":4121:4128  spender */\n      dup4\n        /* \"https://github.com/OpenZeppelin/openzeppelin-contracts/blob/release-v4.9/contracts/token/ERC20/ERC20.sol\":4102:4129  _allowances[owner][spender] */\n      0xffffffffffffffffffffffffffffffffffffffff\n      and\n      0xffffffffffffffffffffffffffffffffffffffff\n      and\n      dup2\n      mstore\n      0x20\n      add\n      swap1\n      dup2\n      mstore\n      0x20\n      add\n      0x00\n      keccak256\n      sload\n        /* \"https://github.com/OpenZeppelin/openzeppelin-contracts/blob/release-v4.9/contracts/token/ERC20/ERC20.sol\":4095:4129  return _allowances[owner][spender] */\n      swap1\n      pop\n        /* \"https://github.com/OpenZeppelin/openzeppelin-contracts/blob/release-v4.9/contracts/token/ERC20/ERC20.sol\":3987:4136  function allowance(address owner, address spender) public view virtual override returns (uint256) {... */\n      swap3\n      swap2\n      pop\n      pop\n      jump\t// out\n        /* \"TeslaToken.sol\":337:359  string public logoHash */\n    tag_85:\n      0x06\n      dup1\n      sload\n      tag_151\n      swap1\n      tag_98\n      jump\t// in\n    tag_151:\n      dup1\n      0x1f\n      add\n      0x20\n      dup1\n      swap2\n      div\n      mul\n      0x20\n      add\n      mload(0x40)\n      swap1\n      dup2\n      add\n      0x40\n      mstore\n      dup1\n      swap3\n      swap2\n      swap1\n      dup2\n      dup2\n      mstore\n      0x20\n      add\n      dup3\n      dup1\n      sload\n      tag_152\n      swap1\n      tag_98\n      jump\t// in\n    tag_152:\n      dup1\n      iszero\n      tag_153\n      jumpi\n      dup1\n      0x1f\n      lt\n      tag_154\n      jumpi\n      0x0100\n      dup1\n      dup4\n      sload\n      div\n      mul\n      dup4\n      mstore\n      swap2\n      0x20\n      add\n      swap2\n      jump(tag_153)\n    tag_154:\n      dup3\n      add\n      swap2\n      swap1\n      0x00\n      mstore\n      keccak256(0x00, 0x20)\n      swap1\n    tag_155:\n      dup2\n      sload\n      dup2\n      mstore\n      swap1\n      0x01\n      add\n      swap1\n      0x20\n      add\n      dup1\n      dup4\n      gt\n      tag_155\n      jumpi\n      dup3\n      swap1\n      sub\n      0x1f\n      and\n      dup3\n      add\n      swap2\n    tag_153:\n      pop\n      pop\n      pop\n      pop\n      pop\n      dup2\n      jump\t// out\n        /* \"https://github.com/OpenZeppelin/openzeppelin-contracts/blob/release-v4.9/contracts/access/Ownable.sol\":2074:2272  function transferOwnership(address newOwner) public virtual onlyOwner {... */\n    tag_89:\n        /* \"https://github.com/OpenZeppelin/openzeppelin-contracts/blob/release-v4.9/contracts/access/Ownable.sol\":1094:1107  _checkOwner() */\n      tag_157\n        /* \"https://github.com/OpenZeppelin/openzeppelin-contracts/blob/release-v4.9/contracts/access/Ownable.sol\":1094:1105  _checkOwner */\n      tag_92\n        /* \"https://github.com/OpenZeppelin/openzeppelin-contracts/blob/release-v4.9/contracts/access/Ownable.sol\":1094:1107  _checkOwner() */\n      jump\t// in\n    tag_157:\n        /* \"https://github.com/OpenZeppelin/openzeppelin-contracts/blob/release-v4.9/contracts/access/Ownable.sol\":2182:2183  0 */\n      0x00\n        /* \"https://github.com/OpenZeppelin/openzeppelin-contracts/blob/release-v4.9/contracts/access/Ownable.sol\":2162:2184  newOwner != address(0) */\n      0xffffffffffffffffffffffffffffffffffffffff\n      and\n        /* \"https://github.com/OpenZeppelin/openzeppelin-contracts/blob/release-v4.9/contracts/access/Ownable.sol\":2162:2170  newOwner */\n      dup2\n        /* \"https://github.com/OpenZeppelin/openzeppelin-contracts/blob/release-v4.9/contracts/access/Ownable.sol\":2162:2184  newOwner != address(0) */\n      0xffffffffffffffffffffffffffffffffffffffff\n      and\n      sub\n        /* \"https://github.com/OpenZeppelin/openzeppelin-contracts/blob/release-v4.9/contracts/access/Ownable.sol\":2154:2227  require(newOwner != address(0), \"Ownable: new owner is the zero address\") */\n      tag_159\n      jumpi\n      mload(0x40)\n      0x08c379a000000000000000000000000000000000000000000000000000000000\n      dup2\n      mstore\n      0x04\n      add\n      tag_160\n      swap1\n      tag_161\n      jump\t// in\n    tag_160:\n      mload(0x40)\n      dup1\n      swap2\n      sub\n      swap1\n      revert\n    tag_159:\n        /* \"https://github.com/OpenZeppelin/openzeppelin-contracts/blob/release-v4.9/contracts/access/Ownable.sol\":2237:2265  _transferOwnership(newOwner) */\n      tag_162\n        /* \"https://github.com/OpenZeppelin/openzeppelin-contracts/blob/release-v4.9/contracts/access/Ownable.sol\":2256:2264  newOwner */\n      dup2\n        /* \"https://github.com/OpenZeppelin/openzeppelin-contracts/blob/release-v4.9/contracts/access/Ownable.sol\":2237:2255  _transferOwnership */\n      tag_132\n        /* \"https://github.com/OpenZeppelin/openzeppelin-contracts/blob/release-v4.9/contracts/access/Ownable.sol\":2237:2265  _transferOwnership(newOwner) */\n      jump\t// in\n    tag_162:\n        /* \"https://github.com/OpenZeppelin/openzeppelin-contracts/blob/release-v4.9/contracts/access/Ownable.sol\":2074:2272  function transferOwnership(address newOwner) public virtual onlyOwner {... */\n      pop\n      jump\t// out\n        /* \"https://github.com/OpenZeppelin/openzeppelin-contracts/blob/release-v4.9/contracts/access/Ownable.sol\":1359:1489  function _checkOwner() internal view virtual {... */\n    tag_92:\n        /* \"https://github.com/OpenZeppelin/openzeppelin-contracts/blob/release-v4.9/contracts/access/Ownable.sol\":1433:1445  _msgSender() */\n      tag_164\n        /* \"https://github.com/OpenZeppelin/openzeppelin-contracts/blob/release-v4.9/contracts/access/Ownable.sol\":1433:1443  _msgSender */\n      tag_105\n        /* \"https://github.com/OpenZeppelin/openzeppelin-contracts/blob/release-v4.9/contracts/access/Ownable.sol\":1433:1445  _msgSender() */\n      jump\t// in\n    tag_164:\n        /* \"https://github.com/OpenZeppelin/openzeppelin-contracts/blob/release-v4.9/contracts/access/Ownable.sol\":1422:1445  owner() == _msgSender() */\n      0xffffffffffffffffffffffffffffffffffffffff\n      and\n        /* \"https://github.com/OpenZeppelin/openzeppelin-contracts/blob/release-v4.9/contracts/access/Ownable.sol\":1422:1429  owner() */\n      tag_165\n        /* \"https://github.com/OpenZeppelin/openzeppelin-contracts/blob/release-v4.9/contracts/access/Ownable.sol\":1422:1427  owner */\n      tag_65\n        /* \"https://github.com/OpenZeppelin/openzeppelin-contracts/blob/release-v4.9/contracts/access/Ownable.sol\":1422:1429  owner() */\n      jump\t// in\n    tag_165:\n        /* \"https://github.com/OpenZeppelin/openzeppelin-contracts/blob/release-v4.9/contracts/access/Ownable.sol\":1422:1445  owner() == _msgSender() */\n      0xffffffffffffffffffffffffffffffffffffffff\n      and\n      eq\n        /* \"https://github.com/OpenZeppelin/openzeppelin-contracts/blob/release-v4.9/contracts/access/Ownable.sol\":1414:1482  require(owner() == _msgSender(), \"Ownable: caller is not the owner\") */\n      tag_166\n      jumpi\n      mload(0x40)\n      0x08c379a000000000000000000000000000000000000000000000000000000000\n      dup2\n      mstore\n      0x04\n      add\n      tag_167\n      swap1\n      tag_168\n      jump\t// in\n    tag_167:\n      mload(0x40)\n      dup1\n      swap2\n      sub\n      swap1\n      revert\n    tag_166:\n        /* \"https://github.com/OpenZeppelin/openzeppelin-contracts/blob/release-v4.9/contracts/access/Ownable.sol\":1359:1489  function _checkOwner() internal view virtual {... */\n      jump\t// out\n        /* \"https://github.com/OpenZeppelin/openzeppelin-contracts/blob/release-v4.9/contracts/utils/Context.sol\":655:751  function _msgSender() internal view virtual returns (address) {... */\n    tag_105:\n        /* \"https://github.com/OpenZeppelin/openzeppelin-contracts/blob/release-v4.9/contracts/utils/Context.sol\":708:715  address */\n      0x00\n        /* \"https://github.com/OpenZeppelin/openzeppelin-contracts/blob/release-v4.9/contracts/utils/Context.sol\":734:744  msg.sender */\n      caller\n        /* \"https://github.com/OpenZeppelin/openzeppelin-contracts/blob/release-v4.9/contracts/utils/Context.sol\":727:744  return msg.sender */\n      swap1\n      pop\n        /* \"https://github.com/OpenZeppelin/openzeppelin-contracts/blob/release-v4.9/contracts/utils/Context.sol\":655:751  function _msgSender() internal view virtual returns (address) {... */\n      swap1\n      jump\t// out\n        /* \"https://github.com/OpenZeppelin/openzeppelin-contracts/blob/release-v4.9/contracts/token/ERC20/ERC20.sol\":10457:10797  function _approve(address owner, address spender, uint256 amount) internal virtual {... */\n    tag_107:\n        /* \"https://github.com/OpenZeppelin/openzeppelin-contracts/blob/release-v4.9/contracts/token/ERC20/ERC20.sol\":10575:10576  0 */\n      0x00\n        /* \"https://github.com/OpenZeppelin/openzeppelin-contracts/blob/release-v4.9/contracts/token/ERC20/ERC20.sol\":10558:10577  owner != address(0) */\n      0xffffffffffffffffffffffffffffffffffffffff\n      and\n        /* \"https://github.com/OpenZeppelin/openzeppelin-contracts/blob/release-v4.9/contracts/token/ERC20/ERC20.sol\":10558:10563  owner */\n      dup4\n        /* \"https://github.com/OpenZeppelin/openzeppelin-contracts/blob/release-v4.9/contracts/token/ERC20/ERC20.sol\":10558:10577  owner != address(0) */\n      0xffffffffffffffffffffffffffffffffffffffff\n      and\n      sub\n        /* \"https://github.com/OpenZeppelin/openzeppelin-contracts/blob/release-v4.9/contracts/token/ERC20/ERC20.sol\":10550:10618  require(owner != address(0), \"ERC20: approve from the zero address\") */\n      tag_171\n      jumpi\n      mload(0x40)\n      0x08c379a000000000000000000000000000000000000000000000000000000000\n      dup2\n      mstore\n      0x04\n      add\n      tag_172\n      swap1\n      tag_173\n      jump\t// in\n    tag_172:\n      mload(0x40)\n      dup1\n      swap2\n      sub\n      swap1\n      revert\n    tag_171:\n        /* \"https://github.com/OpenZeppelin/openzeppelin-contracts/blob/release-v4.9/contracts/token/ERC20/ERC20.sol\":10655:10656  0 */\n      0x00\n        /* \"https://github.com/OpenZeppelin/openzeppelin-contracts/blob/release-v4.9/contracts/token/ERC20/ERC20.sol\":10636:10657  spender != address(0) */\n      0xffffffffffffffffffffffffffffffffffffffff\n      and\n        /* \"https://github.com/OpenZeppelin/openzeppelin-contracts/blob/release-v4.9/contracts/token/ERC20/ERC20.sol\":10636:10643  spender */\n      dup3\n        /* \"https://github.com/OpenZeppelin/openzeppelin-contracts/blob/release-v4.9/contracts/token/ERC20/ERC20.sol\":10636:10657  spender != address(0) */\n      0xffffffffffffffffffffffffffffffffffffffff\n      and\n      sub\n        /* \"https://github.com/OpenZeppelin/openzeppelin-contracts/blob/release-v4.9/contracts/token/ERC20/ERC20.sol\":10628:10696  require(spender != address(0), \"ERC20: approve to the zero address\") */\n      tag_174\n      jumpi\n      mload(0x40)\n      0x08c379a000000000000000000000000000000000000000000000000000000000\n      dup2\n      mstore\n      0x04\n      add\n      tag_175\n      swap1\n      tag_176\n      jump\t// in\n    tag_175:\n      mload(0x40)\n      dup1\n      swap2\n      sub\n      swap1\n      revert\n    tag_174:\n        /* \"https://github.com/OpenZeppelin/openzeppelin-contracts/blob/release-v4.9/contracts/token/ERC20/ERC20.sol\":10737:10743  amount */\n      dup1\n        /* \"https://github.com/OpenZeppelin/openzeppelin-contracts/blob/release-v4.9/contracts/token/ERC20/ERC20.sol\":10707:10718  _allowances */\n      0x01\n        /* \"https://github.com/OpenZeppelin/openzeppelin-contracts/blob/release-v4.9/contracts/token/ERC20/ERC20.sol\":10707:10725  _allowances[owner] */\n      0x00\n        /* \"https://github.com/OpenZeppelin/openzeppelin-contracts/blob/release-v4.9/contracts/token/ERC20/ERC20.sol\":10719:10724  owner */\n      dup6\n        /* \"https://github.com/OpenZeppelin/openzeppelin-contracts/blob/release-v4.9/contracts/token/ERC20/ERC20.sol\":10707:10725  _allowances[owner] */\n      0xffffffffffffffffffffffffffffffffffffffff\n      and\n      0xffffffffffffffffffffffffffffffffffffffff\n      and\n      dup2\n      mstore\n      0x20\n      add\n      swap1\n      dup2\n      mstore\n      0x20\n      add\n      0x00\n      keccak256\n        /* \"https://github.com/OpenZeppelin/openzeppelin-contracts/blob/release-v4.9/contracts/token/ERC20/ERC20.sol\":10707:10734  _allowances[owner][spender] */\n      0x00\n        /* \"https://github.com/OpenZeppelin/openzeppelin-contracts/blob/release-v4.9/contracts/token/ERC20/ERC20.sol\":10726:10733  spender */\n      dup5\n        /* \"https://github.com/OpenZeppelin/openzeppelin-contracts/blob/release-v4.9/contracts/token/ERC20/ERC20.sol\":10707:10734  _allowances[owner][spender] */\n      0xffffffffffffffffffffffffffffffffffffffff\n      and\n      0xffffffffffffffffffffffffffffffffffffffff\n      and\n      dup2\n      mstore\n      0x20\n      add\n      swap1\n      dup2\n      mstore\n      0x20\n      add\n      0x00\n      keccak256\n        /* \"https://github.com/OpenZeppelin/openzeppelin-contracts/blob/release-v4.9/contracts/token/ERC20/ERC20.sol\":10707:10743  _allowances[owner][spender] = amount */\n      dup2\n      swap1\n      sstore\n      pop\n        /* \"https://github.com/OpenZeppelin/openzeppelin-contracts/blob/release-v4.9/contracts/token/ERC20/ERC20.sol\":10774:10781  spender */\n      dup2\n        /* \"https://github.com/OpenZeppelin/openzeppelin-contracts/blob/release-v4.9/contracts/token/ERC20/ERC20.sol\":10758:10790  Approval(owner, spender, amount) */\n      0xffffffffffffffffffffffffffffffffffffffff\n      and\n        /* \"https://github.com/OpenZeppelin/openzeppelin-contracts/blob/release-v4.9/contracts/token/ERC20/ERC20.sol\":10767:10772  owner */\n      dup4\n        /* \"https://github.com/OpenZeppelin/openzeppelin-contracts/blob/release-v4.9/contracts/token/ERC20/ERC20.sol\":10758:10790  Approval(owner, spender, amount) */\n      0xffffffffffffffffffffffffffffffffffffffff\n      and\n      0x8c5be1e5ebec7d5bd14f71427d1e84f3dd0314c0f7b2291e5b200ac8c7c3b925\n        /* \"https://github.com/OpenZeppelin/openzeppelin-contracts/blob/release-v4.9/contracts/token/ERC20/ERC20.sol\":10783:10789  amount */\n      dup4\n        /* \"https://github.com/OpenZeppelin/openzeppelin-contracts/blob/release-v4.9/contracts/token/ERC20/ERC20.sol\":10758:10790  Approval(owner, spender, amount) */\n      mload(0x40)\n      tag_177\n      swap2\n      swap1\n      tag_40\n      jump\t// in\n    tag_177:\n      mload(0x40)\n      dup1\n      swap2\n      sub\n      swap1\n      log3\n        /* \"https://github.com/OpenZeppelin/openzeppelin-contracts/blob/release-v4.9/contracts/token/ERC20/ERC20.sol\":10457:10797  function _approve(address owner, address spender, uint256 amount) internal virtual {... */\n      pop\n      pop\n      pop\n      jump\t// out\n        /* \"https://github.com/OpenZeppelin/openzeppelin-contracts/blob/release-v4.9/contracts/token/ERC20/ERC20.sol\":11078:11489  function _spendAllowance(address owner, address spender, uint256 amount) internal virtual {... */\n    tag_112:\n        /* \"https://github.com/OpenZeppelin/openzeppelin-contracts/blob/release-v4.9/contracts/token/ERC20/ERC20.sol\":11178:11202  uint256 currentAllowance */\n      0x00\n        /* \"https://github.com/OpenZeppelin/openzeppelin-contracts/blob/release-v4.9/contracts/token/ERC20/ERC20.sol\":11205:11230  allowance(owner, spender) */\n      tag_179\n        /* \"https://github.com/OpenZeppelin/openzeppelin-contracts/blob/release-v4.9/contracts/token/ERC20/ERC20.sol\":11215:11220  owner */\n      dup5\n        /* \"https://github.com/OpenZeppelin/openzeppelin-contracts/blob/release-v4.9/contracts/token/ERC20/ERC20.sol\":11222:11229  spender */\n      dup5\n        /* \"https://github.com/OpenZeppelin/openzeppelin-contracts/blob/release-v4.9/contracts/token/ERC20/ERC20.sol\":11205:11214  allowance */\n      tag_82\n        /* \"https://github.com/OpenZeppelin/openzeppelin-contracts/blob/release-v4.9/contracts/token/ERC20/ERC20.sol\":11205:11230  allowance(owner, spender) */\n      jump\t// in\n    tag_179:\n        /* \"https://github.com/OpenZeppelin/openzeppelin-contracts/blob/release-v4.9/contracts/token/ERC20/ERC20.sol\":11178:11230  uint256 currentAllowance = allowance(owner, spender) */\n      swap1\n      pop\n        /* \"https://github.com/OpenZeppelin/openzeppelin-contracts/blob/release-v4.9/contracts/token/ERC20/ERC20.sol\":11264:11281  type(uint256).max */\n      0xffffffffffffffffffffffffffffffffffffffffffffffffffffffffffffffff\n        /* \"https://github.com/OpenZeppelin/openzeppelin-contracts/blob/release-v4.9/contracts/token/ERC20/ERC20.sol\":11244:11260  currentAllowance */\n      dup2\n        /* \"https://github.com/OpenZeppelin/openzeppelin-contracts/blob/release-v4.9/contracts/token/ERC20/ERC20.sol\":11244:11281  currentAllowance != type(uint256).max */\n      eq\n        /* \"https://github.com/OpenZeppelin/openzeppelin-contracts/blob/release-v4.9/contracts/token/ERC20/ERC20.sol\":11240:11483  if (currentAllowance != type(uint256).max) {... */\n      tag_180\n      jumpi\n        /* \"https://github.com/OpenZeppelin/openzeppelin-contracts/blob/release-v4.9/contracts/token/ERC20/ERC20.sol\":11325:11331  amount */\n      dup2\n        /* \"https://github.com/OpenZeppelin/openzeppelin-contracts/blob/release-v4.9/contracts/token/ERC20/ERC20.sol\":11305:11321  currentAllowance */\n      dup2\n        /* \"https://github.com/OpenZeppelin/openzeppelin-contracts/blob/release-v4.9/contracts/token/ERC20/ERC20.sol\":11305:11331  currentAllowance >= amount */\n      lt\n      iszero\n        /* \"https://github.com/OpenZeppelin/openzeppelin-contracts/blob/release-v4.9/contracts/token/ERC20/ERC20.sol\":11297:11365  require(currentAllowance >= amount, \"ERC20: insufficient allowance\") */\n      tag_181\n      jumpi\n      mload(0x40)\n      0x08c379a000000000000000000000000000000000000000000000000000000000\n      dup2\n      mstore\n      0x04\n      add\n      tag_182\n      swap1\n      tag_183\n      jump\t// in\n    tag_182:\n      mload(0x40)\n      dup1\n      swap2\n      sub\n      swap1\n      revert\n    tag_181:\n        /* \"https://github.com/OpenZeppelin/openzeppelin-contracts/blob/release-v4.9/contracts/token/ERC20/ERC20.sol\":11407:11458  _approve(owner, spender, currentAllowance - amount) */\n      tag_184\n        /* \"https://github.com/OpenZeppelin/openzeppelin-contracts/blob/release-v4.9/contracts/token/ERC20/ERC20.sol\":11416:11421  owner */\n      dup5\n        /* \"https://github.com/OpenZeppelin/openzeppelin-contracts/blob/release-v4.9/contracts/token/ERC20/ERC20.sol\":11423:11430  spender */\n      dup5\n        /* \"https://github.com/OpenZeppelin/openzeppelin-contracts/blob/release-v4.9/contracts/token/ERC20/ERC20.sol\":11451:11457  amount */\n      dup5\n        /* \"https://github.com/OpenZeppelin/openzeppelin-contracts/blob/release-v4.9/contracts/token/ERC20/ERC20.sol\":11432:11448  currentAllowance */\n      dup5\n        /* \"https://github.com/OpenZeppelin/openzeppelin-contracts/blob/release-v4.9/contracts/token/ERC20/ERC20.sol\":11432:11457  currentAllowance - amount */\n      sub\n        /* \"https://github.com/OpenZeppelin/openzeppelin-contracts/blob/release-v4.9/contracts/token/ERC20/ERC20.sol\":11407:11415  _approve */\n      tag_107\n        /* \"https://github.com/OpenZeppelin/openzeppelin-contracts/blob/release-v4.9/contracts/token/ERC20/ERC20.sol\":11407:11458  _approve(owner, spender, currentAllowance - amount) */\n      jump\t// in\n    tag_184:\n        /* \"https://github.com/OpenZeppelin/openzeppelin-contracts/blob/release-v4.9/contracts/token/ERC20/ERC20.sol\":11240:11483  if (currentAllowance != type(uint256).max) {... */\n    tag_180:\n        /* \"https://github.com/OpenZeppelin/openzeppelin-contracts/blob/release-v4.9/contracts/token/ERC20/ERC20.sol\":11168:11489  {... */\n      pop\n        /* \"https://github.com/OpenZeppelin/openzeppelin-contracts/blob/release-v4.9/contracts/token/ERC20/ERC20.sol\":11078:11489  function _spendAllowance(address owner, address spender, uint256 amount) internal virtual {... */\n      pop\n      pop\n      pop\n      jump\t// out\n        /* \"https://github.com/OpenZeppelin/openzeppelin-contracts/blob/release-v4.9/contracts/token/ERC20/ERC20.sol\":7456:8244  function _transfer(address from, address to, uint256 amount) internal virtual {... */\n    tag_114:\n        /* \"https://github.com/OpenZeppelin/openzeppelin-contracts/blob/release-v4.9/contracts/token/ERC20/ERC20.sol\":7568:7569  0 */\n      0x00\n        /* \"https://github.com/OpenZeppelin/openzeppelin-contracts/blob/release-v4.9/contracts/token/ERC20/ERC20.sol\":7552:7570  from != address(0) */\n      0xffffffffffffffffffffffffffffffffffffffff\n      and\n        /* \"https://github.com/OpenZeppelin/openzeppelin-contracts/blob/release-v4.9/contracts/token/ERC20/ERC20.sol\":7552:7556  from */\n      dup4\n        /* \"https://github.com/OpenZeppelin/openzeppelin-contracts/blob/release-v4.9/contracts/token/ERC20/ERC20.sol\":7552:7570  from != address(0) */\n      0xffffffffffffffffffffffffffffffffffffffff\n      and\n      sub\n        /* \"https://github.com/OpenZeppelin/openzeppelin-contracts/blob/release-v4.9/contracts/token/ERC20/ERC20.sol\":7544:7612  require(from != address(0), \"ERC20: transfer from the zero address\") */\n      tag_186\n      jumpi\n      mload(0x40)\n      0x08c379a000000000000000000000000000000000000000000000000000000000\n      dup2\n      mstore\n      0x04\n      add\n      tag_187\n      swap1\n      tag_188\n      jump\t// in\n    tag_187:\n      mload(0x40)\n      dup1\n      swap2\n      sub\n      swap1\n      revert\n    tag_186:\n        /* \"https://github.com/OpenZeppelin/openzeppelin-contracts/blob/release-v4.9/contracts/token/ERC20/ERC20.sol\":7644:7645  0 */\n      0x00\n        /* \"https://github.com/OpenZeppelin/openzeppelin-contracts/blob/release-v4.9/contracts/token/ERC20/ERC20.sol\":7630:7646  to != address(0) */\n      0xffffffffffffffffffffffffffffffffffffffff\n      and\n        /* \"https://github.com/OpenZeppelin/openzeppelin-contracts/blob/release-v4.9/contracts/token/ERC20/ERC20.sol\":7630:7632  to */\n      dup3\n        /* \"https://github.com/OpenZeppelin/openzeppelin-contracts/blob/release-v4.9/contracts/token/ERC20/ERC20.sol\":7630:7646  to != address(0) */\n      0xffffffffffffffffffffffffffffffffffffffff\n      and\n      sub\n        /* \"https://github.com/OpenZeppelin/openzeppelin-contracts/blob/release-v4.9/contracts/token/ERC20/ERC20.sol\":7622:7686  require(to != address(0), \"ERC20: transfer to the zero address\") */\n      tag_189\n      jumpi\n      mload(0x40)\n      0x08c379a000000000000000000000000000000000000000000000000000000000\n      dup2\n      mstore\n      0x04\n      add\n      tag_190\n      swap1\n      tag_191\n      jump\t// in\n    tag_190:\n      mload(0x40)\n      dup1\n      swap2\n      sub\n      swap1\n      revert\n    tag_189:\n        /* \"https://github.com/OpenZeppelin/openzeppelin-contracts/blob/release-v4.9/contracts/token/ERC20/ERC20.sol\":7697:7735  _beforeTokenTransfer(from, to, amount) */\n      tag_192\n        /* \"https://github.com/OpenZeppelin/openzeppelin-contracts/blob/release-v4.9/contracts/token/ERC20/ERC20.sol\":7718:7722  from */\n      dup4\n        /* \"https://github.com/OpenZeppelin/openzeppelin-contracts/blob/release-v4.9/contracts/token/ERC20/ERC20.sol\":7724:7726  to */\n      dup4\n        /* \"https://github.com/OpenZeppelin/openzeppelin-contracts/blob/release-v4.9/contracts/token/ERC20/ERC20.sol\":7728:7734  amount */\n      dup4\n        /* \"https://github.com/OpenZeppelin/openzeppelin-contracts/blob/release-v4.9/contracts/token/ERC20/ERC20.sol\":7697:7717  _beforeTokenTransfer */\n      tag_193\n        /* \"https://github.com/OpenZeppelin/openzeppelin-contracts/blob/release-v4.9/contracts/token/ERC20/ERC20.sol\":7697:7735  _beforeTokenTransfer(from, to, amount) */\n      jump\t// in\n    tag_192:\n        /* \"https://github.com/OpenZeppelin/openzeppelin-contracts/blob/release-v4.9/contracts/token/ERC20/ERC20.sol\":7746:7765  uint256 fromBalance */\n      0x00\n        /* \"https://github.com/OpenZeppelin/openzeppelin-contracts/blob/release-v4.9/contracts/token/ERC20/ERC20.sol\":7768:7777  _balances */\n      dup1\n        /* \"https://github.com/OpenZeppelin/openzeppelin-contracts/blob/release-v4.9/contracts/token/ERC20/ERC20.sol\":7768:7783  _balances[from] */\n      0x00\n        /* \"https://github.com/OpenZeppelin/openzeppelin-contracts/blob/release-v4.9/contracts/token/ERC20/ERC20.sol\":7778:7782  from */\n      dup6\n        /* \"https://github.com/OpenZeppelin/openzeppelin-contracts/blob/release-v4.9/contracts/token/ERC20/ERC20.sol\":7768:7783  _balances[from] */\n      0xffffffffffffffffffffffffffffffffffffffff\n      and\n      0xffffffffffffffffffffffffffffffffffffffff\n      and\n      dup2\n      mstore\n      0x20\n      add\n      swap1\n      dup2\n      mstore\n      0x20\n      add\n      0x00\n      keccak256\n      sload\n        /* \"https://github.com/OpenZeppelin/openzeppelin-contracts/blob/release-v4.9/contracts/token/ERC20/ERC20.sol\":7746:7783  uint256 fromBalance = _balances[from] */\n      swap1\n      pop\n        /* \"https://github.com/OpenZeppelin/openzeppelin-contracts/blob/release-v4.9/contracts/token/ERC20/ERC20.sol\":7816:7822  amount */\n      dup2\n        /* \"https://github.com/OpenZeppelin/openzeppelin-contracts/blob/release-v4.9/contracts/token/ERC20/ERC20.sol\":7801:7812  fromBalance */\n      dup2\n        /* \"https://github.com/OpenZeppelin/openzeppelin-contracts/blob/release-v4.9/contracts/token/ERC20/ERC20.sol\":7801:7822  fromBalance >= amount */\n      lt\n      iszero\n        /* \"https://github.com/OpenZeppelin/openzeppelin-contracts/blob/release-v4.9/contracts/token/ERC20/ERC20.sol\":7793:7865  require(fromBalance >= amount, \"ERC20: transfer amount exceeds balance\") */\n      tag_194\n      jumpi\n      mload(0x40)\n      0x08c379a000000000000000000000000000000000000000000000000000000000\n      dup2\n      mstore\n      0x04\n      add\n      tag_195\n      swap1\n      tag_196\n      jump\t// in\n    tag_195:\n      mload(0x40)\n      dup1\n      swap2\n      sub\n      swap1\n      revert\n    tag_194:\n        /* \"https://github.com/OpenZeppelin/openzeppelin-contracts/blob/release-v4.9/contracts/token/ERC20/ERC20.sol\":7931:7937  amount */\n      dup2\n        /* \"https://github.com/OpenZeppelin/openzeppelin-contracts/blob/release-v4.9/contracts/token/ERC20/ERC20.sol\":7917:7928  fromBalance */\n      dup2\n        /* \"https://github.com/OpenZeppelin/openzeppelin-contracts/blob/release-v4.9/contracts/token/ERC20/ERC20.sol\":7917:7937  fromBalance - amount */\n      sub\n        /* \"https://github.com/OpenZeppelin/openzeppelin-contracts/blob/release-v4.9/contracts/token/ERC20/ERC20.sol\":7899:7908  _balances */\n      0x00\n        /* \"https://github.com/OpenZeppelin/openzeppelin-contracts/blob/release-v4.9/contracts/token/ERC20/ERC20.sol\":7899:7914  _balances[from] */\n      dup1\n        /* \"https://github.com/OpenZeppelin/openzeppelin-contracts/blob/release-v4.9/contracts/token/ERC20/ERC20.sol\":7909:7913  from */\n      dup7\n        /* \"https://github.com/OpenZeppelin/openzeppelin-contracts/blob/release-v4.9/contracts/token/ERC20/ERC20.sol\":7899:7914  _balances[from] */\n      0xffffffffffffffffffffffffffffffffffffffff\n      and\n      0xffffffffffffffffffffffffffffffffffffffff\n      and\n      dup2\n      mstore\n      0x20\n      add\n      swap1\n      dup2\n      mstore\n      0x20\n      add\n      0x00\n      keccak256\n        /* \"https://github.com/OpenZeppelin/openzeppelin-contracts/blob/release-v4.9/contracts/token/ERC20/ERC20.sol\":7899:7937  _balances[from] = fromBalance - amount */\n      dup2\n      swap1\n      sstore\n      pop\n        /* \"https://github.com/OpenZeppelin/openzeppelin-contracts/blob/release-v4.9/contracts/token/ERC20/ERC20.sol\":8131:8137  amount */\n      dup2\n        /* \"https://github.com/OpenZeppelin/openzeppelin-contracts/blob/release-v4.9/contracts/token/ERC20/ERC20.sol\":8114:8123  _balances */\n      0x00\n        /* \"https://github.com/OpenZeppelin/openzeppelin-contracts/blob/release-v4.9/contracts/token/ERC20/ERC20.sol\":8114:8127  _balances[to] */\n      dup1\n        /* \"https://github.com/OpenZeppelin/openzeppelin-contracts/blob/release-v4.9/contracts/token/ERC20/ERC20.sol\":8124:8126  to */\n      dup6\n        /* \"https://github.com/OpenZeppelin/openzeppelin-contracts/blob/release-v4.9/contracts/token/ERC20/ERC20.sol\":8114:8127  _balances[to] */\n      0xffffffffffffffffffffffffffffffffffffffff\n      and\n      0xffffffffffffffffffffffffffffffffffffffff\n      and\n      dup2\n      mstore\n      0x20\n      add\n      swap1\n      dup2\n      mstore\n      0x20\n      add\n      0x00\n      keccak256\n      0x00\n        /* \"https://github.com/OpenZeppelin/openzeppelin-contracts/blob/release-v4.9/contracts/token/ERC20/ERC20.sol\":8114:8137  _balances[to] += amount */\n      dup3\n      dup3\n      sload\n      add\n      swap3\n      pop\n      pop\n      dup2\n      swap1\n      sstore\n      pop\n        /* \"https://github.com/OpenZeppelin/openzeppelin-contracts/blob/release-v4.9/contracts/token/ERC20/ERC20.sol\":8178:8180  to */\n      dup3\n        /* \"https://github.com/OpenZeppelin/openzeppelin-contracts/blob/release-v4.9/contracts/token/ERC20/ERC20.sol\":8163:8189  Transfer(from, to, amount) */\n      0xffffffffffffffffffffffffffffffffffffffff\n      and\n        /* \"https://github.com/OpenZeppelin/openzeppelin-contracts/blob/release-v4.9/contracts/token/ERC20/ERC20.sol\":8172:8176  from */\n      dup5\n        /* \"https://github.com/OpenZeppelin/openzeppelin-contracts/blob/release-v4.9/contracts/token/ERC20/ERC20.sol\":8163:8189  Transfer(from, to, amount) */\n      0xffffffffffffffffffffffffffffffffffffffff\n      and\n      0xddf252ad1be2c89b69c2b068fc378daa952ba7f163c4a11628f55a4df523b3ef\n        /* \"https://github.com/OpenZeppelin/openzeppelin-contracts/blob/release-v4.9/contracts/token/ERC20/ERC20.sol\":8182:8188  amount */\n      dup5\n        /* \"https://github.com/OpenZeppelin/openzeppelin-contracts/blob/release-v4.9/contracts/token/ERC20/ERC20.sol\":8163:8189  Transfer(from, to, amount) */\n      mload(0x40)\n      tag_197\n      swap2\n      swap1\n      tag_40\n      jump\t// in\n    tag_197:\n      mload(0x40)\n      dup1\n      swap2\n      sub\n      swap1\n      log3\n        /* \"https://github.com/OpenZeppelin/openzeppelin-contracts/blob/release-v4.9/contracts/token/ERC20/ERC20.sol\":8200:8237  _afterTokenTransfer(from, to, amount) */\n      tag_198\n        /* \"https://github.com/OpenZeppelin/openzeppelin-contracts/blob/release-v4.9/contracts/token/ERC20/ERC20.sol\":8220:8224  from */\n      dup5\n        /* \"https://github.com/OpenZeppelin/openzeppelin-contracts/blob/release-v4.9/contracts/token/ERC20/ERC20.sol\":8226:8228  to */\n      dup5\n        /* \"https://github.com/OpenZeppelin/openzeppelin-contracts/blob/release-v4.9/contracts/token/ERC20/ERC20.sol\":8230:8236  amount */\n      dup5\n        /* \"https://github.com/OpenZeppelin/openzeppelin-contracts/blob/release-v4.9/contracts/token/ERC20/ERC20.sol\":8200:8219  _afterTokenTransfer */\n      tag_199\n        /* \"https://github.com/OpenZeppelin/openzeppelin-contracts/blob/release-v4.9/contracts/token/ERC20/ERC20.sol\":8200:8237  _afterTokenTransfer(from, to, amount) */\n      jump\t// in\n    tag_198:\n        /* \"https://github.com/OpenZeppelin/openzeppelin-contracts/blob/release-v4.9/contracts/token/ERC20/ERC20.sol\":7534:8244  {... */\n      pop\n        /* \"https://github.com/OpenZeppelin/openzeppelin-contracts/blob/release-v4.9/contracts/token/ERC20/ERC20.sol\":7456:8244  function _transfer(address from, address to, uint256 amount) internal virtual {... */\n      pop\n      pop\n      pop\n      jump\t// out\n        /* \"https://github.com/OpenZeppelin/openzeppelin-contracts/blob/release-v4.9/contracts/token/ERC20/ERC20.sol\":8520:9055  function _mint(address account, uint256 amount) internal virtual {... */\n    tag_126:\n        /* \"https://github.com/OpenZeppelin/openzeppelin-contracts/blob/release-v4.9/contracts/token/ERC20/ERC20.sol\":8622:8623  0 */\n      0x00\n        /* \"https://github.com/OpenZeppelin/openzeppelin-contracts/blob/release-v4.9/contracts/token/ERC20/ERC20.sol\":8603:8624  account != address(0) */\n      0xffffffffffffffffffffffffffffffffffffffff\n      and\n        /* \"https://github.com/OpenZeppelin/openzeppelin-contracts/blob/release-v4.9/contracts/token/ERC20/ERC20.sol\":8603:8610  account */\n      dup3\n        /* \"https://github.com/OpenZeppelin/openzeppelin-contracts/blob/release-v4.9/contracts/token/ERC20/ERC20.sol\":8603:8624  account != address(0) */\n      0xffffffffffffffffffffffffffffffffffffffff\n      and\n      sub\n        /* \"https://github.com/OpenZeppelin/openzeppelin-contracts/blob/release-v4.9/contracts/token/ERC20/ERC20.sol\":8595:8660  require(account != address(0), \"ERC20: mint to the zero address\") */\n      tag_201\n      jumpi\n      mload(0x40)\n      0x08c379a000000000000000000000000000000000000000000000000000000000\n      dup2\n      mstore\n      0x04\n      add\n      tag_202\n      swap1\n      tag_203\n      jump\t// in\n    tag_202:\n      mload(0x40)\n      dup1\n      swap2\n      sub\n      swap1\n      revert\n    tag_201:\n        /* \"https://github.com/OpenZeppelin/openzeppelin-contracts/blob/release-v4.9/contracts/token/ERC20/ERC20.sol\":8671:8720  _beforeTokenTransfer(address(0), account, amount) */\n      tag_204\n        /* \"https://github.com/OpenZeppelin/openzeppelin-contracts/blob/release-v4.9/contracts/token/ERC20/ERC20.sol\":8700:8701  0 */\n      0x00\n        /* \"https://github.com/OpenZeppelin/openzeppelin-contracts/blob/release-v4.9/contracts/token/ERC20/ERC20.sol\":8704:8711  account */\n      dup4\n        /* \"https://github.com/OpenZeppelin/openzeppelin-contracts/blob/release-v4.9/contracts/token/ERC20/ERC20.sol\":8713:8719  amount */\n      dup4\n        /* \"https://github.com/OpenZeppelin/openzeppelin-contracts/blob/release-v4.9/contracts/token/ERC20/ERC20.sol\":8671:8691  _beforeTokenTransfer */\n      tag_193\n        /* \"https://github.com/OpenZeppelin/openzeppelin-contracts/blob/release-v4.9/contracts/token/ERC20/ERC20.sol\":8671:8720  _beforeTokenTransfer(address(0), account, amount) */\n      jump\t// in\n    tag_204:\n        /* \"https://github.com/OpenZeppelin/openzeppelin-contracts/blob/release-v4.9/contracts/token/ERC20/ERC20.sol\":8747:8753  amount */\n      dup1\n        /* \"https://github.com/OpenZeppelin/openzeppelin-contracts/blob/release-v4.9/contracts/token/ERC20/ERC20.sol\":8731:8743  _totalSupply */\n      0x02\n      0x00\n        /* \"https://github.com/OpenZeppelin/openzeppelin-contracts/blob/release-v4.9/contracts/token/ERC20/ERC20.sol\":8731:8753  _totalSupply += amount */\n      dup3\n      dup3\n      sload\n      tag_205\n      swap2\n      swap1\n      tag_121\n      jump\t// in\n    tag_205:\n      swap3\n      pop\n      pop\n      dup2\n      swap1\n      sstore\n      pop\n        /* \"https://github.com/OpenZeppelin/openzeppelin-contracts/blob/release-v4.9/contracts/token/ERC20/ERC20.sol\":8921:8927  amount */\n      dup1\n        /* \"https://github.com/OpenZeppelin/openzeppelin-contracts/blob/release-v4.9/contracts/token/ERC20/ERC20.sol\":8899:8908  _balances */\n      0x00\n        /* \"https://github.com/OpenZeppelin/openzeppelin-contracts/blob/release-v4.9/contracts/token/ERC20/ERC20.sol\":8899:8917  _balances[account] */\n      dup1\n        /* \"https://github.com/OpenZeppelin/openzeppelin-contracts/blob/release-v4.9/contracts/token/ERC20/ERC20.sol\":8909:8916  account */\n      dup5\n        /* \"https://github.com/OpenZeppelin/openzeppelin-contracts/blob/release-v4.9/contracts/token/ERC20/ERC20.sol\":8899:8917  _balances[account] */\n      0xffffffffffffffffffffffffffffffffffffffff\n      and\n      0xffffffffffffffffffffffffffffffffffffffff\n      and\n      dup2\n      mstore\n      0x20\n      add\n      swap1\n      dup2\n      mstore\n      0x20\n      add\n      0x00\n      keccak256\n      0x00\n        /* \"https://github.com/OpenZeppelin/openzeppelin-contracts/blob/release-v4.9/contracts/token/ERC20/ERC20.sol\":8899:8927  _balances[account] += amount */\n      dup3\n      dup3\n      sload\n      add\n      swap3\n      pop\n      pop\n      dup2\n      swap1\n      sstore\n      pop\n        /* \"https://github.com/OpenZeppelin/openzeppelin-contracts/blob/release-v4.9/contracts/token/ERC20/ERC20.sol\":8973:8980  account */\n      dup2\n        /* \"https://github.com/OpenZeppelin/openzeppelin-contracts/blob/release-v4.9/contracts/token/ERC20/ERC20.sol\":8952:8989  Transfer(address(0), account, amount) */\n      0xffffffffffffffffffffffffffffffffffffffff\n      and\n        /* \"https://github.com/OpenZeppelin/openzeppelin-contracts/blob/release-v4.9/contracts/token/ERC20/ERC20.sol\":8969:8970  0 */\n      0x00\n        /* \"https://github.com/OpenZeppelin/openzeppelin-contracts/blob/release-v4.9/contracts/token/ERC20/ERC20.sol\":8952:8989  Transfer(address(0), account, amount) */\n      0xffffffffffffffffffffffffffffffffffffffff\n      and\n      0xddf252ad1be2c89b69c2b068fc378daa952ba7f163c4a11628f55a4df523b3ef\n        /* \"https://github.com/OpenZeppelin/openzeppelin-contracts/blob/release-v4.9/contracts/token/ERC20/ERC20.sol\":8982:8988  amount */\n      dup4\n        /* \"https://github.com/OpenZeppelin/openzeppelin-contracts/blob/release-v4.9/contracts/token/ERC20/ERC20.sol\":8952:8989  Transfer(address(0), account, amount) */\n      mload(0x40)\n      tag_206\n      swap2\n      swap1\n      tag_40\n      jump\t// in\n    tag_206:\n      mload(0x40)\n      dup1\n      swap2\n      sub\n      swap1\n      log3\n        /* \"https://github.com/OpenZeppelin/openzeppelin-contracts/blob/release-v4.9/contracts/token/ERC20/ERC20.sol\":9000:9048  _afterTokenTransfer(address(0), account, amount) */\n      tag_207\n        /* \"https://github.com/OpenZeppelin/openzeppelin-contracts/blob/release-v4.9/contracts/token/ERC20/ERC20.sol\":9028:9029  0 */\n      0x00\n        /* \"https://github.com/OpenZeppelin/openzeppelin-contracts/blob/release-v4.9/contracts/token/ERC20/ERC20.sol\":9032:9039  account */\n      dup4\n        /* \"https://github.com/OpenZeppelin/openzeppelin-contracts/blob/release-v4.9/contracts/token/ERC20/ERC20.sol\":9041:9047  amount */\n      dup4\n        /* \"https://github.com/OpenZeppelin/openzeppelin-contracts/blob/release-v4.9/contracts/token/ERC20/ERC20.sol\":9000:9019  _afterTokenTransfer */\n      tag_199\n        /* \"https://github.com/OpenZeppelin/openzeppelin-contracts/blob/release-v4.9/contracts/token/ERC20/ERC20.sol\":9000:9048  _afterTokenTransfer(address(0), account, amount) */\n      jump\t// in\n    tag_207:\n        /* \"https://github.com/OpenZeppelin/openzeppelin-contracts/blob/release-v4.9/contracts/token/ERC20/ERC20.sol\":8520:9055  function _mint(address account, uint256 amount) internal virtual {... */\n      pop\n      pop\n      jump\t// out\n        /* \"https://github.com/OpenZeppelin/openzeppelin-contracts/blob/release-v4.9/contracts/access/Ownable.sol\":2426:2613  function _transferOwnership(address newOwner) internal virtual {... */\n    tag_132:\n        /* \"https://github.com/OpenZeppelin/openzeppelin-contracts/blob/release-v4.9/contracts/access/Ownable.sol\":2499:2515  address oldOwner */\n      0x00\n        /* \"https://github.com/OpenZeppelin/openzeppelin-contracts/blob/release-v4.9/contracts/access/Ownable.sol\":2518:2524  _owner */\n      0x05\n      0x00\n      swap1\n      sload\n      swap1\n      0x0100\n      exp\n      swap1\n      div\n      0xffffffffffffffffffffffffffffffffffffffff\n      and\n        /* \"https://github.com/OpenZeppelin/openzeppelin-contracts/blob/release-v4.9/contracts/access/Ownable.sol\":2499:2524  address oldOwner = _owner */\n      swap1\n      pop\n        /* \"https://github.com/OpenZeppelin/openzeppelin-contracts/blob/release-v4.9/contracts/access/Ownable.sol\":2543:2551  newOwner */\n      dup2\n        /* \"https://github.com/OpenZeppelin/openzeppelin-contracts/blob/release-v4.9/contracts/access/Ownable.sol\":2534:2540  _owner */\n      0x05\n      0x00\n        /* \"https://github.com/OpenZeppelin/openzeppelin-contracts/blob/release-v4.9/contracts/access/Ownable.sol\":2534:2551  _owner = newOwner */\n      0x0100\n      exp\n      dup2\n      sload\n      dup2\n      0xffffffffffffffffffffffffffffffffffffffff\n      mul\n      not\n      and\n      swap1\n      dup4\n      0xffffffffffffffffffffffffffffffffffffffff\n      and\n      mul\n      or\n      swap1\n      sstore\n      pop\n        /* \"https://github.com/OpenZeppelin/openzeppelin-contracts/blob/release-v4.9/contracts/access/Ownable.sol\":2597:2605  newOwner */\n      dup2\n        /* \"https://github.com/OpenZeppelin/openzeppelin-contracts/blob/release-v4.9/contracts/access/Ownable.sol\":2566:2606  OwnershipTransferred(oldOwner, newOwner) */\n      0xffffffffffffffffffffffffffffffffffffffff\n      and\n        /* \"https://github.com/OpenZeppelin/openzeppelin-contracts/blob/release-v4.9/contracts/access/Ownable.sol\":2587:2595  oldOwner */\n      dup2\n        /* \"https://github.com/OpenZeppelin/openzeppelin-contracts/blob/release-v4.9/contracts/access/Ownable.sol\":2566:2606  OwnershipTransferred(oldOwner, newOwner) */\n      0xffffffffffffffffffffffffffffffffffffffff\n      and\n      0x8be0079c531659141344cd1fd0a4f28419497f9722a3daafe3b4186f6b6457e0\n      mload(0x40)\n      mload(0x40)\n      dup1\n      swap2\n      sub\n      swap1\n      log3\n        /* \"https://github.com/OpenZeppelin/openzeppelin-contracts/blob/release-v4.9/contracts/access/Ownable.sol\":2489:2613  {... */\n      pop\n        /* \"https://github.com/OpenZeppelin/openzeppelin-contracts/blob/release-v4.9/contracts/access/Ownable.sol\":2426:2613  function _transferOwnership(address newOwner) internal virtual {... */\n      pop\n      jump\t// out\n        /* \"https://github.com/OpenZeppelin/openzeppelin-contracts/blob/release-v4.9/contracts/token/ERC20/ERC20.sol\":12073:12164  function _beforeTokenTransfer(address from, address to, uint256 amount) internal virtual {} */\n    tag_193:\n      pop\n      pop\n      pop\n      jump\t// out\n        /* \"https://github.com/OpenZeppelin/openzeppelin-contracts/blob/release-v4.9/contracts/token/ERC20/ERC20.sol\":12752:12842  function _afterTokenTransfer(address from, address to, uint256 amount) internal virtual {} */\n    tag_199:\n      pop\n      pop\n      pop\n      jump\t// out\n        /* \"#utility.yul\":7:82   */\n    tag_211:\n        /* \"#utility.yul\":40:46   */\n      0x00\n        /* \"#utility.yul\":73:75   */\n      0x40\n        /* \"#utility.yul\":67:76   */\n      mload\n        /* \"#utility.yul\":57:76   */\n      swap1\n      pop\n        /* \"#utility.yul\":7:82   */\n      swap1\n      jump\t// out\n        /* \"#utility.yul\":88:205   */\n    tag_212:\n        /* \"#utility.yul\":197:198   */\n      0x00\n        /* \"#utility.yul\":194:195   */\n      dup1\n        /* \"#utility.yul\":187:199   */\n      revert\n        /* \"#utility.yul\":211:328   */\n    tag_213:\n        /* \"#utility.yul\":320:321   */\n      0x00\n        /* \"#utility.yul\":317:318   */\n      dup1\n        /* \"#utility.yul\":310:322   */\n      revert\n        /* \"#utility.yul\":334:451   */\n    tag_214:\n        /* \"#utility.yul\":443:444   */\n      0x00\n        /* \"#utility.yul\":440:441   */\n      dup1\n        /* \"#utility.yul\":433:445   */\n      revert\n        /* \"#utility.yul\":457:574   */\n    tag_215:\n        /* \"#utility.yul\":566:567   */\n      0x00\n        /* \"#utility.yul\":563:564   */\n      dup1\n        /* \"#utility.yul\":556:568   */\n      revert\n        /* \"#utility.yul\":580:682   */\n    tag_216:\n        /* \"#utility.yul\":621:627   */\n      0x00\n        /* \"#utility.yul\":672:674   */\n      0x1f\n        /* \"#utility.yul\":668:675   */\n      not\n        /* \"#utility.yul\":663:665   */\n      0x1f\n        /* \"#utility.yul\":656:661   */\n      dup4\n        /* \"#utility.yul\":652:666   */\n      add\n        /* \"#utility.yul\":648:676   */\n      and\n        /* \"#utility.yul\":638:676   */\n      swap1\n      pop\n        /* \"#utility.yul\":580:682   */\n      swap2\n      swap1\n      pop\n      jump\t// out\n        /* \"#utility.yul\":688:868   */\n    tag_217:\n        /* \"#utility.yul\":736:813   */\n      0x4e487b7100000000000000000000000000000000000000000000000000000000\n        /* \"#utility.yul\":733:734   */\n      0x00\n        /* \"#utility.yul\":726:814   */\n      mstore\n        /* \"#utility.yul\":833:837   */\n      0x41\n        /* \"#utility.yul\":830:831   */\n      0x04\n        /* \"#utility.yul\":823:838   */\n      mstore\n        /* \"#utility.yul\":857:861   */\n      0x24\n        /* \"#utility.yul\":854:855   */\n      0x00\n        /* \"#utility.yul\":847:862   */\n      revert\n        /* \"#utility.yul\":874:1155   */\n    tag_218:\n        /* \"#utility.yul\":957:984   */\n      tag_287\n        /* \"#utility.yul\":979:983   */\n      dup3\n        /* \"#utility.yul\":957:984   */\n      tag_216\n      jump\t// in\n    tag_287:\n        /* \"#utility.yul\":949:955   */\n      dup2\n        /* \"#utility.yul\":945:985   */\n      add\n        /* \"#utility.yul\":1087:1093   */\n      dup2\n        /* \"#utility.yul\":1075:1085   */\n      dup2\n        /* \"#utility.yul\":1072:1094   */\n      lt\n        /* \"#utility.yul\":1051:1069   */\n      0xffffffffffffffff\n        /* \"#utility.yul\":1039:1049   */\n      dup3\n        /* \"#utility.yul\":1036:1070   */\n      gt\n        /* \"#utility.yul\":1033:1095   */\n      or\n        /* \"#utility.yul\":1030:1118   */\n      iszero\n      tag_288\n      jumpi\n        /* \"#utility.yul\":1098:1116   */\n      tag_289\n      tag_217\n      jump\t// in\n    tag_289:\n        /* \"#utility.yul\":1030:1118   */\n    tag_288:\n        /* \"#utility.yul\":1138:1148   */\n      dup1\n        /* \"#utility.yul\":1134:1136   */\n      0x40\n        /* \"#utility.yul\":1127:1149   */\n      mstore\n        /* \"#utility.yul\":917:1155   */\n      pop\n        /* \"#utility.yul\":874:1155   */\n      pop\n      pop\n      jump\t// out\n        /* \"#utility.yul\":1161:1290   */\n    tag_219:\n        /* \"#utility.yul\":1195:1201   */\n      0x00\n        /* \"#utility.yul\":1222:1242   */\n      tag_291\n      tag_211\n      jump\t// in\n    tag_291:\n        /* \"#utility.yul\":1212:1242   */\n      swap1\n      pop\n        /* \"#utility.yul\":1251:1284   */\n      tag_292\n        /* \"#utility.yul\":1279:1283   */\n      dup3\n        /* \"#utility.yul\":1271:1277   */\n      dup3\n        /* \"#utility.yul\":1251:1284   */\n      tag_218\n      jump\t// in\n    tag_292:\n        /* \"#utility.yul\":1161:1290   */\n      swap2\n      swap1\n      pop\n      jump\t// out\n        /* \"#utility.yul\":1296:1604   */\n    tag_220:\n        /* \"#utility.yul\":1358:1362   */\n      0x00\n        /* \"#utility.yul\":1448:1466   */\n      0xffffffffffffffff\n        /* \"#utility.yul\":1440:1446   */\n      dup3\n        /* \"#utility.yul\":1437:1467   */\n      gt\n        /* \"#utility.yul\":1434:1490   */\n      iszero\n      tag_294\n      jumpi\n        /* \"#utility.yul\":1470:1488   */\n      tag_295\n      tag_217\n      jump\t// in\n    tag_295:\n        /* \"#utility.yul\":1434:1490   */\n    tag_294:\n        /* \"#utility.yul\":1508:1537   */\n      tag_296\n        /* \"#utility.yul\":1530:1536   */\n      dup3\n        /* \"#utility.yul\":1508:1537   */\n      tag_216\n      jump\t// in\n    tag_296:\n        /* \"#utility.yul\":1500:1537   */\n      swap1\n      pop\n        /* \"#utility.yul\":1592:1596   */\n      0x20\n        /* \"#utility.yul\":1586:1590   */\n      dup2\n        /* \"#utility.yul\":1582:1597   */\n      add\n        /* \"#utility.yul\":1574:1597   */\n      swap1\n      pop\n        /* \"#utility.yul\":1296:1604   */\n      swap2\n      swap1\n      pop\n      jump\t// out\n        /* \"#utility.yul\":1610:1756   */\n    tag_221:\n        /* \"#utility.yul\":1707:1713   */\n      dup3\n        /* \"#utility.yul\":1702:1705   */\n      dup2\n        /* \"#utility.yul\":1697:1700   */\n      dup4\n        /* \"#utility.yul\":1684:1714   */\n      calldatacopy\n        /* \"#utility.yul\":1748:1749   */\n      0x00\n        /* \"#utility.yul\":1739:1745   */\n      dup4\n        /* \"#utility.yul\":1734:1737   */\n      dup4\n        /* \"#utility.yul\":1730:1746   */\n      add\n        /* \"#utility.yul\":1723:1750   */\n      mstore\n        /* \"#utility.yul\":1610:1756   */\n      pop\n      pop\n      pop\n      jump\t// out\n        /* \"#utility.yul\":1762:2187   */\n    tag_222:\n        /* \"#utility.yul\":1840:1845   */\n      0x00\n        /* \"#utility.yul\":1865:1931   */\n      tag_299\n        /* \"#utility.yul\":1881:1930   */\n      tag_300\n        /* \"#utility.yul\":1923:1929   */\n      dup5\n        /* \"#utility.yul\":1881:1930   */\n      tag_220\n      jump\t// in\n    tag_300:\n        /* \"#utility.yul\":1865:1931   */\n      tag_219\n      jump\t// in\n    tag_299:\n        /* \"#utility.yul\":1856:1931   */\n      swap1\n      pop\n        /* \"#utility.yul\":1954:1960   */\n      dup3\n        /* \"#utility.yul\":1947:1952   */\n      dup2\n        /* \"#utility.yul\":1940:1961   */\n      mstore\n        /* \"#utility.yul\":1992:1996   */\n      0x20\n        /* \"#utility.yul\":1985:1990   */\n      dup2\n        /* \"#utility.yul\":1981:1997   */\n      add\n        /* \"#utility.yul\":2030:2033   */\n      dup5\n        /* \"#utility.yul\":2021:2027   */\n      dup5\n        /* \"#utility.yul\":2016:2019   */\n      dup5\n        /* \"#utility.yul\":2012:2028   */\n      add\n        /* \"#utility.yul\":2009:2034   */\n      gt\n        /* \"#utility.yul\":2006:2118   */\n      iszero\n      tag_301\n      jumpi\n        /* \"#utility.yul\":2037:2116   */\n      tag_302\n      tag_215\n      jump\t// in\n    tag_302:\n        /* \"#utility.yul\":2006:2118   */\n    tag_301:\n        /* \"#utility.yul\":2127:2181   */\n      tag_303\n        /* \"#utility.yul\":2174:2180   */\n      dup5\n        /* \"#utility.yul\":2169:2172   */\n      dup3\n        /* \"#utility.yul\":2164:2167   */\n      dup6\n        /* \"#utility.yul\":2127:2181   */\n      tag_221\n      jump\t// in\n    tag_303:\n        /* \"#utility.yul\":1846:2187   */\n      pop\n        /* \"#utility.yul\":1762:2187   */\n      swap4\n      swap3\n      pop\n      pop\n      pop\n      jump\t// out\n        /* \"#utility.yul\":2207:2547   */\n    tag_223:\n        /* \"#utility.yul\":2263:2268   */\n      0x00\n        /* \"#utility.yul\":2312:2315   */\n      dup3\n        /* \"#utility.yul\":2305:2309   */\n      0x1f\n        /* \"#utility.yul\":2297:2303   */\n      dup4\n        /* \"#utility.yul\":2293:2310   */\n      add\n        /* \"#utility.yul\":2289:2316   */\n      slt\n        /* \"#utility.yul\":2279:2401   */\n      tag_305\n      jumpi\n        /* \"#utility.yul\":2320:2399   */\n      tag_306\n      tag_214\n      jump\t// in\n    tag_306:\n        /* \"#utility.yul\":2279:2401   */\n    tag_305:\n        /* \"#utility.yul\":2437:2443   */\n      dup2\n        /* \"#utility.yul\":2424:2444   */\n      calldataload\n        /* \"#utility.yul\":2462:2541   */\n      tag_307\n        /* \"#utility.yul\":2537:2540   */\n      dup5\n        /* \"#utility.yul\":2529:2535   */\n      dup3\n        /* \"#utility.yul\":2522:2526   */\n      0x20\n        /* \"#utility.yul\":2514:2520   */\n      dup7\n        /* \"#utility.yul\":2510:2527   */\n      add\n        /* \"#utility.yul\":2462:2541   */\n      tag_222\n      jump\t// in\n    tag_307:\n        /* \"#utility.yul\":2453:2541   */\n      swap2\n      pop\n        /* \"#utility.yul\":2269:2547   */\n      pop\n        /* \"#utility.yul\":2207:2547   */\n      swap3\n      swap2\n      pop\n      pop\n      jump\t// out\n        /* \"#utility.yul\":2553:3062   */\n    tag_25:\n        /* \"#utility.yul\":2622:2628   */\n      0x00\n        /* \"#utility.yul\":2671:2673   */\n      0x20\n        /* \"#utility.yul\":2659:2668   */\n      dup3\n        /* \"#utility.yul\":2650:2657   */\n      dup5\n        /* \"#utility.yul\":2646:2669   */\n      sub\n        /* \"#utility.yul\":2642:2674   */\n      slt\n        /* \"#utility.yul\":2639:2758   */\n      iszero\n      tag_309\n      jumpi\n        /* \"#utility.yul\":2677:2756   */\n      tag_310\n      tag_212\n      jump\t// in\n    tag_310:\n        /* \"#utility.yul\":2639:2758   */\n    tag_309:\n        /* \"#utility.yul\":2825:2826   */\n      0x00\n        /* \"#utility.yul\":2814:2823   */\n      dup3\n        /* \"#utility.yul\":2810:2827   */\n      add\n        /* \"#utility.yul\":2797:2828   */\n      calldataload\n        /* \"#utility.yul\":2855:2873   */\n      0xffffffffffffffff\n        /* \"#utility.yul\":2847:2853   */\n      dup2\n        /* \"#utility.yul\":2844:2874   */\n      gt\n        /* \"#utility.yul\":2841:2958   */\n      iszero\n      tag_311\n      jumpi\n        /* \"#utility.yul\":2877:2956   */\n      tag_312\n      tag_213\n      jump\t// in\n    tag_312:\n        /* \"#utility.yul\":2841:2958   */\n    tag_311:\n        /* \"#utility.yul\":2982:3045   */\n      tag_313\n        /* \"#utility.yul\":3037:3044   */\n      dup5\n        /* \"#utility.yul\":3028:3034   */\n      dup3\n        /* \"#utility.yul\":3017:3026   */\n      dup6\n        /* \"#utility.yul\":3013:3035   */\n      add\n        /* \"#utility.yul\":2982:3045   */\n      tag_223\n      jump\t// in\n    tag_313:\n        /* \"#utility.yul\":2972:3045   */\n      swap2\n      pop\n        /* \"#utility.yul\":2768:3055   */\n      pop\n        /* \"#utility.yul\":2553:3062   */\n      swap3\n      swap2\n      pop\n      pop\n      jump\t// out\n        /* \"#utility.yul\":3068:3167   */\n    tag_224:\n        /* \"#utility.yul\":3120:3126   */\n      0x00\n        /* \"#utility.yul\":3154:3159   */\n      dup2\n        /* \"#utility.yul\":3148:3160   */\n      mload\n        /* \"#utility.yul\":3138:3160   */\n      swap1\n      pop\n        /* \"#utility.yul\":3068:3167   */\n      swap2\n      swap1\n      pop\n      jump\t// out\n        /* \"#utility.yul\":3173:3342   */\n    tag_225:\n        /* \"#utility.yul\":3257:3268   */\n      0x00\n        /* \"#utility.yul\":3291:3297   */\n      dup3\n        /* \"#utility.yul\":3286:3289   */\n      dup3\n        /* \"#utility.yul\":3279:3298   */\n      mstore\n        /* \"#utility.yul\":3331:3335   */\n      0x20\n        /* \"#utility.yul\":3326:3329   */\n      dup3\n        /* \"#utility.yul\":3322:3336   */\n      add\n        /* \"#utility.yul\":3307:3336   */\n      swap1\n      pop\n        /* \"#utility.yul\":3173:3342   */\n      swap3\n      swap2\n      pop\n      pop\n      jump\t// out\n        /* \"#utility.yul\":3348:3594   */\n    tag_226:\n        /* \"#utility.yul\":3429:3430   */\n      0x00\n        /* \"#utility.yul\":3439:3552   */\n    tag_317:\n        /* \"#utility.yul\":3453:3459   */\n      dup4\n        /* \"#utility.yul\":3450:3451   */\n      dup2\n        /* \"#utility.yul\":3447:3460   */\n      lt\n        /* \"#utility.yul\":3439:3552   */\n      iszero\n      tag_319\n      jumpi\n        /* \"#utility.yul\":3538:3539   */\n      dup1\n        /* \"#utility.yul\":3533:3536   */\n      dup3\n        /* \"#utility.yul\":3529:3540   */\n      add\n        /* \"#utility.yul\":3523:3541   */\n      mload\n        /* \"#utility.yul\":3519:3520   */\n      dup2\n        /* \"#utility.yul\":3514:3517   */\n      dup5\n        /* \"#utility.yul\":3510:3521   */\n      add\n        /* \"#utility.yul\":3503:3542   */\n      mstore\n        /* \"#utility.yul\":3475:3477   */\n      0x20\n        /* \"#utility.yul\":3472:3473   */\n      dup2\n        /* \"#utility.yul\":3468:3478   */\n      add\n        /* \"#utility.yul\":3463:3478   */\n      swap1\n      pop\n        /* \"#utility.yul\":3439:3552   */\n      jump(tag_317)\n    tag_319:\n        /* \"#utility.yul\":3586:3587   */\n      0x00\n        /* \"#utility.yul\":3577:3583   */\n      dup5\n        /* \"#utility.yul\":3572:3575   */\n      dup5\n        /* \"#utility.yul\":3568:3584   */\n      add\n        /* \"#utility.yul\":3561:3588   */\n      mstore\n        /* \"#utility.yul\":3410:3594   */\n      pop\n        /* \"#utility.yul\":3348:3594   */\n      pop\n      pop\n      pop\n      jump\t// out\n        /* \"#utility.yul\":3600:3977   */\n    tag_227:\n        /* \"#utility.yul\":3688:3691   */\n      0x00\n        /* \"#utility.yul\":3716:3755   */\n      tag_321\n        /* \"#utility.yul\":3749:3754   */\n      dup3\n        /* \"#utility.yul\":3716:3755   */\n      tag_224\n      jump\t// in\n    tag_321:\n        /* \"#utility.yul\":3771:3842   */\n      tag_322\n        /* \"#utility.yul\":3835:3841   */\n      dup2\n        /* \"#utility.yul\":3830:3833   */\n      dup6\n        /* \"#utility.yul\":3771:3842   */\n      tag_225\n      jump\t// in\n    tag_322:\n        /* \"#utility.yul\":3764:3842   */\n      swap4\n      pop\n        /* \"#utility.yul\":3851:3916   */\n      tag_323\n        /* \"#utility.yul\":3909:3915   */\n      dup2\n        /* \"#utility.yul\":3904:3907   */\n      dup6\n        /* \"#utility.yul\":3897:3901   */\n      0x20\n        /* \"#utility.yul\":3890:3895   */\n      dup7\n        /* \"#utility.yul\":3886:3902   */\n      add\n        /* \"#utility.yul\":3851:3916   */\n      tag_226\n      jump\t// in\n    tag_323:\n        /* \"#utility.yul\":3941:3970   */\n      tag_324\n        /* \"#utility.yul\":3963:3969   */\n      dup2\n        /* \"#utility.yul\":3941:3970   */\n      tag_216\n      jump\t// in\n    tag_324:\n        /* \"#utility.yul\":3936:3939   */\n      dup5\n        /* \"#utility.yul\":3932:3971   */\n      add\n        /* \"#utility.yul\":3925:3971   */\n      swap2\n      pop\n        /* \"#utility.yul\":3692:3977   */\n      pop\n        /* \"#utility.yul\":3600:3977   */\n      swap3\n      swap2\n      pop\n      pop\n      jump\t// out\n        /* \"#utility.yul\":3983:4296   */\n    tag_30:\n        /* \"#utility.yul\":4096:4100   */\n      0x00\n        /* \"#utility.yul\":4134:4136   */\n      0x20\n        /* \"#utility.yul\":4123:4132   */\n      dup3\n        /* \"#utility.yul\":4119:4137   */\n      add\n        /* \"#utility.yul\":4111:4137   */\n      swap1\n      pop\n        /* \"#utility.yul\":4183:4192   */\n      dup2\n        /* \"#utility.yul\":4177:4181   */\n      dup2\n        /* \"#utility.yul\":4173:4193   */\n      sub\n        /* \"#utility.yul\":4169:4170   */\n      0x00\n        /* \"#utility.yul\":4158:4167   */\n      dup4\n        /* \"#utility.yul\":4154:4171   */\n      add\n        /* \"#utility.yul\":4147:4194   */\n      mstore\n        /* \"#utility.yul\":4211:4289   */\n      tag_326\n        /* \"#utility.yul\":4284:4288   */\n      dup2\n        /* \"#utility.yul\":4275:4281   */\n      dup5\n        /* \"#utility.yul\":4211:4289   */\n      tag_227\n      jump\t// in\n    tag_326:\n        /* \"#utility.yul\":4203:4289   */\n      swap1\n      pop\n        /* \"#utility.yul\":3983:4296   */\n      swap3\n      swap2\n      pop\n      pop\n      jump\t// out\n        /* \"#utility.yul\":4302:4428   */\n    tag_228:\n        /* \"#utility.yul\":4339:4346   */\n      0x00\n        /* \"#utility.yul\":4379:4421   */\n      0xffffffffffffffffffffffffffffffffffffffff\n        /* \"#utility.yul\":4372:4377   */\n      dup3\n        /* \"#utility.yul\":4368:4422   */\n      and\n        /* \"#utility.yul\":4357:4422   */\n      swap1\n      pop\n        /* \"#utility.yul\":4302:4428   */\n      swap2\n      swap1\n      pop\n      jump\t// out\n        /* \"#utility.yul\":4434:4530   */\n    tag_229:\n        /* \"#utility.yul\":4471:4478   */\n      0x00\n        /* \"#utility.yul\":4500:4524   */\n      tag_329\n        /* \"#utility.yul\":4518:4523   */\n      dup3\n        /* \"#utility.yul\":4500:4524   */\n      tag_228\n      jump\t// in\n    tag_329:\n        /* \"#utility.yul\":4489:4524   */\n      swap1\n      pop\n        /* \"#utility.yul\":4434:4530   */\n      swap2\n      swap1\n      pop\n      jump\t// out\n        /* \"#utility.yul\":4536:4658   */\n    tag_230:\n        /* \"#utility.yul\":4609:4633   */\n      tag_331\n        /* \"#utility.yul\":4627:4632   */\n      dup2\n        /* \"#utility.yul\":4609:4633   */\n      tag_229\n      jump\t// in\n    tag_331:\n        /* \"#utility.yul\":4602:4607   */\n      dup2\n        /* \"#utility.yul\":4599:4634   */\n      eq\n        /* \"#utility.yul\":4589:4652   */\n      tag_332\n      jumpi\n        /* \"#utility.yul\":4648:4649   */\n      0x00\n        /* \"#utility.yul\":4645:4646   */\n      dup1\n        /* \"#utility.yul\":4638:4650   */\n      revert\n        /* \"#utility.yul\":4589:4652   */\n    tag_332:\n        /* \"#utility.yul\":4536:4658   */\n      pop\n      jump\t// out\n        /* \"#utility.yul\":4664:4803   */\n    tag_231:\n        /* \"#utility.yul\":4710:4715   */\n      0x00\n        /* \"#utility.yul\":4748:4754   */\n      dup2\n        /* \"#utility.yul\":4735:4755   */\n      calldataload\n        /* \"#utility.yul\":4726:4755   */\n      swap1\n      pop\n        /* \"#utility.yul\":4764:4797   */\n      tag_334\n        /* \"#utility.yul\":4791:4796   */\n      dup2\n        /* \"#utility.yul\":4764:4797   */\n      tag_230\n      jump\t// in\n    tag_334:\n        /* \"#utility.yul\":4664:4803   */\n      swap3\n      swap2\n      pop\n      pop\n      jump\t// out\n        /* \"#utility.yul\":4809:4886   */\n    tag_232:\n        /* \"#utility.yul\":4846:4853   */\n      0x00\n        /* \"#utility.yul\":4875:4880   */\n      dup2\n        /* \"#utility.yul\":4864:4880   */\n      swap1\n      pop\n        /* \"#utility.yul\":4809:4886   */\n      swap2\n      swap1\n      pop\n      jump\t// out\n        /* \"#utility.yul\":4892:5014   */\n    tag_233:\n        /* \"#utility.yul\":4965:4989   */\n      tag_337\n        /* \"#utility.yul\":4983:4988   */\n      dup2\n        /* \"#utility.yul\":4965:4989   */\n      tag_232\n      jump\t// in\n    tag_337:\n        /* \"#utility.yul\":4958:4963   */\n      dup2\n        /* \"#utility.yul\":4955:4990   */\n      eq\n        /* \"#utility.yul\":4945:5008   */\n      tag_338\n      jumpi\n        /* \"#utility.yul\":5004:5005   */\n      0x00\n        /* \"#utility.yul\":5001:5002   */\n      dup1\n        /* \"#utility.yul\":4994:5006   */\n      revert\n        /* \"#utility.yul\":4945:5008   */\n    tag_338:\n        /* \"#utility.yul\":4892:5014   */\n      pop\n      jump\t// out\n        /* \"#utility.yul\":5020:5159   */\n    tag_234:\n        /* \"#utility.yul\":5066:5071   */\n      0x00\n        /* \"#utility.yul\":5104:5110   */\n      dup2\n        /* \"#utility.yul\":5091:5111   */\n      calldataload\n        /* \"#utility.yul\":5082:5111   */\n      swap1\n      pop\n        /* \"#utility.yul\":5120:5153   */\n      tag_340\n        /* \"#utility.yul\":5147:5152   */\n      dup2\n        /* \"#utility.yul\":5120:5153   */\n      tag_233\n      jump\t// in\n    tag_340:\n        /* \"#utility.yul\":5020:5159   */\n      swap3\n      swap2\n      pop\n      pop\n      jump\t// out\n        /* \"#utility.yul\":5165:5639   */\n    tag_33:\n        /* \"#utility.yul\":5233:5239   */\n      0x00\n        /* \"#utility.yul\":5241:5247   */\n      dup1\n        /* \"#utility.yul\":5290:5292   */\n      0x40\n        /* \"#utility.yul\":5278:5287   */\n      dup4\n        /* \"#utility.yul\":5269:5276   */\n      dup6\n        /* \"#utility.yul\":5265:5288   */\n      sub\n        /* \"#utility.yul\":5261:5293   */\n      slt\n        /* \"#utility.yul\":5258:5377   */\n      iszero\n      tag_342\n      jumpi\n        /* \"#utility.yul\":5296:5375   */\n      tag_343\n      tag_212\n      jump\t// in\n    tag_343:\n        /* \"#utility.yul\":5258:5377   */\n    tag_342:\n        /* \"#utility.yul\":5416:5417   */\n      0x00\n        /* \"#utility.yul\":5441:5494   */\n      tag_344\n        /* \"#utility.yul\":5486:5493   */\n      dup6\n        /* \"#utility.yul\":5477:5483   */\n      dup3\n        /* \"#utility.yul\":5466:5475   */\n      dup7\n        /* \"#utility.yul\":5462:5484   */\n      add\n        /* \"#utility.yul\":5441:5494   */\n      tag_231\n      jump\t// in\n    tag_344:\n        /* \"#utility.yul\":5431:5494   */\n      swap3\n      pop\n        /* \"#utility.yul\":5387:5504   */\n      pop\n        /* \"#utility.yul\":5543:5545   */\n      0x20\n        /* \"#utility.yul\":5569:5622   */\n      tag_345\n        /* \"#utility.yul\":5614:5621   */\n      dup6\n        /* \"#utility.yul\":5605:5611   */\n      dup3\n        /* \"#utility.yul\":5594:5603   */\n      dup7\n        /* \"#utility.yul\":5590:5612   */\n      add\n        /* \"#utility.yul\":5569:5622   */\n      tag_234\n      jump\t// in\n    tag_345:\n        /* \"#utility.yul\":5559:5622   */\n      swap2\n      pop\n        /* \"#utility.yul\":5514:5632   */\n      pop\n        /* \"#utility.yul\":5165:5639   */\n      swap3\n      pop\n      swap3\n      swap1\n      pop\n      jump\t// out\n        /* \"#utility.yul\":5645:5735   */\n    tag_235:\n        /* \"#utility.yul\":5679:5686   */\n      0x00\n        /* \"#utility.yul\":5722:5727   */\n      dup2\n        /* \"#utility.yul\":5715:5728   */\n      iszero\n        /* \"#utility.yul\":5708:5729   */\n      iszero\n        /* \"#utility.yul\":5697:5729   */\n      swap1\n      pop\n        /* \"#utility.yul\":5645:5735   */\n      swap2\n      swap1\n      pop\n      jump\t// out\n        /* \"#utility.yul\":5741:5850   */\n    tag_236:\n        /* \"#utility.yul\":5822:5843   */\n      tag_348\n        /* \"#utility.yul\":5837:5842   */\n      dup2\n        /* \"#utility.yul\":5822:5843   */\n      tag_235\n      jump\t// in\n    tag_348:\n        /* \"#utility.yul\":5817:5820   */\n      dup3\n        /* \"#utility.yul\":5810:5844   */\n      mstore\n        /* \"#utility.yul\":5741:5850   */\n      pop\n      pop\n      jump\t// out\n        /* \"#utility.yul\":5856:6066   */\n    tag_36:\n        /* \"#utility.yul\":5943:5947   */\n      0x00\n        /* \"#utility.yul\":5981:5983   */\n      0x20\n        /* \"#utility.yul\":5970:5979   */\n      dup3\n        /* \"#utility.yul\":5966:5984   */\n      add\n        /* \"#utility.yul\":5958:5984   */\n      swap1\n      pop\n        /* \"#utility.yul\":5994:6059   */\n      tag_350\n        /* \"#utility.yul\":6056:6057   */\n      0x00\n        /* \"#utility.yul\":6045:6054   */\n      dup4\n        /* \"#utility.yul\":6041:6058   */\n      add\n        /* \"#utility.yul\":6032:6038   */\n      dup5\n        /* \"#utility.yul\":5994:6059   */\n      tag_236\n      jump\t// in\n    tag_350:\n        /* \"#utility.yul\":5856:6066   */\n      swap3\n      swap2\n      pop\n      pop\n      jump\t// out\n        /* \"#utility.yul\":6072:6190   */\n    tag_237:\n        /* \"#utility.yul\":6159:6183   */\n      tag_352\n        /* \"#utility.yul\":6177:6182   */\n      dup2\n        /* \"#utility.yul\":6159:6183   */\n      tag_232\n      jump\t// in\n    tag_352:\n        /* \"#utility.yul\":6154:6157   */\n      dup3\n        /* \"#utility.yul\":6147:6184   */\n      mstore\n        /* \"#utility.yul\":6072:6190   */\n      pop\n      pop\n      jump\t// out\n        /* \"#utility.yul\":6196:6418   */\n    tag_40:\n        /* \"#utility.yul\":6289:6293   */\n      0x00\n        /* \"#utility.yul\":6327:6329   */\n      0x20\n        /* \"#utility.yul\":6316:6325   */\n      dup3\n        /* \"#utility.yul\":6312:6330   */\n      add\n        /* \"#utility.yul\":6304:6330   */\n      swap1\n      pop\n        /* \"#utility.yul\":6340:6411   */\n      tag_354\n        /* \"#utility.yul\":6408:6409   */\n      0x00\n        /* \"#utility.yul\":6397:6406   */\n      dup4\n        /* \"#utility.yul\":6393:6410   */\n      add\n        /* \"#utility.yul\":6384:6390   */\n      dup5\n        /* \"#utility.yul\":6340:6411   */\n      tag_237\n      jump\t// in\n    tag_354:\n        /* \"#utility.yul\":6196:6418   */\n      swap3\n      swap2\n      pop\n      pop\n      jump\t// out\n        /* \"#utility.yul\":6424:7043   */\n    tag_43:\n        /* \"#utility.yul\":6501:6507   */\n      0x00\n        /* \"#utility.yul\":6509:6515   */\n      dup1\n        /* \"#utility.yul\":6517:6523   */\n      0x00\n        /* \"#utility.yul\":6566:6568   */\n      0x60\n        /* \"#utility.yul\":6554:6563   */\n      dup5\n        /* \"#utility.yul\":6545:6552   */\n      dup7\n        /* \"#utility.yul\":6541:6564   */\n      sub\n        /* \"#utility.yul\":6537:6569   */\n      slt\n        /* \"#utility.yul\":6534:6653   */\n      iszero\n      tag_356\n      jumpi\n        /* \"#utility.yul\":6572:6651   */\n      tag_357\n      tag_212\n      jump\t// in\n    tag_357:\n        /* \"#utility.yul\":6534:6653   */\n    tag_356:\n        /* \"#utility.yul\":6692:6693   */\n      0x00\n        /* \"#utility.yul\":6717:6770   */\n      tag_358\n        /* \"#utility.yul\":6762:6769   */\n      dup7\n        /* \"#utility.yul\":6753:6759   */\n      dup3\n        /* \"#utility.yul\":6742:6751   */\n      dup8\n        /* \"#utility.yul\":6738:6760   */\n      add\n        /* \"#utility.yul\":6717:6770   */\n      tag_231\n      jump\t// in\n    tag_358:\n        /* \"#utility.yul\":6707:6770   */\n      swap4\n      pop\n        /* \"#utility.yul\":6663:6780   */\n      pop\n        /* \"#utility.yul\":6819:6821   */\n      0x20\n        /* \"#utility.yul\":6845:6898   */\n      tag_359\n        /* \"#utility.yul\":6890:6897   */\n      dup7\n        /* \"#utility.yul\":6881:6887   */\n      dup3\n        /* \"#utility.yul\":6870:6879   */\n      dup8\n        /* \"#utility.yul\":6866:6888   */\n      add\n        /* \"#utility.yul\":6845:6898   */\n      tag_231\n      jump\t// in\n    tag_359:\n        /* \"#utility.yul\":6835:6898   */\n      swap3\n      pop\n        /* \"#utility.yul\":6790:6908   */\n      pop\n        /* \"#utility.yul\":6947:6949   */\n      0x40\n        /* \"#utility.yul\":6973:7026   */\n      tag_360\n        /* \"#utility.yul\":7018:7025   */\n      dup7\n        /* \"#utility.yul\":7009:7015   */\n      dup3\n        /* \"#utility.yul\":6998:7007   */\n      dup8\n        /* \"#utility.yul\":6994:7016   */\n      add\n        /* \"#utility.yul\":6973:7026   */\n      tag_234\n      jump\t// in\n    tag_360:\n        /* \"#utility.yul\":6963:7026   */\n      swap2\n      pop\n        /* \"#utility.yul\":6918:7036   */\n      pop\n        /* \"#utility.yul\":6424:7043   */\n      swap3\n      pop\n      swap3\n      pop\n      swap3\n      jump\t// out\n        /* \"#utility.yul\":7049:7135   */\n    tag_238:\n        /* \"#utility.yul\":7084:7091   */\n      0x00\n        /* \"#utility.yul\":7124:7128   */\n      0xff\n        /* \"#utility.yul\":7117:7122   */\n      dup3\n        /* \"#utility.yul\":7113:7129   */\n      and\n        /* \"#utility.yul\":7102:7129   */\n      swap1\n      pop\n        /* \"#utility.yul\":7049:7135   */\n      swap2\n      swap1\n      pop\n      jump\t// out\n        /* \"#utility.yul\":7141:7253   */\n    tag_239:\n        /* \"#utility.yul\":7224:7246   */\n      tag_363\n        /* \"#utility.yul\":7240:7245   */\n      dup2\n        /* \"#utility.yul\":7224:7246   */\n      tag_238\n      jump\t// in\n    tag_363:\n        /* \"#utility.yul\":7219:7222   */\n      dup3\n        /* \"#utility.yul\":7212:7247   */\n      mstore\n        /* \"#utility.yul\":7141:7253   */\n      pop\n      pop\n      jump\t// out\n        /* \"#utility.yul\":7259:7473   */\n    tag_49:\n        /* \"#utility.yul\":7348:7352   */\n      0x00\n        /* \"#utility.yul\":7386:7388   */\n      0x20\n        /* \"#utility.yul\":7375:7384   */\n      dup3\n        /* \"#utility.yul\":7371:7389   */\n      add\n        /* \"#utility.yul\":7363:7389   */\n      swap1\n      pop\n        /* \"#utility.yul\":7399:7466   */\n      tag_365\n        /* \"#utility.yul\":7463:7464   */\n      0x00\n        /* \"#utility.yul\":7452:7461   */\n      dup4\n        /* \"#utility.yul\":7448:7465   */\n      add\n        /* \"#utility.yul\":7439:7445   */\n      dup5\n        /* \"#utility.yul\":7399:7466   */\n      tag_239\n      jump\t// in\n    tag_365:\n        /* \"#utility.yul\":7259:7473   */\n      swap3\n      swap2\n      pop\n      pop\n      jump\t// out\n        /* \"#utility.yul\":7479:7808   */\n    tag_59:\n        /* \"#utility.yul\":7538:7544   */\n      0x00\n        /* \"#utility.yul\":7587:7589   */\n      0x20\n        /* \"#utility.yul\":7575:7584   */\n      dup3\n        /* \"#utility.yul\":7566:7573   */\n      dup5\n        /* \"#utility.yul\":7562:7585   */\n      sub\n        /* \"#utility.yul\":7558:7590   */\n      slt\n        /* \"#utility.yul\":7555:7674   */\n      iszero\n      tag_367\n      jumpi\n        /* \"#utility.yul\":7593:7672   */\n      tag_368\n      tag_212\n      jump\t// in\n    tag_368:\n        /* \"#utility.yul\":7555:7674   */\n    tag_367:\n        /* \"#utility.yul\":7713:7714   */\n      0x00\n        /* \"#utility.yul\":7738:7791   */\n      tag_369\n        /* \"#utility.yul\":7783:7790   */\n      dup5\n        /* \"#utility.yul\":7774:7780   */\n      dup3\n        /* \"#utility.yul\":7763:7772   */\n      dup6\n        /* \"#utility.yul\":7759:7781   */\n      add\n        /* \"#utility.yul\":7738:7791   */\n      tag_231\n      jump\t// in\n    tag_369:\n        /* \"#utility.yul\":7728:7791   */\n      swap2\n      pop\n        /* \"#utility.yul\":7684:7801   */\n      pop\n        /* \"#utility.yul\":7479:7808   */\n      swap3\n      swap2\n      pop\n      pop\n      jump\t// out\n        /* \"#utility.yul\":7814:7932   */\n    tag_240:\n        /* \"#utility.yul\":7901:7925   */\n      tag_371\n        /* \"#utility.yul\":7919:7924   */\n      dup2\n        /* \"#utility.yul\":7901:7925   */\n      tag_229\n      jump\t// in\n    tag_371:\n        /* \"#utility.yul\":7896:7899   */\n      dup3\n        /* \"#utility.yul\":7889:7926   */\n      mstore\n        /* \"#utility.yul\":7814:7932   */\n      pop\n      pop\n      jump\t// out\n        /* \"#utility.yul\":7938:8160   */\n    tag_67:\n        /* \"#utility.yul\":8031:8035   */\n      0x00\n        /* \"#utility.yul\":8069:8071   */\n      0x20\n        /* \"#utility.yul\":8058:8067   */\n      dup3\n        /* \"#utility.yul\":8054:8072   */\n      add\n        /* \"#utility.yul\":8046:8072   */\n      swap1\n      pop\n        /* \"#utility.yul\":8082:8153   */\n      tag_373\n        /* \"#utility.yul\":8150:8151   */\n      0x00\n        /* \"#utility.yul\":8139:8148   */\n      dup4\n        /* \"#utility.yul\":8135:8152   */\n      add\n        /* \"#utility.yul\":8126:8132   */\n      dup5\n        /* \"#utility.yul\":8082:8153   */\n      tag_240\n      jump\t// in\n    tag_373:\n        /* \"#utility.yul\":7938:8160   */\n      swap3\n      swap2\n      pop\n      pop\n      jump\t// out\n        /* \"#utility.yul\":8166:8640   */\n    tag_81:\n        /* \"#utility.yul\":8234:8240   */\n      0x00\n        /* \"#utility.yul\":8242:8248   */\n      dup1\n        /* \"#utility.yul\":8291:8293   */\n      0x40\n        /* \"#utility.yul\":8279:8288   */\n      dup4\n        /* \"#utility.yul\":8270:8277   */\n      dup6\n        /* \"#utility.yul\":8266:8289   */\n      sub\n        /* \"#utility.yul\":8262:8294   */\n      slt\n        /* \"#utility.yul\":8259:8378   */\n      iszero\n      tag_375\n      jumpi\n        /* \"#utility.yul\":8297:8376   */\n      tag_376\n      tag_212\n      jump\t// in\n    tag_376:\n        /* \"#utility.yul\":8259:8378   */\n    tag_375:\n        /* \"#utility.yul\":8417:8418   */\n      0x00\n        /* \"#utility.yul\":8442:8495   */\n      tag_377\n        /* \"#utility.yul\":8487:8494   */\n      dup6\n        /* \"#utility.yul\":8478:8484   */\n      dup3\n        /* \"#utility.yul\":8467:8476   */\n      dup7\n        /* \"#utility.yul\":8463:8485   */\n      add\n        /* \"#utility.yul\":8442:8495   */\n      tag_231\n      jump\t// in\n    tag_377:\n        /* \"#utility.yul\":8432:8495   */\n      swap3\n      pop\n        /* \"#utility.yul\":8388:8505   */\n      pop\n        /* \"#utility.yul\":8544:8546   */\n      0x20\n        /* \"#utility.yul\":8570:8623   */\n      tag_378\n        /* \"#utility.yul\":8615:8622   */\n      dup6\n        /* \"#utility.yul\":8606:8612   */\n      dup3\n        /* \"#utility.yul\":8595:8604   */\n      dup7\n        /* \"#utility.yul\":8591:8613   */\n      add\n        /* \"#utility.yul\":8570:8623   */\n      tag_231\n      jump\t// in\n    tag_378:\n        /* \"#utility.yul\":8560:8623   */\n      swap2\n      pop\n        /* \"#utility.yul\":8515:8633   */\n      pop\n        /* \"#utility.yul\":8166:8640   */\n      swap3\n      pop\n      swap3\n      swap1\n      pop\n      jump\t// out\n        /* \"#utility.yul\":8646:8826   */\n    tag_241:\n        /* \"#utility.yul\":8694:8771   */\n      0x4e487b7100000000000000000000000000000000000000000000000000000000\n        /* \"#utility.yul\":8691:8692   */\n      0x00\n        /* \"#utility.yul\":8684:8772   */\n      mstore\n        /* \"#utility.yul\":8791:8795   */\n      0x22\n        /* \"#utility.yul\":8788:8789   */\n      0x04\n        /* \"#utility.yul\":8781:8796   */\n      mstore\n        /* \"#utility.yul\":8815:8819   */\n      0x24\n        /* \"#utility.yul\":8812:8813   */\n      0x00\n        /* \"#utility.yul\":8805:8820   */\n      revert\n        /* \"#utility.yul\":8832:9152   */\n    tag_98:\n        /* \"#utility.yul\":8876:8882   */\n      0x00\n        /* \"#utility.yul\":8913:8914   */\n      0x02\n        /* \"#utility.yul\":8907:8911   */\n      dup3\n        /* \"#utility.yul\":8903:8915   */\n      div\n        /* \"#utility.yul\":8893:8915   */\n      swap1\n      pop\n        /* \"#utility.yul\":8960:8961   */\n      0x01\n        /* \"#utility.yul\":8954:8958   */\n      dup3\n        /* \"#utility.yul\":8950:8962   */\n      and\n        /* \"#utility.yul\":8981:8999   */\n      dup1\n        /* \"#utility.yul\":8971:9052   */\n      tag_381\n      jumpi\n        /* \"#utility.yul\":9037:9041   */\n      0x7f\n        /* \"#utility.yul\":9029:9035   */\n      dup3\n        /* \"#utility.yul\":9025:9042   */\n      and\n        /* \"#utility.yul\":9015:9042   */\n      swap2\n      pop\n        /* \"#utility.yul\":8971:9052   */\n    tag_381:\n        /* \"#utility.yul\":9099:9101   */\n      0x20\n        /* \"#utility.yul\":9091:9097   */\n      dup3\n        /* \"#utility.yul\":9088:9102   */\n      lt\n        /* \"#utility.yul\":9068:9086   */\n      dup2\n        /* \"#utility.yul\":9065:9103   */\n      sub\n        /* \"#utility.yul\":9062:9146   */\n      tag_382\n      jumpi\n        /* \"#utility.yul\":9118:9136   */\n      tag_383\n      tag_241\n      jump\t// in\n    tag_383:\n        /* \"#utility.yul\":9062:9146   */\n    tag_382:\n        /* \"#utility.yul\":8883:9152   */\n      pop\n        /* \"#utility.yul\":8832:9152   */\n      swap2\n      swap1\n      pop\n      jump\t// out\n        /* \"#utility.yul\":9158:9299   */\n    tag_242:\n        /* \"#utility.yul\":9207:9211   */\n      0x00\n        /* \"#utility.yul\":9230:9233   */\n      dup2\n        /* \"#utility.yul\":9222:9233   */\n      swap1\n      pop\n        /* \"#utility.yul\":9253:9256   */\n      dup2\n        /* \"#utility.yul\":9250:9251   */\n      0x00\n        /* \"#utility.yul\":9243:9257   */\n      mstore\n        /* \"#utility.yul\":9287:9291   */\n      0x20\n        /* \"#utility.yul\":9284:9285   */\n      0x00\n        /* \"#utility.yul\":9274:9292   */\n      keccak256\n        /* \"#utility.yul\":9266:9292   */\n      swap1\n      pop\n        /* \"#utility.yul\":9158:9299   */\n      swap2\n      swap1\n      pop\n      jump\t// out\n        /* \"#utility.yul\":9305:9398   */\n    tag_243:\n        /* \"#utility.yul\":9342:9348   */\n      0x00\n        /* \"#utility.yul\":9389:9391   */\n      0x20\n        /* \"#utility.yul\":9384:9386   */\n      0x1f\n        /* \"#utility.yul\":9377:9382   */\n      dup4\n        /* \"#utility.yul\":9373:9387   */\n      add\n        /* \"#utility.yul\":9369:9392   */\n      div\n        /* \"#utility.yul\":9359:9392   */\n      swap1\n      pop\n        /* \"#utility.yul\":9305:9398   */\n      swap2\n      swap1\n      pop\n      jump\t// out\n        /* \"#utility.yul\":9404:9511   */\n    tag_244:\n        /* \"#utility.yul\":9448:9456   */\n      0x00\n        /* \"#utility.yul\":9498:9503   */\n      dup3\n        /* \"#utility.yul\":9492:9496   */\n      dup3\n        /* \"#utility.yul\":9488:9504   */\n      shl\n        /* \"#utility.yul\":9467:9504   */\n      swap1\n      pop\n        /* \"#utility.yul\":9404:9511   */\n      swap3\n      swap2\n      pop\n      pop\n      jump\t// out\n        /* \"#utility.yul\":9517:9910   */\n    tag_245:\n        /* \"#utility.yul\":9586:9592   */\n      0x00\n        /* \"#utility.yul\":9636:9637   */\n      0x08\n        /* \"#utility.yul\":9624:9634   */\n      dup4\n        /* \"#utility.yul\":9620:9638   */\n      mul\n        /* \"#utility.yul\":9659:9756   */\n      tag_388\n        /* \"#utility.yul\":9689:9755   */\n      0xffffffffffffffffffffffffffffffffffffffffffffffffffffffffffffffff\n        /* \"#utility.yul\":9678:9687   */\n      dup3\n        /* \"#utility.yul\":9659:9756   */\n      tag_244\n      jump\t// in\n    tag_388:\n        /* \"#utility.yul\":9777:9816   */\n      tag_389\n        /* \"#utility.yul\":9807:9815   */\n      dup7\n        /* \"#utility.yul\":9796:9805   */\n      dup4\n        /* \"#utility.yul\":9777:9816   */\n      tag_244\n      jump\t// in\n    tag_389:\n        /* \"#utility.yul\":9765:9816   */\n      swap6\n      pop\n        /* \"#utility.yul\":9849:9853   */\n      dup1\n        /* \"#utility.yul\":9845:9854   */\n      not\n        /* \"#utility.yul\":9838:9843   */\n      dup5\n        /* \"#utility.yul\":9834:9855   */\n      and\n        /* \"#utility.yul\":9825:9855   */\n      swap4\n      pop\n        /* \"#utility.yul\":9898:9902   */\n      dup1\n        /* \"#utility.yul\":9888:9896   */\n      dup7\n        /* \"#utility.yul\":9884:9903   */\n      and\n        /* \"#utility.yul\":9877:9882   */\n      dup5\n        /* \"#utility.yul\":9874:9904   */\n      or\n        /* \"#utility.yul\":9864:9904   */\n      swap3\n      pop\n        /* \"#utility.yul\":9593:9910   */\n      pop\n      pop\n        /* \"#utility.yul\":9517:9910   */\n      swap4\n      swap3\n      pop\n      pop\n      pop\n      jump\t// out\n        /* \"#utility.yul\":9916:9976   */\n    tag_246:\n        /* \"#utility.yul\":9944:9947   */\n      0x00\n        /* \"#utility.yul\":9965:9970   */\n      dup2\n        /* \"#utility.yul\":9958:9970   */\n      swap1\n      pop\n        /* \"#utility.yul\":9916:9976   */\n      swap2\n      swap1\n      pop\n      jump\t// out\n        /* \"#utility.yul\":9982:10124   */\n    tag_247:\n        /* \"#utility.yul\":10032:10041   */\n      0x00\n        /* \"#utility.yul\":10065:10118   */\n      tag_392\n        /* \"#utility.yul\":10083:10117   */\n      tag_393\n        /* \"#utility.yul\":10092:10116   */\n      tag_394\n        /* \"#utility.yul\":10110:10115   */\n      dup5\n        /* \"#utility.yul\":10092:10116   */\n      tag_232\n      jump\t// in\n    tag_394:\n        /* \"#utility.yul\":10083:10117   */\n      tag_246\n      jump\t// in\n    tag_393:\n        /* \"#utility.yul\":10065:10118   */\n      tag_232\n      jump\t// in\n    tag_392:\n        /* \"#utility.yul\":10052:10118   */\n      swap1\n      pop\n        /* \"#utility.yul\":9982:10124   */\n      swap2\n      swap1\n      pop\n      jump\t// out\n        /* \"#utility.yul\":10130:10205   */\n    tag_248:\n        /* \"#utility.yul\":10173:10176   */\n      0x00\n        /* \"#utility.yul\":10194:10199   */\n      dup2\n        /* \"#utility.yul\":10187:10199   */\n      swap1\n      pop\n        /* \"#utility.yul\":10130:10205   */\n      swap2\n      swap1\n      pop\n      jump\t// out\n        /* \"#utility.yul\":10211:10480   */\n    tag_249:\n        /* \"#utility.yul\":10321:10360   */\n      tag_397\n        /* \"#utility.yul\":10352:10359   */\n      dup4\n        /* \"#utility.yul\":10321:10360   */\n      tag_247\n      jump\t// in\n    tag_397:\n        /* \"#utility.yul\":10382:10473   */\n      tag_398\n        /* \"#utility.yul\":10431:10472   */\n      tag_399\n        /* \"#utility.yul\":10455:10471   */\n      dup3\n        /* \"#utility.yul\":10431:10472   */\n      tag_248\n      jump\t// in\n    tag_399:\n        /* \"#utility.yul\":10423:10429   */\n      dup5\n        /* \"#utility.yul\":10416:10420   */\n      dup5\n        /* \"#utility.yul\":10410:10421   */\n      sload\n        /* \"#utility.yul\":10382:10473   */\n      tag_245\n      jump\t// in\n    tag_398:\n        /* \"#utility.yul\":10376:10380   */\n      dup3\n        /* \"#utility.yul\":10369:10474   */\n      sstore\n        /* \"#utility.yul\":10287:10480   */\n      pop\n        /* \"#utility.yul\":10211:10480   */\n      pop\n      pop\n      pop\n      jump\t// out\n        /* \"#utility.yul\":10486:10559   */\n    tag_250:\n        /* \"#utility.yul\":10531:10534   */\n      0x00\n        /* \"#utility.yul\":10486:10559   */\n      swap1\n      jump\t// out\n        /* \"#utility.yul\":10565:10754   */\n    tag_251:\n        /* \"#utility.yul\":10642:10674   */\n      tag_402\n      tag_250\n      jump\t// in\n    tag_402:\n        /* \"#utility.yul\":10683:10748   */\n      tag_403\n        /* \"#utility.yul\":10741:10747   */\n      dup2\n        /* \"#utility.yul\":10733:10739   */\n      dup5\n        /* \"#utility.yul\":10727:10731   */\n      dup5\n        /* \"#utility.yul\":10683:10748   */\n      tag_249\n      jump\t// in\n    tag_403:\n        /* \"#utility.yul\":10618:10754   */\n      pop\n        /* \"#utility.yul\":10565:10754   */\n      pop\n      pop\n      jump\t// out\n        /* \"#utility.yul\":10760:10946   */\n    tag_252:\n        /* \"#utility.yul\":10820:10940   */\n    tag_405:\n        /* \"#utility.yul\":10837:10840   */\n      dup2\n        /* \"#utility.yul\":10830:10835   */\n      dup2\n        /* \"#utility.yul\":10827:10841   */\n      lt\n        /* \"#utility.yul\":10820:10940   */\n      iszero\n      tag_407\n      jumpi\n        /* \"#utility.yul\":10891:10930   */\n      tag_408\n        /* \"#utility.yul\":10928:10929   */\n      0x00\n        /* \"#utility.yul\":10921:10926   */\n      dup3\n        /* \"#utility.yul\":10891:10930   */\n      tag_251\n      jump\t// in\n    tag_408:\n        /* \"#utility.yul\":10864:10865   */\n      0x01\n        /* \"#utility.yul\":10857:10862   */\n      dup2\n        /* \"#utility.yul\":10853:10866   */\n      add\n        /* \"#utility.yul\":10844:10866   */\n      swap1\n      pop\n        /* \"#utility.yul\":10820:10940   */\n      jump(tag_405)\n    tag_407:\n        /* \"#utility.yul\":10760:10946   */\n      pop\n      pop\n      jump\t// out\n        /* \"#utility.yul\":10952:11495   */\n    tag_253:\n        /* \"#utility.yul\":11053:11055   */\n      0x1f\n        /* \"#utility.yul\":11048:11051   */\n      dup3\n        /* \"#utility.yul\":11045:11056   */\n      gt\n        /* \"#utility.yul\":11042:11488   */\n      iszero\n      tag_410\n      jumpi\n        /* \"#utility.yul\":11087:11125   */\n      tag_411\n        /* \"#utility.yul\":11119:11124   */\n      dup2\n        /* \"#utility.yul\":11087:11125   */\n      tag_242\n      jump\t// in\n    tag_411:\n        /* \"#utility.yul\":11171:11200   */\n      tag_412\n        /* \"#utility.yul\":11189:11199   */\n      dup5\n        /* \"#utility.yul\":11171:11200   */\n      tag_243\n      jump\t// in\n    tag_412:\n        /* \"#utility.yul\":11161:11169   */\n      dup2\n        /* \"#utility.yul\":11157:11201   */\n      add\n        /* \"#utility.yul\":11354:11356   */\n      0x20\n        /* \"#utility.yul\":11342:11352   */\n      dup6\n        /* \"#utility.yul\":11339:11357   */\n      lt\n        /* \"#utility.yul\":11336:11385   */\n      iszero\n      tag_413\n      jumpi\n        /* \"#utility.yul\":11375:11383   */\n      dup2\n        /* \"#utility.yul\":11360:11383   */\n      swap1\n      pop\n        /* \"#utility.yul\":11336:11385   */\n    tag_413:\n        /* \"#utility.yul\":11398:11478   */\n      tag_414\n        /* \"#utility.yul\":11454:11476   */\n      tag_415\n        /* \"#utility.yul\":11472:11475   */\n      dup6\n        /* \"#utility.yul\":11454:11476   */\n      tag_243\n      jump\t// in\n    tag_415:\n        /* \"#utility.yul\":11444:11452   */\n      dup4\n        /* \"#utility.yul\":11440:11477   */\n      add\n        /* \"#utility.yul\":11427:11438   */\n      dup3\n        /* \"#utility.yul\":11398:11478   */\n      tag_252\n      jump\t// in\n    tag_414:\n        /* \"#utility.yul\":11057:11488   */\n      pop\n      pop\n        /* \"#utility.yul\":11042:11488   */\n    tag_410:\n        /* \"#utility.yul\":10952:11495   */\n      pop\n      pop\n      pop\n      jump\t// out\n        /* \"#utility.yul\":11501:11618   */\n    tag_254:\n        /* \"#utility.yul\":11555:11563   */\n      0x00\n        /* \"#utility.yul\":11605:11610   */\n      dup3\n        /* \"#utility.yul\":11599:11603   */\n      dup3\n        /* \"#utility.yul\":11595:11611   */\n      shr\n        /* \"#utility.yul\":11574:11611   */\n      swap1\n      pop\n        /* \"#utility.yul\":11501:11618   */\n      swap3\n      swap2\n      pop\n      pop\n      jump\t// out\n        /* \"#utility.yul\":11624:11793   */\n    tag_255:\n        /* \"#utility.yul\":11668:11674   */\n      0x00\n        /* \"#utility.yul\":11701:11752   */\n      tag_418\n        /* \"#utility.yul\":11749:11750   */\n      0x00\n        /* \"#utility.yul\":11745:11751   */\n      not\n        /* \"#utility.yul\":11737:11742   */\n      dup5\n        /* \"#utility.yul\":11734:11735   */\n      0x08\n        /* \"#utility.yul\":11730:11743   */\n      mul\n        /* \"#utility.yul\":11701:11752   */\n      tag_254\n      jump\t// in\n    tag_418:\n        /* \"#utility.yul\":11697:11753   */\n      not\n        /* \"#utility.yul\":11782:11786   */\n      dup1\n        /* \"#utility.yul\":11776:11780   */\n      dup4\n        /* \"#utility.yul\":11772:11787   */\n      and\n        /* \"#utility.yul\":11762:11787   */\n      swap2\n      pop\n        /* \"#utility.yul\":11675:11793   */\n      pop\n        /* \"#utility.yul\":11624:11793   */\n      swap3\n      swap2\n      pop\n      pop\n      jump\t// out\n        /* \"#utility.yul\":11798:12093   */\n    tag_256:\n        /* \"#utility.yul\":11874:11878   */\n      0x00\n        /* \"#utility.yul\":12020:12049   */\n      tag_420\n        /* \"#utility.yul\":12045:12048   */\n      dup4\n        /* \"#utility.yul\":12039:12043   */\n      dup4\n        /* \"#utility.yul\":12020:12049   */\n      tag_255\n      jump\t// in\n    tag_420:\n        /* \"#utility.yul\":12012:12049   */\n      swap2\n      pop\n        /* \"#utility.yul\":12082:12085   */\n      dup3\n        /* \"#utility.yul\":12079:12080   */\n      0x02\n        /* \"#utility.yul\":12075:12086   */\n      mul\n        /* \"#utility.yul\":12069:12073   */\n      dup3\n        /* \"#utility.yul\":12066:12087   */\n      or\n        /* \"#utility.yul\":12058:12087   */\n      swap1\n      pop\n        /* \"#utility.yul\":11798:12093   */\n      swap3\n      swap2\n      pop\n      pop\n      jump\t// out\n        /* \"#utility.yul\":12098:13493   */\n    tag_95:\n        /* \"#utility.yul\":12215:12252   */\n      tag_422\n        /* \"#utility.yul\":12248:12251   */\n      dup3\n        /* \"#utility.yul\":12215:12252   */\n      tag_224\n      jump\t// in\n    tag_422:\n        /* \"#utility.yul\":12317:12335   */\n      0xffffffffffffffff\n        /* \"#utility.yul\":12309:12315   */\n      dup2\n        /* \"#utility.yul\":12306:12336   */\n      gt\n        /* \"#utility.yul\":12303:12359   */\n      iszero\n      tag_423\n      jumpi\n        /* \"#utility.yul\":12339:12357   */\n      tag_424\n      tag_217\n      jump\t// in\n    tag_424:\n        /* \"#utility.yul\":12303:12359   */\n    tag_423:\n        /* \"#utility.yul\":12383:12421   */\n      tag_425\n        /* \"#utility.yul\":12415:12419   */\n      dup3\n        /* \"#utility.yul\":12409:12420   */\n      sload\n        /* \"#utility.yul\":12383:12421   */\n      tag_98\n      jump\t// in\n    tag_425:\n        /* \"#utility.yul\":12468:12535   */\n      tag_426\n        /* \"#utility.yul\":12528:12534   */\n      dup3\n        /* \"#utility.yul\":12520:12526   */\n      dup3\n        /* \"#utility.yul\":12514:12518   */\n      dup6\n        /* \"#utility.yul\":12468:12535   */\n      tag_253\n      jump\t// in\n    tag_426:\n        /* \"#utility.yul\":12562:12563   */\n      0x00\n        /* \"#utility.yul\":12586:12590   */\n      0x20\n        /* \"#utility.yul\":12573:12590   */\n      swap1\n      pop\n        /* \"#utility.yul\":12618:12620   */\n      0x1f\n        /* \"#utility.yul\":12610:12616   */\n      dup4\n        /* \"#utility.yul\":12607:12621   */\n      gt\n        /* \"#utility.yul\":12635:12636   */\n      0x01\n        /* \"#utility.yul\":12630:13248   */\n      dup2\n      eq\n      tag_428\n      jumpi\n        /* \"#utility.yul\":13292:13293   */\n      0x00\n        /* \"#utility.yul\":13309:13315   */\n      dup5\n        /* \"#utility.yul\":13306:13383   */\n      iszero\n      tag_429\n      jumpi\n        /* \"#utility.yul\":13358:13367   */\n      dup3\n        /* \"#utility.yul\":13353:13356   */\n      dup8\n        /* \"#utility.yul\":13349:13368   */\n      add\n        /* \"#utility.yul\":13343:13369   */\n      mload\n        /* \"#utility.yul\":13334:13369   */\n      swap1\n      pop\n        /* \"#utility.yul\":13306:13383   */\n    tag_429:\n        /* \"#utility.yul\":13409:13476   */\n      tag_430\n        /* \"#utility.yul\":13469:13475   */\n      dup6\n        /* \"#utility.yul\":13462:13467   */\n      dup3\n        /* \"#utility.yul\":13409:13476   */\n      tag_256\n      jump\t// in\n    tag_430:\n        /* \"#utility.yul\":13403:13407   */\n      dup7\n        /* \"#utility.yul\":13396:13477   */\n      sstore\n        /* \"#utility.yul\":13265:13487   */\n      pop\n        /* \"#utility.yul\":12600:13487   */\n      jump(tag_427)\n        /* \"#utility.yul\":12630:13248   */\n    tag_428:\n        /* \"#utility.yul\":12682:12686   */\n      0x1f\n        /* \"#utility.yul\":12678:12687   */\n      not\n        /* \"#utility.yul\":12670:12676   */\n      dup5\n        /* \"#utility.yul\":12666:12688   */\n      and\n        /* \"#utility.yul\":12716:12753   */\n      tag_431\n        /* \"#utility.yul\":12748:12752   */\n      dup7\n        /* \"#utility.yul\":12716:12753   */\n      tag_242\n      jump\t// in\n    tag_431:\n        /* \"#utility.yul\":12775:12776   */\n      0x00\n        /* \"#utility.yul\":12789:12997   */\n    tag_432:\n        /* \"#utility.yul\":12803:12810   */\n      dup3\n        /* \"#utility.yul\":12800:12801   */\n      dup2\n        /* \"#utility.yul\":12797:12811   */\n      lt\n        /* \"#utility.yul\":12789:12997   */\n      iszero\n      tag_434\n      jumpi\n        /* \"#utility.yul\":12882:12891   */\n      dup5\n        /* \"#utility.yul\":12877:12880   */\n      dup10\n        /* \"#utility.yul\":12873:12892   */\n      add\n        /* \"#utility.yul\":12867:12893   */\n      mload\n        /* \"#utility.yul\":12859:12865   */\n      dup3\n        /* \"#utility.yul\":12852:12894   */\n      sstore\n        /* \"#utility.yul\":12933:12934   */\n      0x01\n        /* \"#utility.yul\":12925:12931   */\n      dup3\n        /* \"#utility.yul\":12921:12935   */\n      add\n        /* \"#utility.yul\":12911:12935   */\n      swap2\n      pop\n        /* \"#utility.yul\":12980:12982   */\n      0x20\n        /* \"#utility.yul\":12969:12978   */\n      dup6\n        /* \"#utility.yul\":12965:12983   */\n      add\n        /* \"#utility.yul\":12952:12983   */\n      swap5\n      pop\n        /* \"#utility.yul\":12826:12830   */\n      0x20\n        /* \"#utility.yul\":12823:12824   */\n      dup2\n        /* \"#utility.yul\":12819:12831   */\n      add\n        /* \"#utility.yul\":12814:12831   */\n      swap1\n      pop\n        /* \"#utility.yul\":12789:12997   */\n      jump(tag_432)\n    tag_434:\n        /* \"#utility.yul\":13025:13031   */\n      dup7\n        /* \"#utility.yul\":13016:13023   */\n      dup4\n        /* \"#utility.yul\":13013:13032   */\n      lt\n        /* \"#utility.yul\":13010:13189   */\n      iszero\n      tag_435\n      jumpi\n        /* \"#utility.yul\":13083:13092   */\n      dup5\n        /* \"#utility.yul\":13078:13081   */\n      dup10\n        /* \"#utility.yul\":13074:13093   */\n      add\n        /* \"#utility.yul\":13068:13094   */\n      mload\n        /* \"#utility.yul\":13126:13174   */\n      tag_436\n        /* \"#utility.yul\":13168:13172   */\n      0x1f\n        /* \"#utility.yul\":13160:13166   */\n      dup10\n        /* \"#utility.yul\":13156:13173   */\n      and\n        /* \"#utility.yul\":13145:13154   */\n      dup3\n        /* \"#utility.yul\":13126:13174   */\n      tag_255\n      jump\t// in\n    tag_436:\n        /* \"#utility.yul\":13118:13124   */\n      dup4\n        /* \"#utility.yul\":13111:13175   */\n      sstore\n        /* \"#utility.yul\":13033:13189   */\n      pop\n        /* \"#utility.yul\":13010:13189   */\n    tag_435:\n        /* \"#utility.yul\":13235:13236   */\n      0x01\n        /* \"#utility.yul\":13231:13232   */\n      0x02\n        /* \"#utility.yul\":13223:13229   */\n      dup9\n        /* \"#utility.yul\":13219:13233   */\n      mul\n        /* \"#utility.yul\":13215:13237   */\n      add\n        /* \"#utility.yul\":13209:13213   */\n      dup9\n        /* \"#utility.yul\":13202:13238   */\n      sstore\n        /* \"#utility.yul\":12637:13248   */\n      pop\n      pop\n      pop\n        /* \"#utility.yul\":12600:13487   */\n    tag_427:\n      pop\n        /* \"#utility.yul\":12190:13493   */\n      pop\n      pop\n      pop\n        /* \"#utility.yul\":12098:13493   */\n      pop\n      pop\n      jump\t// out\n        /* \"#utility.yul\":13499:13679   */\n    tag_257:\n        /* \"#utility.yul\":13547:13624   */\n      0x4e487b7100000000000000000000000000000000000000000000000000000000\n        /* \"#utility.yul\":13544:13545   */\n      0x00\n        /* \"#utility.yul\":13537:13625   */\n      mstore\n        /* \"#utility.yul\":13644:13648   */\n      0x11\n        /* \"#utility.yul\":13641:13642   */\n      0x04\n        /* \"#utility.yul\":13634:13649   */\n      mstore\n        /* \"#utility.yul\":13668:13672   */\n      0x24\n        /* \"#utility.yul\":13665:13666   */\n      0x00\n        /* \"#utility.yul\":13658:13673   */\n      revert\n        /* \"#utility.yul\":13685:13876   */\n    tag_121:\n        /* \"#utility.yul\":13725:13728   */\n      0x00\n        /* \"#utility.yul\":13744:13764   */\n      tag_439\n        /* \"#utility.yul\":13762:13763   */\n      dup3\n        /* \"#utility.yul\":13744:13764   */\n      tag_232\n      jump\t// in\n    tag_439:\n        /* \"#utility.yul\":13739:13764   */\n      swap2\n      pop\n        /* \"#utility.yul\":13778:13798   */\n      tag_440\n        /* \"#utility.yul\":13796:13797   */\n      dup4\n        /* \"#utility.yul\":13778:13798   */\n      tag_232\n      jump\t// in\n    tag_440:\n        /* \"#utility.yul\":13773:13798   */\n      swap3\n      pop\n        /* \"#utility.yul\":13821:13822   */\n      dup3\n        /* \"#utility.yul\":13818:13819   */\n      dup3\n        /* \"#utility.yul\":13814:13823   */\n      add\n        /* \"#utility.yul\":13807:13823   */\n      swap1\n      pop\n        /* \"#utility.yul\":13842:13845   */\n      dup1\n        /* \"#utility.yul\":13839:13840   */\n      dup3\n        /* \"#utility.yul\":13836:13846   */\n      gt\n        /* \"#utility.yul\":13833:13869   */\n      iszero\n      tag_441\n      jumpi\n        /* \"#utility.yul\":13849:13867   */\n      tag_442\n      tag_257\n      jump\t// in\n    tag_442:\n        /* \"#utility.yul\":13833:13869   */\n    tag_441:\n        /* \"#utility.yul\":13685:13876   */\n      swap3\n      swap2\n      pop\n      pop\n      jump\t// out\n        /* \"#utility.yul\":13882:14106   */\n    tag_258:\n        /* \"#utility.yul\":14022:14056   */\n      0x45524332303a2064656372656173656420616c6c6f77616e63652062656c6f77\n        /* \"#utility.yul\":14018:14019   */\n      0x00\n        /* \"#utility.yul\":14010:14016   */\n      dup3\n        /* \"#utility.yul\":14006:14020   */\n      add\n        /* \"#utility.yul\":13999:14057   */\n      mstore\n        /* \"#utility.yul\":14091:14098   */\n      0x207a65726f000000000000000000000000000000000000000000000000000000\n        /* \"#utility.yul\":14086:14088   */\n      0x20\n        /* \"#utility.yul\":14078:14084   */\n      dup3\n        /* \"#utility.yul\":14074:14089   */\n      add\n        /* \"#utility.yul\":14067:14099   */\n      mstore\n        /* \"#utility.yul\":13882:14106   */\n      pop\n      jump\t// out\n        /* \"#utility.yul\":14112:14478   */\n    tag_259:\n        /* \"#utility.yul\":14254:14257   */\n      0x00\n        /* \"#utility.yul\":14275:14342   */\n      tag_445\n        /* \"#utility.yul\":14339:14341   */\n      0x25\n        /* \"#utility.yul\":14334:14337   */\n      dup4\n        /* \"#utility.yul\":14275:14342   */\n      tag_225\n      jump\t// in\n    tag_445:\n        /* \"#utility.yul\":14268:14342   */\n      swap2\n      pop\n        /* \"#utility.yul\":14351:14444   */\n      tag_446\n        /* \"#utility.yul\":14440:14443   */\n      dup3\n        /* \"#utility.yul\":14351:14444   */\n      tag_258\n      jump\t// in\n    tag_446:\n        /* \"#utility.yul\":14469:14471   */\n      0x40\n        /* \"#utility.yul\":14464:14467   */\n      dup3\n        /* \"#utility.yul\":14460:14472   */\n      add\n        /* \"#utility.yul\":14453:14472   */\n      swap1\n      pop\n        /* \"#utility.yul\":14112:14478   */\n      swap2\n      swap1\n      pop\n      jump\t// out\n        /* \"#utility.yul\":14484:14903   */\n    tag_145:\n        /* \"#utility.yul\":14650:14654   */\n      0x00\n        /* \"#utility.yul\":14688:14690   */\n      0x20\n        /* \"#utility.yul\":14677:14686   */\n      dup3\n        /* \"#utility.yul\":14673:14691   */\n      add\n        /* \"#utility.yul\":14665:14691   */\n      swap1\n      pop\n        /* \"#utility.yul\":14737:14746   */\n      dup2\n        /* \"#utility.yul\":14731:14735   */\n      dup2\n        /* \"#utility.yul\":14727:14747   */\n      sub\n        /* \"#utility.yul\":14723:14724   */\n      0x00\n        /* \"#utility.yul\":14712:14721   */\n      dup4\n        /* \"#utility.yul\":14708:14725   */\n      add\n        /* \"#utility.yul\":14701:14748   */\n      mstore\n        /* \"#utility.yul\":14765:14896   */\n      tag_448\n        /* \"#utility.yul\":14891:14895   */\n      dup2\n        /* \"#utility.yul\":14765:14896   */\n      tag_259\n      jump\t// in\n    tag_448:\n        /* \"#utility.yul\":14757:14896   */\n      swap1\n      pop\n        /* \"#utility.yul\":14484:14903   */\n      swap2\n      swap1\n      pop\n      jump\t// out\n        /* \"#utility.yul\":14909:15134   */\n    tag_260:\n        /* \"#utility.yul\":15049:15083   */\n      0x4f776e61626c653a206e6577206f776e657220697320746865207a65726f2061\n        /* \"#utility.yul\":15045:15046   */\n      0x00\n        /* \"#utility.yul\":15037:15043   */\n      dup3\n        /* \"#utility.yul\":15033:15047   */\n      add\n        /* \"#utility.yul\":15026:15084   */\n      mstore\n        /* \"#utility.yul\":15118:15126   */\n      0x6464726573730000000000000000000000000000000000000000000000000000\n        /* \"#utility.yul\":15113:15115   */\n      0x20\n        /* \"#utility.yul\":15105:15111   */\n      dup3\n        /* \"#utility.yul\":15101:15116   */\n      add\n        /* \"#utility.yul\":15094:15127   */\n      mstore\n        /* \"#utility.yul\":14909:15134   */\n      pop\n      jump\t// out\n        /* \"#utility.yul\":15140:15506   */\n    tag_261:\n        /* \"#utility.yul\":15282:15285   */\n      0x00\n        /* \"#utility.yul\":15303:15370   */\n      tag_451\n        /* \"#utility.yul\":15367:15369   */\n      0x26\n        /* \"#utility.yul\":15362:15365   */\n      dup4\n        /* \"#utility.yul\":15303:15370   */\n      tag_225\n      jump\t// in\n    tag_451:\n        /* \"#utility.yul\":15296:15370   */\n      swap2\n      pop\n        /* \"#utility.yul\":15379:15472   */\n      tag_452\n        /* \"#utility.yul\":15468:15471   */\n      dup3\n        /* \"#utility.yul\":15379:15472   */\n      tag_260\n      jump\t// in\n    tag_452:\n        /* \"#utility.yul\":15497:15499   */\n      0x40\n        /* \"#utility.yul\":15492:15495   */\n      dup3\n        /* \"#utility.yul\":15488:15500   */\n      add\n        /* \"#utility.yul\":15481:15500   */\n      swap1\n      pop\n        /* \"#utility.yul\":15140:15506   */\n      swap2\n      swap1\n      pop\n      jump\t// out\n        /* \"#utility.yul\":15512:15931   */\n    tag_161:\n        /* \"#utility.yul\":15678:15682   */\n      0x00\n        /* \"#utility.yul\":15716:15718   */\n      0x20\n        /* \"#utility.yul\":15705:15714   */\n      dup3\n        /* \"#utility.yul\":15701:15719   */\n      add\n        /* \"#utility.yul\":15693:15719   */\n      swap1\n      pop\n        /* \"#utility.yul\":15765:15774   */\n      dup2\n        /* \"#utility.yul\":15759:15763   */\n      dup2\n        /* \"#utility.yul\":15755:15775   */\n      sub\n        /* \"#utility.yul\":15751:15752   */\n      0x00\n        /* \"#utility.yul\":15740:15749   */\n      dup4\n        /* \"#utility.yul\":15736:15753   */\n      add\n        /* \"#utility.yul\":15729:15776   */\n      mstore\n        /* \"#utility.yul\":15793:15924   */\n      tag_454\n        /* \"#utility.yul\":15919:15923   */\n      dup2\n        /* \"#utility.yul\":15793:15924   */\n      tag_261\n      jump\t// in\n    tag_454:\n        /* \"#utility.yul\":15785:15924   */\n      swap1\n      pop\n        /* \"#utility.yul\":15512:15931   */\n      swap2\n      swap1\n      pop\n      jump\t// out\n        /* \"#utility.yul\":15937:16119   */\n    tag_262:\n        /* \"#utility.yul\":16077:16111   */\n      0x4f776e61626c653a2063616c6c6572206973206e6f7420746865206f776e6572\n        /* \"#utility.yul\":16073:16074   */\n      0x00\n        /* \"#utility.yul\":16065:16071   */\n      dup3\n        /* \"#utility.yul\":16061:16075   */\n      add\n        /* \"#utility.yul\":16054:16112   */\n      mstore\n        /* \"#utility.yul\":15937:16119   */\n      pop\n      jump\t// out\n        /* \"#utility.yul\":16125:16491   */\n    tag_263:\n        /* \"#utility.yul\":16267:16270   */\n      0x00\n        /* \"#utility.yul\":16288:16355   */\n      tag_457\n        /* \"#utility.yul\":16352:16354   */\n      0x20\n        /* \"#utility.yul\":16347:16350   */\n      dup4\n        /* \"#utility.yul\":16288:16355   */\n      tag_225\n      jump\t// in\n    tag_457:\n        /* \"#utility.yul\":16281:16355   */\n      swap2\n      pop\n        /* \"#utility.yul\":16364:16457   */\n      tag_458\n        /* \"#utility.yul\":16453:16456   */\n      dup3\n        /* \"#utility.yul\":16364:16457   */\n      tag_262\n      jump\t// in\n    tag_458:\n        /* \"#utility.yul\":16482:16484   */\n      0x20\n        /* \"#utility.yul\":16477:16480   */\n      dup3\n        /* \"#utility.yul\":16473:16485   */\n      add\n        /* \"#utility.yul\":16466:16485   */\n      swap1\n      pop\n        /* \"#utility.yul\":16125:16491   */\n      swap2\n      swap1\n      pop\n      jump\t// out\n        /* \"#utility.yul\":16497:16916   */\n    tag_168:\n        /* \"#utility.yul\":16663:16667   */\n      0x00\n        /* \"#utility.yul\":16701:16703   */\n      0x20\n        /* \"#utility.yul\":16690:16699   */\n      dup3\n        /* \"#utility.yul\":16686:16704   */\n      add\n        /* \"#utility.yul\":16678:16704   */\n      swap1\n      pop\n        /* \"#utility.yul\":16750:16759   */\n      dup2\n        /* \"#utility.yul\":16744:16748   */\n      dup2\n        /* \"#utility.yul\":16740:16760   */\n      sub\n        /* \"#utility.yul\":16736:16737   */\n      0x00\n        /* \"#utility.yul\":16725:16734   */\n      dup4\n        /* \"#utility.yul\":16721:16738   */\n      add\n        /* \"#utility.yul\":16714:16761   */\n      mstore\n        /* \"#utility.yul\":16778:16909   */\n      tag_460\n        /* \"#utility.yul\":16904:16908   */\n      dup2\n        /* \"#utility.yul\":16778:16909   */\n      tag_263\n      jump\t// in\n    tag_460:\n        /* \"#utility.yul\":16770:16909   */\n      swap1\n      pop\n        /* \"#utility.yul\":16497:16916   */\n      swap2\n      swap1\n      pop\n      jump\t// out\n        /* \"#utility.yul\":16922:17145   */\n    tag_264:\n        /* \"#utility.yul\":17062:17096   */\n      0x45524332303a20617070726f76652066726f6d20746865207a65726f20616464\n        /* \"#utility.yul\":17058:17059   */\n      0x00\n        /* \"#utility.yul\":17050:17056   */\n      dup3\n        /* \"#utility.yul\":17046:17060   */\n      add\n        /* \"#utility.yul\":17039:17097   */\n      mstore\n        /* \"#utility.yul\":17131:17137   */\n      0x7265737300000000000000000000000000000000000000000000000000000000\n        /* \"#utility.yul\":17126:17128   */\n      0x20\n        /* \"#utility.yul\":17118:17124   */\n      dup3\n        /* \"#utility.yul\":17114:17129   */\n      add\n        /* \"#utility.yul\":17107:17138   */\n      mstore\n        /* \"#utility.yul\":16922:17145   */\n      pop\n      jump\t// out\n        /* \"#utility.yul\":17151:17517   */\n    tag_265:\n        /* \"#utility.yul\":17293:17296   */\n      0x00\n        /* \"#utility.yul\":17314:17381   */\n      tag_463\n        /* \"#utility.yul\":17378:17380   */\n      0x24\n        /* \"#utility.yul\":17373:17376   */\n      dup4\n        /* \"#utility.yul\":17314:17381   */\n      tag_225\n      jump\t// in\n    tag_463:\n        /* \"#utility.yul\":17307:17381   */\n      swap2\n      pop\n        /* \"#utility.yul\":17390:17483   */\n      tag_464\n        /* \"#utility.yul\":17479:17482   */\n      dup3\n        /* \"#utility.yul\":17390:17483   */\n      tag_264\n      jump\t// in\n    tag_464:\n        /* \"#utility.yul\":17508:17510   */\n      0x40\n        /* \"#utility.yul\":17503:17506   */\n      dup3\n        /* \"#utility.yul\":17499:17511   */\n      add\n        /* \"#utility.yul\":17492:17511   */\n      swap1\n      pop\n        /* \"#utility.yul\":17151:17517   */\n      swap2\n      swap1\n      pop\n      jump\t// out\n        /* \"#utility.yul\":17523:17942   */\n    tag_173:\n        /* \"#utility.yul\":17689:17693   */\n      0x00\n        /* \"#utility.yul\":17727:17729   */\n      0x20\n        /* \"#utility.yul\":17716:17725   */\n      dup3\n        /* \"#utility.yul\":17712:17730   */\n      add\n        /* \"#utility.yul\":17704:17730   */\n      swap1\n      pop\n        /* \"#utility.yul\":17776:17785   */\n      dup2\n        /* \"#utility.yul\":17770:17774   */\n      dup2\n        /* \"#utility.yul\":17766:17786   */\n      sub\n        /* \"#utility.yul\":17762:17763   */\n      0x00\n        /* \"#utility.yul\":17751:17760   */\n      dup4\n        /* \"#utility.yul\":17747:17764   */\n      add\n        /* \"#utility.yul\":17740:17787   */\n      mstore\n        /* \"#utility.yul\":17804:17935   */\n      tag_466\n        /* \"#utility.yul\":17930:17934   */\n      dup2\n        /* \"#utility.yul\":17804:17935   */\n      tag_265\n      jump\t// in\n    tag_466:\n        /* \"#utility.yul\":17796:17935   */\n      swap1\n      pop\n        /* \"#utility.yul\":17523:17942   */\n      swap2\n      swap1\n      pop\n      jump\t// out\n        /* \"#utility.yul\":17948:18169   */\n    tag_266:\n        /* \"#utility.yul\":18088:18122   */\n      0x45524332303a20617070726f766520746f20746865207a65726f206164647265\n        /* \"#utility.yul\":18084:18085   */\n      0x00\n        /* \"#utility.yul\":18076:18082   */\n      dup3\n        /* \"#utility.yul\":18072:18086   */\n      add\n        /* \"#utility.yul\":18065:18123   */\n      mstore\n        /* \"#utility.yul\":18157:18161   */\n      0x7373000000000000000000000000000000000000000000000000000000000000\n        /* \"#utility.yul\":18152:18154   */\n      0x20\n        /* \"#utility.yul\":18144:18150   */\n      dup3\n        /* \"#utility.yul\":18140:18155   */\n      add\n        /* \"#utility.yul\":18133:18162   */\n      mstore\n        /* \"#utility.yul\":17948:18169   */\n      pop\n      jump\t// out\n        /* \"#utility.yul\":18175:18541   */\n    tag_267:\n        /* \"#utility.yul\":18317:18320   */\n      0x00\n        /* \"#utility.yul\":18338:18405   */\n      tag_469\n        /* \"#utility.yul\":18402:18404   */\n      0x22\n        /* \"#utility.yul\":18397:18400   */\n      dup4\n        /* \"#utility.yul\":18338:18405   */\n      tag_225\n      jump\t// in\n    tag_469:\n        /* \"#utility.yul\":18331:18405   */\n      swap2\n      pop\n        /* \"#utility.yul\":18414:18507   */\n      tag_470\n        /* \"#utility.yul\":18503:18506   */\n      dup3\n        /* \"#utility.yul\":18414:18507   */\n      tag_266\n      jump\t// in\n    tag_470:\n        /* \"#utility.yul\":18532:18534   */\n      0x40\n        /* \"#utility.yul\":18527:18530   */\n      dup3\n        /* \"#utility.yul\":18523:18535   */\n      add\n        /* \"#utility.yul\":18516:18535   */\n      swap1\n      pop\n        /* \"#utility.yul\":18175:18541   */\n      swap2\n      swap1\n      pop\n      jump\t// out\n        /* \"#utility.yul\":18547:18966   */\n    tag_176:\n        /* \"#utility.yul\":18713:18717   */\n      0x00\n        /* \"#utility.yul\":18751:18753   */\n      0x20\n        /* \"#utility.yul\":18740:18749   */\n      dup3\n        /* \"#utility.yul\":18736:18754   */\n      add\n        /* \"#utility.yul\":18728:18754   */\n      swap1\n      pop\n        /* \"#utility.yul\":18800:18809   */\n      dup2\n        /* \"#utility.yul\":18794:18798   */\n      dup2\n        /* \"#utility.yul\":18790:18810   */\n      sub\n        /* \"#utility.yul\":18786:18787   */\n      0x00\n        /* \"#utility.yul\":18775:18784   */\n      dup4\n        /* \"#utility.yul\":18771:18788   */\n      add\n        /* \"#utility.yul\":18764:18811   */\n      mstore\n        /* \"#utility.yul\":18828:18959   */\n      tag_472\n        /* \"#utility.yul\":18954:18958   */\n      dup2\n        /* \"#utility.yul\":18828:18959   */\n      tag_267\n      jump\t// in\n    tag_472:\n        /* \"#utility.yul\":18820:18959   */\n      swap1\n      pop\n        /* \"#utility.yul\":18547:18966   */\n      swap2\n      swap1\n      pop\n      jump\t// out\n        /* \"#utility.yul\":18972:19151   */\n    tag_268:\n        /* \"#utility.yul\":19112:19143   */\n      0x45524332303a20696e73756666696369656e7420616c6c6f77616e6365000000\n        /* \"#utility.yul\":19108:19109   */\n      0x00\n        /* \"#utility.yul\":19100:19106   */\n      dup3\n        /* \"#utility.yul\":19096:19110   */\n      add\n        /* \"#utility.yul\":19089:19144   */\n      mstore\n        /* \"#utility.yul\":18972:19151   */\n      pop\n      jump\t// out\n        /* \"#utility.yul\":19157:19523   */\n    tag_269:\n        /* \"#utility.yul\":19299:19302   */\n      0x00\n        /* \"#utility.yul\":19320:19387   */\n      tag_475\n        /* \"#utility.yul\":19384:19386   */\n      0x1d\n        /* \"#utility.yul\":19379:19382   */\n      dup4\n        /* \"#utility.yul\":19320:19387   */\n      tag_225\n      jump\t// in\n    tag_475:\n        /* \"#utility.yul\":19313:19387   */\n      swap2\n      pop\n        /* \"#utility.yul\":19396:19489   */\n      tag_476\n        /* \"#utility.yul\":19485:19488   */\n      dup3\n        /* \"#utility.yul\":19396:19489   */\n      tag_268\n      jump\t// in\n    tag_476:\n        /* \"#utility.yul\":19514:19516   */\n      0x20\n        /* \"#utility.yul\":19509:19512   */\n      dup3\n        /* \"#utility.yul\":19505:19517   */\n      add\n        /* \"#utility.yul\":19498:19517   */\n      swap1\n      pop\n        /* \"#utility.yul\":19157:19523   */\n      swap2\n      swap1\n      pop\n      jump\t// out\n        /* \"#utility.yul\":19529:19948   */\n    tag_183:\n        /* \"#utility.yul\":19695:19699   */\n      0x00\n        /* \"#utility.yul\":19733:19735   */\n      0x20\n        /* \"#utility.yul\":19722:19731   */\n      dup3\n        /* \"#utility.yul\":19718:19736   */\n      add\n        /* \"#utility.yul\":19710:19736   */\n      swap1\n      pop\n        /* \"#utility.yul\":19782:19791   */\n      dup2\n        /* \"#utility.yul\":19776:19780   */\n      dup2\n        /* \"#utility.yul\":19772:19792   */\n      sub\n        /* \"#utility.yul\":19768:19769   */\n      0x00\n        /* \"#utility.yul\":19757:19766   */\n      dup4\n        /* \"#utility.yul\":19753:19770   */\n      add\n        /* \"#utility.yul\":19746:19793   */\n      mstore\n        /* \"#utility.yul\":19810:19941   */\n      tag_478\n        /* \"#utility.yul\":19936:19940   */\n      dup2\n        /* \"#utility.yul\":19810:19941   */\n      tag_269\n      jump\t// in\n    tag_478:\n        /* \"#utility.yul\":19802:19941   */\n      swap1\n      pop\n        /* \"#utility.yul\":19529:19948   */\n      swap2\n      swap1\n      pop\n      jump\t// out\n        /* \"#utility.yul\":19954:20178   */\n    tag_270:\n        /* \"#utility.yul\":20094:20128   */\n      0x45524332303a207472616e736665722066726f6d20746865207a65726f206164\n        /* \"#utility.yul\":20090:20091   */\n      0x00\n        /* \"#utility.yul\":20082:20088   */\n      dup3\n        /* \"#utility.yul\":20078:20092   */\n      add\n        /* \"#utility.yul\":20071:20129   */\n      mstore\n        /* \"#utility.yul\":20163:20170   */\n      0x6472657373000000000000000000000000000000000000000000000000000000\n        /* \"#utility.yul\":20158:20160   */\n      0x20\n        /* \"#utility.yul\":20150:20156   */\n      dup3\n        /* \"#utility.yul\":20146:20161   */\n      add\n        /* \"#utility.yul\":20139:20171   */\n      mstore\n        /* \"#utility.yul\":19954:20178   */\n      pop\n      jump\t// out\n        /* \"#utility.yul\":20184:20550   */\n    tag_271:\n        /* \"#utility.yul\":20326:20329   */\n      0x00\n        /* \"#utility.yul\":20347:20414   */\n      tag_481\n        /* \"#utility.yul\":20411:20413   */\n      0x25\n        /* \"#utility.yul\":20406:20409   */\n      dup4\n        /* \"#utility.yul\":20347:20414   */\n      tag_225\n      jump\t// in\n    tag_481:\n        /* \"#utility.yul\":20340:20414   */\n      swap2\n      pop\n        /* \"#utility.yul\":20423:20516   */\n      tag_482\n        /* \"#utility.yul\":20512:20515   */\n      dup3\n        /* \"#utility.yul\":20423:20516   */\n      tag_270\n      jump\t// in\n    tag_482:\n        /* \"#utility.yul\":20541:20543   */\n      0x40\n        /* \"#utility.yul\":20536:20539   */\n      dup3\n        /* \"#utility.yul\":20532:20544   */\n      add\n        /* \"#utility.yul\":20525:20544   */\n      swap1\n      pop\n        /* \"#utility.yul\":20184:20550   */\n      swap2\n      swap1\n      pop\n      jump\t// out\n        /* \"#utility.yul\":20556:20975   */\n    tag_188:\n        /* \"#utility.yul\":20722:20726   */\n      0x00\n        /* \"#utility.yul\":20760:20762   */\n      0x20\n        /* \"#utility.yul\":20749:20758   */\n      dup3\n        /* \"#utility.yul\":20745:20763   */\n      add\n        /* \"#utility.yul\":20737:20763   */\n      swap1\n      pop\n        /* \"#utility.yul\":20809:20818   */\n      dup2\n        /* \"#utility.yul\":20803:20807   */\n      dup2\n        /* \"#utility.yul\":20799:20819   */\n      sub\n        /* \"#utility.yul\":20795:20796   */\n      0x00\n        /* \"#utility.yul\":20784:20793   */\n      dup4\n        /* \"#utility.yul\":20780:20797   */\n      add\n        /* \"#utility.yul\":20773:20820   */\n      mstore\n        /* \"#utility.yul\":20837:20968   */\n      tag_484\n        /* \"#utility.yul\":20963:20967   */\n      dup2\n        /* \"#utility.yul\":20837:20968   */\n      tag_271\n      jump\t// in\n    tag_484:\n        /* \"#utility.yul\":20829:20968   */\n      swap1\n      pop\n        /* \"#utility.yul\":20556:20975   */\n      swap2\n      swap1\n      pop\n      jump\t// out\n        /* \"#utility.yul\":20981:21203   */\n    tag_272:\n        /* \"#utility.yul\":21121:21155   */\n      0x45524332303a207472616e7366657220746f20746865207a65726f2061646472\n        /* \"#utility.yul\":21117:21118   */\n      0x00\n        /* \"#utility.yul\":21109:21115   */\n      dup3\n        /* \"#utility.yul\":21105:21119   */\n      add\n        /* \"#utility.yul\":21098:21156   */\n      mstore\n        /* \"#utility.yul\":21190:21195   */\n      0x6573730000000000000000000000000000000000000000000000000000000000\n        /* \"#utility.yul\":21185:21187   */\n      0x20\n        /* \"#utility.yul\":21177:21183   */\n      dup3\n        /* \"#utility.yul\":21173:21188   */\n      add\n        /* \"#utility.yul\":21166:21196   */\n      mstore\n        /* \"#utility.yul\":20981:21203   */\n      pop\n      jump\t// out\n        /* \"#utility.yul\":21209:21575   */\n    tag_273:\n        /* \"#utility.yul\":21351:21354   */\n      0x00\n        /* \"#utility.yul\":21372:21439   */\n      tag_487\n        /* \"#utility.yul\":21436:21438   */\n      0x23\n        /* \"#utility.yul\":21431:21434   */\n      dup4\n        /* \"#utility.yul\":21372:21439   */\n      tag_225\n      jump\t// in\n    tag_487:\n        /* \"#utility.yul\":21365:21439   */\n      swap2\n      pop\n        /* \"#utility.yul\":21448:21541   */\n      tag_488\n        /* \"#utility.yul\":21537:21540   */\n      dup3\n        /* \"#utility.yul\":21448:21541   */\n      tag_272\n      jump\t// in\n    tag_488:\n        /* \"#utility.yul\":21566:21568   */\n      0x40\n        /* \"#utility.yul\":21561:21564   */\n      dup3\n        /* \"#utility.yul\":21557:21569   */\n      add\n        /* \"#utility.yul\":21550:21569   */\n      swap1\n      pop\n        /* \"#utility.yul\":21209:21575   */\n      swap2\n      swap1\n      pop\n      jump\t// out\n        /* \"#utility.yul\":21581:22000   */\n    tag_191:\n        /* \"#utility.yul\":21747:21751   */\n      0x00\n        /* \"#utility.yul\":21785:21787   */\n      0x20\n        /* \"#utility.yul\":21774:21783   */\n      dup3\n        /* \"#utility.yul\":21770:21788   */\n      add\n        /* \"#utility.yul\":21762:21788   */\n      swap1\n      pop\n        /* \"#utility.yul\":21834:21843   */\n      dup2\n        /* \"#utility.yul\":21828:21832   */\n      dup2\n        /* \"#utility.yul\":21824:21844   */\n      sub\n        /* \"#utility.yul\":21820:21821   */\n      0x00\n        /* \"#utility.yul\":21809:21818   */\n      dup4\n        /* \"#utility.yul\":21805:21822   */\n      add\n        /* \"#utility.yul\":21798:21845   */\n      mstore\n        /* \"#utility.yul\":21862:21993   */\n      tag_490\n        /* \"#utility.yul\":21988:21992   */\n      dup2\n        /* \"#utility.yul\":21862:21993   */\n      tag_273\n      jump\t// in\n    tag_490:\n        /* \"#utility.yul\":21854:21993   */\n      swap1\n      pop\n        /* \"#utility.yul\":21581:22000   */\n      swap2\n      swap1\n      pop\n      jump\t// out\n        /* \"#utility.yul\":22006:22231   */\n    tag_274:\n        /* \"#utility.yul\":22146:22180   */\n      0x45524332303a207472616e7366657220616d6f756e7420657863656564732062\n        /* \"#utility.yul\":22142:22143   */\n      0x00\n        /* \"#utility.yul\":22134:22140   */\n      dup3\n        /* \"#utility.yul\":22130:22144   */\n      add\n        /* \"#utility.yul\":22123:22181   */\n      mstore\n        /* \"#utility.yul\":22215:22223   */\n      0x616c616e63650000000000000000000000000000000000000000000000000000\n        /* \"#utility.yul\":22210:22212   */\n      0x20\n        /* \"#utility.yul\":22202:22208   */\n      dup3\n        /* \"#utility.yul\":22198:22213   */\n      add\n        /* \"#utility.yul\":22191:22224   */\n      mstore\n        /* \"#utility.yul\":22006:22231   */\n      pop\n      jump\t// out\n        /* \"#utility.yul\":22237:22603   */\n    tag_275:\n        /* \"#utility.yul\":22379:22382   */\n      0x00\n        /* \"#utility.yul\":22400:22467   */\n      tag_493\n        /* \"#utility.yul\":22464:22466   */\n      0x26\n        /* \"#utility.yul\":22459:22462   */\n      dup4\n        /* \"#utility.yul\":22400:22467   */\n      tag_225\n      jump\t// in\n    tag_493:\n        /* \"#utility.yul\":22393:22467   */\n      swap2\n      pop\n        /* \"#utility.yul\":22476:22569   */\n      tag_494\n        /* \"#utility.yul\":22565:22568   */\n      dup3\n        /* \"#utility.yul\":22476:22569   */\n      tag_274\n      jump\t// in\n    tag_494:\n        /* \"#utility.yul\":22594:22596   */\n      0x40\n        /* \"#utility.yul\":22589:22592   */\n      dup3\n        /* \"#utility.yul\":22585:22597   */\n      add\n        /* \"#utility.yul\":22578:22597   */\n      swap1\n      pop\n        /* \"#utility.yul\":22237:22603   */\n      swap2\n      swap1\n      pop\n      jump\t// out\n        /* \"#utility.yul\":22609:23028   */\n    tag_196:\n        /* \"#utility.yul\":22775:22779   */\n      0x00\n        /* \"#utility.yul\":22813:22815   */\n      0x20\n        /* \"#utility.yul\":22802:22811   */\n      dup3\n        /* \"#utility.yul\":22798:22816   */\n      add\n        /* \"#utility.yul\":22790:22816   */\n      swap1\n      pop\n        /* \"#utility.yul\":22862:22871   */\n      dup2\n        /* \"#utility.yul\":22856:22860   */\n      dup2\n        /* \"#utility.yul\":22852:22872   */\n      sub\n        /* \"#utility.yul\":22848:22849   */\n      0x00\n        /* \"#utility.yul\":22837:22846   */\n      dup4\n        /* \"#utility.yul\":22833:22850   */\n      add\n        /* \"#utility.yul\":22826:22873   */\n      mstore\n        /* \"#utility.yul\":22890:23021   */\n      tag_496\n        /* \"#utility.yul\":23016:23020   */\n      dup2\n        /* \"#utility.yul\":22890:23021   */\n      tag_275\n      jump\t// in\n    tag_496:\n        /* \"#utility.yul\":22882:23021   */\n      swap1\n      pop\n        /* \"#utility.yul\":22609:23028   */\n      swap2\n      swap1\n      pop\n      jump\t// out\n        /* \"#utility.yul\":23034:23215   */\n    tag_276:\n        /* \"#utility.yul\":23174:23207   */\n      0x45524332303a206d696e7420746f20746865207a65726f206164647265737300\n        /* \"#utility.yul\":23170:23171   */\n      0x00\n        /* \"#utility.yul\":23162:23168   */\n      dup3\n        /* \"#utility.yul\":23158:23172   */\n      add\n        /* \"#utility.yul\":23151:23208   */\n      mstore\n        /* \"#utility.yul\":23034:23215   */\n      pop\n      jump\t// out\n        /* \"#utility.yul\":23221:23587   */\n    tag_277:\n        /* \"#utility.yul\":23363:23366   */\n      0x00\n        /* \"#utility.yul\":23384:23451   */\n      tag_499\n        /* \"#utility.yul\":23448:23450   */\n      0x1f\n        /* \"#utility.yul\":23443:23446   */\n      dup4\n        /* \"#utility.yul\":23384:23451   */\n      tag_225\n      jump\t// in\n    tag_499:\n        /* \"#utility.yul\":23377:23451   */\n      swap2\n      pop\n        /* \"#utility.yul\":23460:23553   */\n      tag_500\n        /* \"#utility.yul\":23549:23552   */\n      dup3\n        /* \"#utility.yul\":23460:23553   */\n      tag_276\n      jump\t// in\n    tag_500:\n        /* \"#utility.yul\":23578:23580   */\n      0x20\n        /* \"#utility.yul\":23573:23576   */\n      dup3\n        /* \"#utility.yul\":23569:23581   */\n      add\n        /* \"#utility.yul\":23562:23581   */\n      swap1\n      pop\n        /* \"#utility.yul\":23221:23587   */\n      swap2\n      swap1\n      pop\n      jump\t// out\n        /* \"#utility.yul\":23593:24012   */\n    tag_203:\n        /* \"#utility.yul\":23759:23763   */\n      0x00\n        /* \"#utility.yul\":23797:23799   */\n      0x20\n        /* \"#utility.yul\":23786:23795   */\n      dup3\n        /* \"#utility.yul\":23782:23800   */\n      add\n        /* \"#utility.yul\":23774:23800   */\n      swap1\n      pop\n        /* \"#utility.yul\":23846:23855   */\n      dup2\n        /* \"#utility.yul\":23840:23844   */\n      dup2\n        /* \"#utility.yul\":23836:23856   */\n      sub\n        /* \"#utility.yul\":23832:23833   */\n      0x00\n        /* \"#utility.yul\":23821:23830   */\n      dup4\n        /* \"#utility.yul\":23817:23834   */\n      add\n        /* \"#utility.yul\":23810:23857   */\n      mstore\n        /* \"#utility.yul\":23874:24005   */\n      tag_502\n        /* \"#utility.yul\":24000:24004   */\n      dup2\n        /* \"#utility.yul\":23874:24005   */\n      tag_277\n      jump\t// in\n    tag_502:\n        /* \"#utility.yul\":23866:24005   */\n      swap1\n      pop\n        /* \"#utility.yul\":23593:24012   */\n      swap2\n      swap1\n      pop\n      jump\t// out\n\n    auxdata: 0xa2646970667358221220b564f9579d3407aafce757ae7fe64db2074f7b6cc5691153c297fc2bd9d8927064736f6c63430008130033\n}\n",
				"bytecode": {
					"linkReferences": {},
					"object": "60806040523480156200001157600080fd5b506040518060400160405280600581526020017f5465736c610000000000000000000000000000000000000000000000000000008152506040518060400160405280600381526020017f54534c000000000000000000000000000000000000000000000000000000000081525081600390816200008f919062000603565b508060049081620000a1919062000603565b505050620000c4620000b86200013b60201b60201c565b6200014360201b60201c565b6200010a33620000d96200020960201b60201c565b600a620000e791906200087a565b69d3c21bcecceda1000000620000fe9190620008cb565b6200021260201b60201c565b6040518060600160405280602e8152602001620026f6602e91396006908162000134919062000603565b5062000a02565b600033905090565b6000600560009054906101000a900473ffffffffffffffffffffffffffffffffffffffff16905081600560006101000a81548173ffffffffffffffffffffffffffffffffffffffff021916908373ffffffffffffffffffffffffffffffffffffffff1602179055508173ffffffffffffffffffffffffffffffffffffffff168173ffffffffffffffffffffffffffffffffffffffff167f8be0079c531659141344cd1fd0a4f28419497f9722a3daafe3b4186f6b6457e060405160405180910390a35050565b60006012905090565b600073ffffffffffffffffffffffffffffffffffffffff168273ffffffffffffffffffffffffffffffffffffffff160362000284576040517f08c379a00000000000000000000000000000000000000000000000000000000081526004016200027b9062000977565b60405180910390fd5b62000298600083836200037f60201b60201c565b8060026000828254620002ac919062000999565b92505081905550806000808473ffffffffffffffffffffffffffffffffffffffff1673ffffffffffffffffffffffffffffffffffffffff168152602001908152602001600020600082825401925050819055508173ffffffffffffffffffffffffffffffffffffffff16600073ffffffffffffffffffffffffffffffffffffffff167fddf252ad1be2c89b69c2b068fc378daa952ba7f163c4a11628f55a4df523b3ef836040516200035f9190620009e5565b60405180910390a36200037b600083836200038460201b60201c565b5050565b505050565b505050565b600081519050919050565b7f4e487b7100000000000000000000000000000000000000000000000000000000600052604160045260246000fd5b7f4e487b7100000000000000000000000000000000000000000000000000000000600052602260045260246000fd5b600060028204905060018216806200040b57607f821691505b602082108103620004215762000420620003c3565b5b50919050565b60008190508160005260206000209050919050565b60006020601f8301049050919050565b600082821b905092915050565b6000600883026200048b7fffffffffffffffffffffffffffffffffffffffffffffffffffffffffffffffff826200044c565b6200049786836200044c565b95508019841693508086168417925050509392505050565b6000819050919050565b6000819050919050565b6000620004e4620004de620004d884620004af565b620004b9565b620004af565b9050919050565b6000819050919050565b6200050083620004c3565b620005186200050f82620004eb565b84845462000459565b825550505050565b600090565b6200052f62000520565b6200053c818484620004f5565b505050565b5b8181101562000564576200055860008262000525565b60018101905062000542565b5050565b601f821115620005b3576200057d8162000427565b62000588846200043c565b8101602085101562000598578190505b620005b0620005a7856200043c565b83018262000541565b50505b505050565b600082821c905092915050565b6000620005d860001984600802620005b8565b1980831691505092915050565b6000620005f38383620005c5565b9150826002028217905092915050565b6200060e8262000389565b67ffffffffffffffff8111156200062a576200062962000394565b5b620006368254620003f2565b6200064382828562000568565b600060209050601f8311600181146200067b576000841562000666578287015190505b620006728582620005e5565b865550620006e2565b601f1984166200068b8662000427565b60005b82811015620006b5578489015182556001820191506020850194506020810190506200068e565b86831015620006d55784890151620006d1601f891682620005c5565b8355505b6001600288020188555050505b505050505050565b7f4e487b7100000000000000000000000000000000000000000000000000000000600052601160045260246000fd5b60008160011c9050919050565b6000808291508390505b6001851115620007785780860481111562000750576200074f620006ea565b5b6001851615620007605780820291505b8081029050620007708562000719565b945062000730565b94509492505050565b60008262000793576001905062000866565b81620007a3576000905062000866565b8160018114620007bc5760028114620007c757620007fd565b600191505062000866565b60ff841115620007dc57620007db620006ea565b5b8360020a915084821115620007f657620007f5620006ea565b5b5062000866565b5060208310610133831016604e8410600b8410161715620008375782820a905083811115620008315762000830620006ea565b5b62000866565b62000846848484600162000726565b9250905081840481111562000860576200085f620006ea565b5b81810290505b9392505050565b600060ff82169050919050565b60006200088782620004af565b915062000894836200086d565b9250620008c37fffffffffffffffffffffffffffffffffffffffffffffffffffffffffffffffff848462000781565b905092915050565b6000620008d882620004af565b9150620008e583620004af565b9250828202620008f581620004af565b915082820484148315176200090f576200090e620006ea565b5b5092915050565b600082825260208201905092915050565b7f45524332303a206d696e7420746f20746865207a65726f206164647265737300600082015250565b60006200095f601f8362000916565b91506200096c8262000927565b602082019050919050565b60006020820190508181036000830152620009928162000950565b9050919050565b6000620009a682620004af565b9150620009b383620004af565b9250828201905080821115620009ce57620009cd620006ea565b5b92915050565b620009df81620004af565b82525050565b6000602082019050620009fc6000830184620009d4565b92915050565b611ce48062000a126000396000f3fe608060405234801561001057600080fd5b506004361061010b5760003560e01c806370a08231116100a2578063a457c2d711610071578063a457c2d7146102a8578063a9059cbb146102d8578063dd62ed3e14610308578063df7be1ca14610338578063f2fde38b146103565761010b565b806370a0823114610232578063715018a6146102625780638da5cb5b1461026c57806395d89b411461028a5761010b565b806323b872dd116100de57806323b872dd14610198578063313ce567146101c857806339509351146101e657806340c10f19146102165761010b565b806301c402ff1461011057806306fdde031461012c578063095ea7b31461014a57806318160ddd1461017a575b600080fd5b61012a600480360381019061012591906110ec565b610372565b005b61013461038d565b60405161014191906111b4565b60405180910390f35b610164600480360381019061015f919061126a565b61041f565b60405161017191906112c5565b60405180910390f35b610182610442565b60405161018f91906112ef565b60405180910390f35b6101b260048036038101906101ad919061130a565b61044c565b6040516101bf91906112c5565b60405180910390f35b6101d061047b565b6040516101dd9190611379565b60405180910390f35b61020060048036038101906101fb919061126a565b610484565b60405161020d91906112c5565b60405180910390f35b610230600480360381019061022b919061126a565b6104bb565b005b61024c60048036038101906102479190611394565b6104d1565b60405161025991906112ef565b60405180910390f35b61026a610519565b005b61027461052d565b60405161028191906113d0565b60405180910390f35b610292610557565b60405161029f91906111b4565b60405180910390f35b6102c260048036038101906102bd919061126a565b6105e9565b6040516102cf91906112c5565b60405180910390f35b6102f260048036038101906102ed919061126a565b610660565b6040516102ff91906112c5565b60405180910390f35b610322600480360381019061031d91906113eb565b610683565b60405161032f91906112ef565b60405180910390f35b61034061070a565b60405161034d91906111b4565b60405180910390f35b610370600480360381019061036b9190611394565b610798565b005b61037a61081b565b80600690816103899190611637565b5050565b60606003805461039c9061145a565b80601f01602080910402602001604051908101604052809291908181526020018280546103c89061145a565b80156104155780601f106103ea57610100808354040283529160200191610415565b820191906000526020600020905b8154815290600101906020018083116103f857829003601f168201915b5050505050905090565b60008061042a610899565b90506104378185856108a1565b600191505092915050565b6000600254905090565b600080610457610899565b9050610464858285610a6a565b61046f858585610af6565b60019150509392505050565b60006012905090565b60008061048f610899565b90506104b08185856104a18589610683565b6104ab9190611738565b6108a1565b600191505092915050565b6104c361081b565b6104cd8282610d6c565b5050565b60008060008373ffffffffffffffffffffffffffffffffffffffff1673ffffffffffffffffffffffffffffffffffffffff168152602001908152602001600020549050919050565b61052161081b565b61052b6000610ec2565b565b6000600560009054906101000a900473ffffffffffffffffffffffffffffffffffffffff16905090565b6060600480546105669061145a565b80601f01602080910402602001604051908101604052809291908181526020018280546105929061145a565b80156105df5780601f106105b4576101008083540402835291602001916105df565b820191906000526020600020905b8154815290600101906020018083116105c257829003601f168201915b5050505050905090565b6000806105f4610899565b905060006106028286610683565b905083811015610647576040517f08c379a000000000000000000000000000000000000000000000000000000000815260040161063e906117de565b60405180910390fd5b61065482868684036108a1565b60019250505092915050565b60008061066b610899565b9050610678818585610af6565b600191505092915050565b6000600160008473ffffffffffffffffffffffffffffffffffffffff1673ffffffffffffffffffffffffffffffffffffffff16815260200190815260200160002060008373ffffffffffffffffffffffffffffffffffffffff1673ffffffffffffffffffffffffffffffffffffffff16815260200190815260200160002054905092915050565b600680546107179061145a565b80601f01602080910402602001604051908101604052809291908181526020018280546107439061145a565b80156107905780601f1061076557610100808354040283529160200191610790565b820191906000526020600020905b81548152906001019060200180831161077357829003601f168201915b505050505081565b6107a061081b565b600073ffffffffffffffffffffffffffffffffffffffff168173ffffffffffffffffffffffffffffffffffffffff160361080f576040517f08c379a000000000000000000000000000000000000000000000000000000000815260040161080690611870565b60405180910390fd5b61081881610ec2565b50565b610823610899565b73ffffffffffffffffffffffffffffffffffffffff1661084161052d565b73ffffffffffffffffffffffffffffffffffffffff1614610897576040517f08c379a000000000000000000000000000000000000000000000000000000000815260040161088e906118dc565b60405180910390fd5b565b600033905090565b600073ffffffffffffffffffffffffffffffffffffffff168373ffffffffffffffffffffffffffffffffffffffff1603610910576040517f08c379a00000000000000000000000000000000000000000000000000000000081526004016109079061196e565b60405180910390fd5b600073ffffffffffffffffffffffffffffffffffffffff168273ffffffffffffffffffffffffffffffffffffffff160361097f576040517f08c379a000000000000000000000000000000000000000000000000000000000815260040161097690611a00565b60405180910390fd5b80600160008573ffffffffffffffffffffffffffffffffffffffff1673ffffffffffffffffffffffffffffffffffffffff16815260200190815260200160002060008473ffffffffffffffffffffffffffffffffffffffff1673ffffffffffffffffffffffffffffffffffffffff168152602001908152602001600020819055508173ffffffffffffffffffffffffffffffffffffffff168373ffffffffffffffffffffffffffffffffffffffff167f8c5be1e5ebec7d5bd14f71427d1e84f3dd0314c0f7b2291e5b200ac8c7c3b92583604051610a5d91906112ef565b60405180910390a3505050565b6000610a768484610683565b90507fffffffffffffffffffffffffffffffffffffffffffffffffffffffffffffffff8114610af05781811015610ae2576040517f08c379a0000000000000000000000000000000000000000000000000000000008152600401610ad990611a6c565b60405180910390fd5b610aef84848484036108a1565b5b50505050565b600073ffffffffffffffffffffffffffffffffffffffff168373ffffffffffffffffffffffffffffffffffffffff1603610b65576040517f08c379a0000000000000000000000000000000000000000000000000000000008152600401610b5c90611afe565b60405180910390fd5b600073ffffffffffffffffffffffffffffffffffffffff168273ffffffffffffffffffffffffffffffffffffffff1603610bd4576040517f08c379a0000000000000000000000000000000000000000000000000000000008152600401610bcb90611b90565b60405180910390fd5b610bdf838383610f88565b60008060008573ffffffffffffffffffffffffffffffffffffffff1673ffffffffffffffffffffffffffffffffffffffff16815260200190815260200160002054905081811015610c65576040517f08c379a0000000000000000000000000000000000000000000000000000000008152600401610c5c90611c22565b60405180910390fd5b8181036000808673ffffffffffffffffffffffffffffffffffffffff1673ffffffffffffffffffffffffffffffffffffffff16815260200190815260200160002081905550816000808573ffffffffffffffffffffffffffffffffffffffff1673ffffffffffffffffffffffffffffffffffffffff168152602001908152602001600020600082825401925050819055508273ffffffffffffffffffffffffffffffffffffffff168473ffffffffffffffffffffffffffffffffffffffff167fddf252ad1be2c89b69c2b068fc378daa952ba7f163c4a11628f55a4df523b3ef84604051610d5391906112ef565b60405180910390a3610d66848484610f8d565b50505050565b600073ffffffffffffffffffffffffffffffffffffffff168273ffffffffffffffffffffffffffffffffffffffff1603610ddb576040517f08c379a0000000000000000000000000000000000000000000000000000000008152600401610dd290611c8e565b60405180910390fd5b610de760008383610f88565b8060026000828254610df99190611738565b92505081905550806000808473ffffffffffffffffffffffffffffffffffffffff1673ffffffffffffffffffffffffffffffffffffffff168152602001908152602001600020600082825401925050819055508173ffffffffffffffffffffffffffffffffffffffff16600073ffffffffffffffffffffffffffffffffffffffff167fddf252ad1be2c89b69c2b068fc378daa952ba7f163c4a11628f55a4df523b3ef83604051610eaa91906112ef565b60405180910390a3610ebe60008383610f8d565b5050565b6000600560009054906101000a900473ffffffffffffffffffffffffffffffffffffffff16905081600560006101000a81548173ffffffffffffffffffffffffffffffffffffffff021916908373ffffffffffffffffffffffffffffffffffffffff1602179055508173ffffffffffffffffffffffffffffffffffffffff168173ffffffffffffffffffffffffffffffffffffffff167f8be0079c531659141344cd1fd0a4f28419497f9722a3daafe3b4186f6b6457e060405160405180910390a35050565b505050565b505050565b6000604051905090565b600080fd5b600080fd5b600080fd5b600080fd5b6000601f19601f8301169050919050565b7f4e487b7100000000000000000000000000000000000000000000000000000000600052604160045260246000fd5b610ff982610fb0565b810181811067ffffffffffffffff8211171561101857611017610fc1565b5b80604052505050565b600061102b610f92565b90506110378282610ff0565b919050565b600067ffffffffffffffff82111561105757611056610fc1565b5b61106082610fb0565b9050602081019050919050565b82818337600083830152505050565b600061108f61108a8461103c565b611021565b9050828152602081018484840111156110ab576110aa610fab565b5b6110b684828561106d565b509392505050565b600082601f8301126110d3576110d2610fa6565b5b81356110e384826020860161107c565b91505092915050565b60006020828403121561110257611101610f9c565b5b600082013567ffffffffffffffff8111156111205761111f610fa1565b5b61112c848285016110be565b91505092915050565b600081519050919050565b600082825260208201905092915050565b60005b8381101561116f578082015181840152602081019050611154565b60008484015250505050565b600061118682611135565b6111908185611140565b93506111a0818560208601611151565b6111a981610fb0565b840191505092915050565b600060208201905081810360008301526111ce818461117b565b905092915050565b600073ffffffffffffffffffffffffffffffffffffffff82169050919050565b6000611201826111d6565b9050919050565b611211816111f6565b811461121c57600080fd5b50565b60008135905061122e81611208565b92915050565b6000819050919050565b61124781611234565b811461125257600080fd5b50565b6000813590506112648161123e565b92915050565b6000806040838503121561128157611280610f9c565b5b600061128f8582860161121f565b92505060206112a085828601611255565b9150509250929050565b60008115159050919050565b6112bf816112aa565b82525050565b60006020820190506112da60008301846112b6565b92915050565b6112e981611234565b82525050565b600060208201905061130460008301846112e0565b92915050565b60008060006060848603121561132357611322610f9c565b5b60006113318682870161121f565b93505060206113428682870161121f565b925050604061135386828701611255565b9150509250925092565b600060ff82169050919050565b6113738161135d565b82525050565b600060208201905061138e600083018461136a565b92915050565b6000602082840312156113aa576113a9610f9c565b5b60006113b88482850161121f565b91505092915050565b6113ca816111f6565b82525050565b60006020820190506113e560008301846113c1565b92915050565b6000806040838503121561140257611401610f9c565b5b60006114108582860161121f565b92505060206114218582860161121f565b9150509250929050565b7f4e487b7100000000000000000000000000000000000000000000000000000000600052602260045260246000fd5b6000600282049050600182168061147257607f821691505b6020821081036114855761148461142b565b5b50919050565b60008190508160005260206000209050919050565b60006020601f8301049050919050565b600082821b905092915050565b6000600883026114ed7fffffffffffffffffffffffffffffffffffffffffffffffffffffffffffffffff826114b0565b6114f786836114b0565b95508019841693508086168417925050509392505050565b6000819050919050565b600061153461152f61152a84611234565b61150f565b611234565b9050919050565b6000819050919050565b61154e83611519565b61156261155a8261153b565b8484546114bd565b825550505050565b600090565b61157761156a565b611582818484611545565b505050565b5b818110156115a65761159b60008261156f565b600181019050611588565b5050565b601f8211156115eb576115bc8161148b565b6115c5846114a0565b810160208510156115d4578190505b6115e86115e0856114a0565b830182611587565b50505b505050565b600082821c905092915050565b600061160e600019846008026115f0565b1980831691505092915050565b600061162783836115fd565b9150826002028217905092915050565b61164082611135565b67ffffffffffffffff81111561165957611658610fc1565b5b611663825461145a565b61166e8282856115aa565b600060209050601f8311600181146116a1576000841561168f578287015190505b611699858261161b565b865550611701565b601f1984166116af8661148b565b60005b828110156116d7578489015182556001820191506020850194506020810190506116b2565b868310156116f457848901516116f0601f8916826115fd565b8355505b6001600288020188555050505b505050505050565b7f4e487b7100000000000000000000000000000000000000000000000000000000600052601160045260246000fd5b600061174382611234565b915061174e83611234565b925082820190508082111561176657611765611709565b5b92915050565b7f45524332303a2064656372656173656420616c6c6f77616e63652062656c6f7760008201527f207a65726f000000000000000000000000000000000000000000000000000000602082015250565b60006117c8602583611140565b91506117d38261176c565b604082019050919050565b600060208201905081810360008301526117f7816117bb565b9050919050565b7f4f776e61626c653a206e6577206f776e657220697320746865207a65726f206160008201527f6464726573730000000000000000000000000000000000000000000000000000602082015250565b600061185a602683611140565b9150611865826117fe565b604082019050919050565b600060208201905081810360008301526118898161184d565b9050919050565b7f4f776e61626c653a2063616c6c6572206973206e6f7420746865206f776e6572600082015250565b60006118c6602083611140565b91506118d182611890565b602082019050919050565b600060208201905081810360008301526118f5816118b9565b9050919050565b7f45524332303a20617070726f76652066726f6d20746865207a65726f2061646460008201527f7265737300000000000000000000000000000000000000000000000000000000602082015250565b6000611958602483611140565b9150611963826118fc565b604082019050919050565b600060208201905081810360008301526119878161194b565b9050919050565b7f45524332303a20617070726f766520746f20746865207a65726f20616464726560008201527f7373000000000000000000000000000000000000000000000000000000000000602082015250565b60006119ea602283611140565b91506119f58261198e565b604082019050919050565b60006020820190508181036000830152611a19816119dd565b9050919050565b7f45524332303a20696e73756666696369656e7420616c6c6f77616e6365000000600082015250565b6000611a56601d83611140565b9150611a6182611a20565b602082019050919050565b60006020820190508181036000830152611a8581611a49565b9050919050565b7f45524332303a207472616e736665722066726f6d20746865207a65726f20616460008201527f6472657373000000000000000000000000000000000000000000000000000000602082015250565b6000611ae8602583611140565b9150611af382611a8c565b604082019050919050565b60006020820190508181036000830152611b1781611adb565b9050919050565b7f45524332303a207472616e7366657220746f20746865207a65726f206164647260008201527f6573730000000000000000000000000000000000000000000000000000000000602082015250565b6000611b7a602383611140565b9150611b8582611b1e565b604082019050919050565b60006020820190508181036000830152611ba981611b6d565b9050919050565b7f45524332303a207472616e7366657220616d6f756e742065786365656473206260008201527f616c616e63650000000000000000000000000000000000000000000000000000602082015250565b6000611c0c602683611140565b9150611c1782611bb0565b604082019050919050565b60006020820190508181036000830152611c3b81611bff565b9050919050565b7f45524332303a206d696e7420746f20746865207a65726f206164647265737300600082015250565b6000611c78601f83611140565b9150611c8382611c42565b602082019050919050565b60006020820190508181036000830152611ca781611c6b565b905091905056fea2646970667358221220b564f9579d3407aafce757ae7fe64db2074f7b6cc5691153c297fc2bd9d8927064736f6c63430008130033516d5770666653675848426754336b4350756b6b774e44707a794a41727438766b674c6357773171533856746774",
					"opcodes": "PUSH1 0x80 PUSH1 0x40 MSTORE CALLVALUE DUP1 ISZERO PUSH3 0x11 JUMPI PUSH1 0x0 DUP1 REVERT JUMPDEST POP PUSH1 0x40 MLOAD DUP1 PUSH1 0x40 ADD PUSH1 0x40 MSTORE DUP1 PUSH1 0x5 DUP2 MSTORE PUSH1 0x20 ADD PUSH32 0x5465736C61000000000000000000000000000000000000000000000000000000 DUP2 MSTORE POP PUSH1 0x40 MLOAD DUP1 PUSH1 0x40 ADD PUSH1 0x40 MSTORE DUP1 PUSH1 0x3 DUP2 MSTORE PUSH1 0x20 ADD PUSH32 0x54534C0000000000000000000000000000000000000000000000000000000000 DUP2 MSTORE POP DUP2 PUSH1 0x3 SWAP1 DUP2 PUSH3 0x8F SWAP2 SWAP1 PUSH3 0x603 JUMP JUMPDEST POP DUP1 PUSH1 0x4 SWAP1 DUP2 PUSH3 0xA1 SWAP2 SWAP1 PUSH3 0x603 JUMP JUMPDEST POP POP POP PUSH3 0xC4 PUSH3 0xB8 PUSH3 0x13B PUSH1 0x20 SHL PUSH1 0x20 SHR JUMP JUMPDEST PUSH3 0x143 PUSH1 0x20 SHL PUSH1 0x20 SHR JUMP JUMPDEST PUSH3 0x10A CALLER PUSH3 0xD9 PUSH3 0x209 PUSH1 0x20 SHL PUSH1 0x20 SHR JUMP JUMPDEST PUSH1 0xA PUSH3 0xE7 SWAP2 SWAP1 PUSH3 0x87A JUMP JUMPDEST PUSH10 0xD3C21BCECCEDA1000000 PUSH3 0xFE SWAP2 SWAP1 PUSH3 0x8CB JUMP JUMPDEST PUSH3 0x212 PUSH1 0x20 SHL PUSH1 0x20 SHR JUMP JUMPDEST PUSH1 0x40 MLOAD DUP1 PUSH1 0x60 ADD PUSH1 0x40 MSTORE DUP1 PUSH1 0x2E DUP2 MSTORE PUSH1 0x20 ADD PUSH3 0x26F6 PUSH1 0x2E SWAP2 CODECOPY PUSH1 0x6 SWAP1 DUP2 PUSH3 0x134 SWAP2 SWAP1 PUSH3 0x603 JUMP JUMPDEST POP PUSH3 0xA02 JUMP JUMPDEST PUSH1 0x0 CALLER SWAP1 POP SWAP1 JUMP JUMPDEST PUSH1 0x0 PUSH1 0x5 PUSH1 0x0 SWAP1 SLOAD SWAP1 PUSH2 0x100 EXP SWAP1 DIV PUSH20 0xFFFFFFFFFFFFFFFFFFFFFFFFFFFFFFFFFFFFFFFF AND SWAP1 POP DUP2 PUSH1 0x5 PUSH1 0x0 PUSH2 0x100 EXP DUP2 SLOAD DUP2 PUSH20 0xFFFFFFFFFFFFFFFFFFFFFFFFFFFFFFFFFFFFFFFF MUL NOT AND SWAP1 DUP4 PUSH20 0xFFFFFFFFFFFFFFFFFFFFFFFFFFFFFFFFFFFFFFFF AND MUL OR SWAP1 SSTORE POP DUP2 PUSH20 0xFFFFFFFFFFFFFFFFFFFFFFFFFFFFFFFFFFFFFFFF AND DUP2 PUSH20 0xFFFFFFFFFFFFFFFFFFFFFFFFFFFFFFFFFFFFFFFF AND PUSH32 0x8BE0079C531659141344CD1FD0A4F28419497F9722A3DAAFE3B4186F6B6457E0 PUSH1 0x40 MLOAD PUSH1 0x40 MLOAD DUP1 SWAP2 SUB SWAP1 LOG3 POP POP JUMP JUMPDEST PUSH1 0x0 PUSH1 0x12 SWAP1 POP SWAP1 JUMP JUMPDEST PUSH1 0x0 PUSH20 0xFFFFFFFFFFFFFFFFFFFFFFFFFFFFFFFFFFFFFFFF AND DUP3 PUSH20 0xFFFFFFFFFFFFFFFFFFFFFFFFFFFFFFFFFFFFFFFF AND SUB PUSH3 0x284 JUMPI PUSH1 0x40 MLOAD PUSH32 0x8C379A000000000000000000000000000000000000000000000000000000000 DUP2 MSTORE PUSH1 0x4 ADD PUSH3 0x27B SWAP1 PUSH3 0x977 JUMP JUMPDEST PUSH1 0x40 MLOAD DUP1 SWAP2 SUB SWAP1 REVERT JUMPDEST PUSH3 0x298 PUSH1 0x0 DUP4 DUP4 PUSH3 0x37F PUSH1 0x20 SHL PUSH1 0x20 SHR JUMP JUMPDEST DUP1 PUSH1 0x2 PUSH1 0x0 DUP3 DUP3 SLOAD PUSH3 0x2AC SWAP2 SWAP1 PUSH3 0x999 JUMP JUMPDEST SWAP3 POP POP DUP2 SWAP1 SSTORE POP DUP1 PUSH1 0x0 DUP1 DUP5 PUSH20 0xFFFFFFFFFFFFFFFFFFFFFFFFFFFFFFFFFFFFFFFF AND PUSH20 0xFFFFFFFFFFFFFFFFFFFFFFFFFFFFFFFFFFFFFFFF AND DUP2 MSTORE PUSH1 0x20 ADD SWAP1 DUP2 MSTORE PUSH1 0x20 ADD PUSH1 0x0 KECCAK256 PUSH1 0x0 DUP3 DUP3 SLOAD ADD SWAP3 POP POP DUP2 SWAP1 SSTORE POP DUP2 PUSH20 0xFFFFFFFFFFFFFFFFFFFFFFFFFFFFFFFFFFFFFFFF AND PUSH1 0x0 PUSH20 0xFFFFFFFFFFFFFFFFFFFFFFFFFFFFFFFFFFFFFFFF AND PUSH32 0xDDF252AD1BE2C89B69C2B068FC378DAA952BA7F163C4A11628F55A4DF523B3EF DUP4 PUSH1 0x40 MLOAD PUSH3 0x35F SWAP2 SWAP1 PUSH3 0x9E5 JUMP JUMPDEST PUSH1 0x40 MLOAD DUP1 SWAP2 SUB SWAP1 LOG3 PUSH3 0x37B PUSH1 0x0 DUP4 DUP4 PUSH3 0x384 PUSH1 0x20 SHL PUSH1 0x20 SHR JUMP JUMPDEST POP POP JUMP JUMPDEST POP POP POP JUMP JUMPDEST POP POP POP JUMP JUMPDEST PUSH1 0x0 DUP2 MLOAD SWAP1 POP SWAP2 SWAP1 POP JUMP JUMPDEST PUSH32 0x4E487B7100000000000000000000000000000000000000000000000000000000 PUSH1 0x0 MSTORE PUSH1 0x41 PUSH1 0x4 MSTORE PUSH1 0x24 PUSH1 0x0 REVERT JUMPDEST PUSH32 0x4E487B7100000000000000000000000000000000000000000000000000000000 PUSH1 0x0 MSTORE PUSH1 0x22 PUSH1 0x4 MSTORE PUSH1 0x24 PUSH1 0x0 REVERT JUMPDEST PUSH1 0x0 PUSH1 0x2 DUP3 DIV SWAP1 POP PUSH1 0x1 DUP3 AND DUP1 PUSH3 0x40B JUMPI PUSH1 0x7F DUP3 AND SWAP2 POP JUMPDEST PUSH1 0x20 DUP3 LT DUP2 SUB PUSH3 0x421 JUMPI PUSH3 0x420 PUSH3 0x3C3 JUMP JUMPDEST JUMPDEST POP SWAP2 SWAP1 POP JUMP JUMPDEST PUSH1 0x0 DUP2 SWAP1 POP DUP2 PUSH1 0x0 MSTORE PUSH1 0x20 PUSH1 0x0 KECCAK256 SWAP1 POP SWAP2 SWAP1 POP JUMP JUMPDEST PUSH1 0x0 PUSH1 0x20 PUSH1 0x1F DUP4 ADD DIV SWAP1 POP SWAP2 SWAP1 POP JUMP JUMPDEST PUSH1 0x0 DUP3 DUP3 SHL SWAP1 POP SWAP3 SWAP2 POP POP JUMP JUMPDEST PUSH1 0x0 PUSH1 0x8 DUP4 MUL PUSH3 0x48B PUSH32 0xFFFFFFFFFFFFFFFFFFFFFFFFFFFFFFFFFFFFFFFFFFFFFFFFFFFFFFFFFFFFFFFF DUP3 PUSH3 0x44C JUMP JUMPDEST PUSH3 0x497 DUP7 DUP4 PUSH3 0x44C JUMP JUMPDEST SWAP6 POP DUP1 NOT DUP5 AND SWAP4 POP DUP1 DUP7 AND DUP5 OR SWAP3 POP POP POP SWAP4 SWAP3 POP POP POP JUMP JUMPDEST PUSH1 0x0 DUP2 SWAP1 POP SWAP2 SWAP1 POP JUMP JUMPDEST PUSH1 0x0 DUP2 SWAP1 POP SWAP2 SWAP1 POP JUMP JUMPDEST PUSH1 0x0 PUSH3 0x4E4 PUSH3 0x4DE PUSH3 0x4D8 DUP5 PUSH3 0x4AF JUMP JUMPDEST PUSH3 0x4B9 JUMP JUMPDEST PUSH3 0x4AF JUMP JUMPDEST SWAP1 POP SWAP2 SWAP1 POP JUMP JUMPDEST PUSH1 0x0 DUP2 SWAP1 POP SWAP2 SWAP1 POP JUMP JUMPDEST PUSH3 0x500 DUP4 PUSH3 0x4C3 JUMP JUMPDEST PUSH3 0x518 PUSH3 0x50F DUP3 PUSH3 0x4EB JUMP JUMPDEST DUP5 DUP5 SLOAD PUSH3 0x459 JUMP JUMPDEST DUP3 SSTORE POP POP POP POP JUMP JUMPDEST PUSH1 0x0 SWAP1 JUMP JUMPDEST PUSH3 0x52F PUSH3 0x520 JUMP JUMPDEST PUSH3 0x53C DUP2 DUP5 DUP5 PUSH3 0x4F5 JUMP JUMPDEST POP POP POP JUMP JUMPDEST JUMPDEST DUP2 DUP2 LT ISZERO PUSH3 0x564 JUMPI PUSH3 0x558 PUSH1 0x0 DUP3 PUSH3 0x525 JUMP JUMPDEST PUSH1 0x1 DUP2 ADD SWAP1 POP PUSH3 0x542 JUMP JUMPDEST POP POP JUMP JUMPDEST PUSH1 0x1F DUP3 GT ISZERO PUSH3 0x5B3 JUMPI PUSH3 0x57D DUP2 PUSH3 0x427 JUMP JUMPDEST PUSH3 0x588 DUP5 PUSH3 0x43C JUMP JUMPDEST DUP2 ADD PUSH1 0x20 DUP6 LT ISZERO PUSH3 0x598 JUMPI DUP2 SWAP1 POP JUMPDEST PUSH3 0x5B0 PUSH3 0x5A7 DUP6 PUSH3 0x43C JUMP JUMPDEST DUP4 ADD DUP3 PUSH3 0x541 JUMP JUMPDEST POP POP JUMPDEST POP POP POP JUMP JUMPDEST PUSH1 0x0 DUP3 DUP3 SHR SWAP1 POP SWAP3 SWAP2 POP POP JUMP JUMPDEST PUSH1 0x0 PUSH3 0x5D8 PUSH1 0x0 NOT DUP5 PUSH1 0x8 MUL PUSH3 0x5B8 JUMP JUMPDEST NOT DUP1 DUP4 AND SWAP2 POP POP SWAP3 SWAP2 POP POP JUMP JUMPDEST PUSH1 0x0 PUSH3 0x5F3 DUP4 DUP4 PUSH3 0x5C5 JUMP JUMPDEST SWAP2 POP DUP3 PUSH1 0x2 MUL DUP3 OR SWAP1 POP SWAP3 SWAP2 POP POP JUMP JUMPDEST PUSH3 0x60E DUP3 PUSH3 0x389 JUMP JUMPDEST PUSH8 0xFFFFFFFFFFFFFFFF DUP2 GT ISZERO PUSH3 0x62A JUMPI PUSH3 0x629 PUSH3 0x394 JUMP JUMPDEST JUMPDEST PUSH3 0x636 DUP3 SLOAD PUSH3 0x3F2 JUMP JUMPDEST PUSH3 0x643 DUP3 DUP3 DUP6 PUSH3 0x568 JUMP JUMPDEST PUSH1 0x0 PUSH1 0x20 SWAP1 POP PUSH1 0x1F DUP4 GT PUSH1 0x1 DUP2 EQ PUSH3 0x67B JUMPI PUSH1 0x0 DUP5 ISZERO PUSH3 0x666 JUMPI DUP3 DUP8 ADD MLOAD SWAP1 POP JUMPDEST PUSH3 0x672 DUP6 DUP3 PUSH3 0x5E5 JUMP JUMPDEST DUP7 SSTORE POP PUSH3 0x6E2 JUMP JUMPDEST PUSH1 0x1F NOT DUP5 AND PUSH3 0x68B DUP7 PUSH3 0x427 JUMP JUMPDEST PUSH1 0x0 JUMPDEST DUP3 DUP2 LT ISZERO PUSH3 0x6B5 JUMPI DUP5 DUP10 ADD MLOAD DUP3 SSTORE PUSH1 0x1 DUP3 ADD SWAP2 POP PUSH1 0x20 DUP6 ADD SWAP5 POP PUSH1 0x20 DUP2 ADD SWAP1 POP PUSH3 0x68E JUMP JUMPDEST DUP7 DUP4 LT ISZERO PUSH3 0x6D5 JUMPI DUP5 DUP10 ADD MLOAD PUSH3 0x6D1 PUSH1 0x1F DUP10 AND DUP3 PUSH3 0x5C5 JUMP JUMPDEST DUP4 SSTORE POP JUMPDEST PUSH1 0x1 PUSH1 0x2 DUP9 MUL ADD DUP9 SSTORE POP POP POP JUMPDEST POP POP POP POP POP POP JUMP JUMPDEST PUSH32 0x4E487B7100000000000000000000000000000000000000000000000000000000 PUSH1 0x0 MSTORE PUSH1 0x11 PUSH1 0x4 MSTORE PUSH1 0x24 PUSH1 0x0 REVERT JUMPDEST PUSH1 0x0 DUP2 PUSH1 0x1 SHR SWAP1 POP SWAP2 SWAP1 POP JUMP JUMPDEST PUSH1 0x0 DUP1 DUP3 SWAP2 POP DUP4 SWAP1 POP JUMPDEST PUSH1 0x1 DUP6 GT ISZERO PUSH3 0x778 JUMPI DUP1 DUP7 DIV DUP2 GT ISZERO PUSH3 0x750 JUMPI PUSH3 0x74F PUSH3 0x6EA JUMP JUMPDEST JUMPDEST PUSH1 0x1 DUP6 AND ISZERO PUSH3 0x760 JUMPI DUP1 DUP3 MUL SWAP2 POP JUMPDEST DUP1 DUP2 MUL SWAP1 POP PUSH3 0x770 DUP6 PUSH3 0x719 JUMP JUMPDEST SWAP5 POP PUSH3 0x730 JUMP JUMPDEST SWAP5 POP SWAP5 SWAP3 POP POP POP JUMP JUMPDEST PUSH1 0x0 DUP3 PUSH3 0x793 JUMPI PUSH1 0x1 SWAP1 POP PUSH3 0x866 JUMP JUMPDEST DUP2 PUSH3 0x7A3 JUMPI PUSH1 0x0 SWAP1 POP PUSH3 0x866 JUMP JUMPDEST DUP2 PUSH1 0x1 DUP2 EQ PUSH3 0x7BC JUMPI PUSH1 0x2 DUP2 EQ PUSH3 0x7C7 JUMPI PUSH3 0x7FD JUMP JUMPDEST PUSH1 0x1 SWAP2 POP POP PUSH3 0x866 JUMP JUMPDEST PUSH1 0xFF DUP5 GT ISZERO PUSH3 0x7DC JUMPI PUSH3 0x7DB PUSH3 0x6EA JUMP JUMPDEST JUMPDEST DUP4 PUSH1 0x2 EXP SWAP2 POP DUP5 DUP3 GT ISZERO PUSH3 0x7F6 JUMPI PUSH3 0x7F5 PUSH3 0x6EA JUMP JUMPDEST JUMPDEST POP PUSH3 0x866 JUMP JUMPDEST POP PUSH1 0x20 DUP4 LT PUSH2 0x133 DUP4 LT AND PUSH1 0x4E DUP5 LT PUSH1 0xB DUP5 LT AND OR ISZERO PUSH3 0x837 JUMPI DUP3 DUP3 EXP SWAP1 POP DUP4 DUP2 GT ISZERO PUSH3 0x831 JUMPI PUSH3 0x830 PUSH3 0x6EA JUMP JUMPDEST JUMPDEST PUSH3 0x866 JUMP JUMPDEST PUSH3 0x846 DUP5 DUP5 DUP5 PUSH1 0x1 PUSH3 0x726 JUMP JUMPDEST SWAP3 POP SWAP1 POP DUP2 DUP5 DIV DUP2 GT ISZERO PUSH3 0x860 JUMPI PUSH3 0x85F PUSH3 0x6EA JUMP JUMPDEST JUMPDEST DUP2 DUP2 MUL SWAP1 POP JUMPDEST SWAP4 SWAP3 POP POP POP JUMP JUMPDEST PUSH1 0x0 PUSH1 0xFF DUP3 AND SWAP1 POP SWAP2 SWAP1 POP JUMP JUMPDEST PUSH1 0x0 PUSH3 0x887 DUP3 PUSH3 0x4AF JUMP JUMPDEST SWAP2 POP PUSH3 0x894 DUP4 PUSH3 0x86D JUMP JUMPDEST SWAP3 POP PUSH3 0x8C3 PUSH32 0xFFFFFFFFFFFFFFFFFFFFFFFFFFFFFFFFFFFFFFFFFFFFFFFFFFFFFFFFFFFFFFFF DUP5 DUP5 PUSH3 0x781 JUMP JUMPDEST SWAP1 POP SWAP3 SWAP2 POP POP JUMP JUMPDEST PUSH1 0x0 PUSH3 0x8D8 DUP3 PUSH3 0x4AF JUMP JUMPDEST SWAP2 POP PUSH3 0x8E5 DUP4 PUSH3 0x4AF JUMP JUMPDEST SWAP3 POP DUP3 DUP3 MUL PUSH3 0x8F5 DUP2 PUSH3 0x4AF JUMP JUMPDEST SWAP2 POP DUP3 DUP3 DIV DUP5 EQ DUP4 ISZERO OR PUSH3 0x90F JUMPI PUSH3 0x90E PUSH3 0x6EA JUMP JUMPDEST JUMPDEST POP SWAP3 SWAP2 POP POP JUMP JUMPDEST PUSH1 0x0 DUP3 DUP3 MSTORE PUSH1 0x20 DUP3 ADD SWAP1 POP SWAP3 SWAP2 POP POP JUMP JUMPDEST PUSH32 0x45524332303A206D696E7420746F20746865207A65726F206164647265737300 PUSH1 0x0 DUP3 ADD MSTORE POP JUMP JUMPDEST PUSH1 0x0 PUSH3 0x95F PUSH1 0x1F DUP4 PUSH3 0x916 JUMP JUMPDEST SWAP2 POP PUSH3 0x96C DUP3 PUSH3 0x927 JUMP JUMPDEST PUSH1 0x20 DUP3 ADD SWAP1 POP SWAP2 SWAP1 POP JUMP JUMPDEST PUSH1 0x0 PUSH1 0x20 DUP3 ADD SWAP1 POP DUP2 DUP2 SUB PUSH1 0x0 DUP4 ADD MSTORE PUSH3 0x992 DUP2 PUSH3 0x950 JUMP JUMPDEST SWAP1 POP SWAP2 SWAP1 POP JUMP JUMPDEST PUSH1 0x0 PUSH3 0x9A6 DUP3 PUSH3 0x4AF JUMP JUMPDEST SWAP2 POP PUSH3 0x9B3 DUP4 PUSH3 0x4AF JUMP JUMPDEST SWAP3 POP DUP3 DUP3 ADD SWAP1 POP DUP1 DUP3 GT ISZERO PUSH3 0x9CE JUMPI PUSH3 0x9CD PUSH3 0x6EA JUMP JUMPDEST JUMPDEST SWAP3 SWAP2 POP POP JUMP JUMPDEST PUSH3 0x9DF DUP2 PUSH3 0x4AF JUMP JUMPDEST DUP3 MSTORE POP POP JUMP JUMPDEST PUSH1 0x0 PUSH1 0x20 DUP3 ADD SWAP1 POP PUSH3 0x9FC PUSH1 0x0 DUP4 ADD DUP5 PUSH3 0x9D4 JUMP JUMPDEST SWAP3 SWAP2 POP POP JUMP JUMPDEST PUSH2 0x1CE4 DUP1 PUSH3 0xA12 PUSH1 0x0 CODECOPY PUSH1 0x0 RETURN INVALID PUSH1 0x80 PUSH1 0x40 MSTORE CALLVALUE DUP1 ISZERO PUSH2 0x10 JUMPI PUSH1 0x0 DUP1 REVERT JUMPDEST POP PUSH1 0x4 CALLDATASIZE LT PUSH2 0x10B JUMPI PUSH1 0x0 CALLDATALOAD PUSH1 0xE0 SHR DUP1 PUSH4 0x70A08231 GT PUSH2 0xA2 JUMPI DUP1 PUSH4 0xA457C2D7 GT PUSH2 0x71 JUMPI DUP1 PUSH4 0xA457C2D7 EQ PUSH2 0x2A8 JUMPI DUP1 PUSH4 0xA9059CBB EQ PUSH2 0x2D8 JUMPI DUP1 PUSH4 0xDD62ED3E EQ PUSH2 0x308 JUMPI DUP1 PUSH4 0xDF7BE1CA EQ PUSH2 0x338 JUMPI DUP1 PUSH4 0xF2FDE38B EQ PUSH2 0x356 JUMPI PUSH2 0x10B JUMP JUMPDEST DUP1 PUSH4 0x70A08231 EQ PUSH2 0x232 JUMPI DUP1 PUSH4 0x715018A6 EQ PUSH2 0x262 JUMPI DUP1 PUSH4 0x8DA5CB5B EQ PUSH2 0x26C JUMPI DUP1 PUSH4 0x95D89B41 EQ PUSH2 0x28A JUMPI PUSH2 0x10B JUMP JUMPDEST DUP1 PUSH4 0x23B872DD GT PUSH2 0xDE JUMPI DUP1 PUSH4 0x23B872DD EQ PUSH2 0x198 JUMPI DUP1 PUSH4 0x313CE567 EQ PUSH2 0x1C8 JUMPI DUP1 PUSH4 0x39509351 EQ PUSH2 0x1E6 JUMPI DUP1 PUSH4 0x40C10F19 EQ PUSH2 0x216 JUMPI PUSH2 0x10B JUMP JUMPDEST DUP1 PUSH4 0x1C402FF EQ PUSH2 0x110 JUMPI DUP1 PUSH4 0x6FDDE03 EQ PUSH2 0x12C JUMPI DUP1 PUSH4 0x95EA7B3 EQ PUSH2 0x14A JUMPI DUP1 PUSH4 0x18160DDD EQ PUSH2 0x17A JUMPI JUMPDEST PUSH1 0x0 DUP1 REVERT JUMPDEST PUSH2 0x12A PUSH1 0x4 DUP1 CALLDATASIZE SUB DUP2 ADD SWAP1 PUSH2 0x125 SWAP2 SWAP1 PUSH2 0x10EC JUMP JUMPDEST PUSH2 0x372 JUMP JUMPDEST STOP JUMPDEST PUSH2 0x134 PUSH2 0x38D JUMP JUMPDEST PUSH1 0x40 MLOAD PUSH2 0x141 SWAP2 SWAP1 PUSH2 0x11B4 JUMP JUMPDEST PUSH1 0x40 MLOAD DUP1 SWAP2 SUB SWAP1 RETURN JUMPDEST PUSH2 0x164 PUSH1 0x4 DUP1 CALLDATASIZE SUB DUP2 ADD SWAP1 PUSH2 0x15F SWAP2 SWAP1 PUSH2 0x126A JUMP JUMPDEST PUSH2 0x41F JUMP JUMPDEST PUSH1 0x40 MLOAD PUSH2 0x171 SWAP2 SWAP1 PUSH2 0x12C5 JUMP JUMPDEST PUSH1 0x40 MLOAD DUP1 SWAP2 SUB SWAP1 RETURN JUMPDEST PUSH2 0x182 PUSH2 0x442 JUMP JUMPDEST PUSH1 0x40 MLOAD PUSH2 0x18F SWAP2 SWAP1 PUSH2 0x12EF JUMP JUMPDEST PUSH1 0x40 MLOAD DUP1 SWAP2 SUB SWAP1 RETURN JUMPDEST PUSH2 0x1B2 PUSH1 0x4 DUP1 CALLDATASIZE SUB DUP2 ADD SWAP1 PUSH2 0x1AD SWAP2 SWAP1 PUSH2 0x130A JUMP JUMPDEST PUSH2 0x44C JUMP JUMPDEST PUSH1 0x40 MLOAD PUSH2 0x1BF SWAP2 SWAP1 PUSH2 0x12C5 JUMP JUMPDEST PUSH1 0x40 MLOAD DUP1 SWAP2 SUB SWAP1 RETURN JUMPDEST PUSH2 0x1D0 PUSH2 0x47B JUMP JUMPDEST PUSH1 0x40 MLOAD PUSH2 0x1DD SWAP2 SWAP1 PUSH2 0x1379 JUMP JUMPDEST PUSH1 0x40 MLOAD DUP1 SWAP2 SUB SWAP1 RETURN JUMPDEST PUSH2 0x200 PUSH1 0x4 DUP1 CALLDATASIZE SUB DUP2 ADD SWAP1 PUSH2 0x1FB SWAP2 SWAP1 PUSH2 0x126A JUMP JUMPDEST PUSH2 0x484 JUMP JUMPDEST PUSH1 0x40 MLOAD PUSH2 0x20D SWAP2 SWAP1 PUSH2 0x12C5 JUMP JUMPDEST PUSH1 0x40 MLOAD DUP1 SWAP2 SUB SWAP1 RETURN JUMPDEST PUSH2 0x230 PUSH1 0x4 DUP1 CALLDATASIZE SUB DUP2 ADD SWAP1 PUSH2 0x22B SWAP2 SWAP1 PUSH2 0x126A JUMP JUMPDEST PUSH2 0x4BB JUMP JUMPDEST STOP JUMPDEST PUSH2 0x24C PUSH1 0x4 DUP1 CALLDATASIZE SUB DUP2 ADD SWAP1 PUSH2 0x247 SWAP2 SWAP1 PUSH2 0x1394 JUMP JUMPDEST PUSH2 0x4D1 JUMP JUMPDEST PUSH1 0x40 MLOAD PUSH2 0x259 SWAP2 SWAP1 PUSH2 0x12EF JUMP JUMPDEST PUSH1 0x40 MLOAD DUP1 SWAP2 SUB SWAP1 RETURN JUMPDEST PUSH2 0x26A PUSH2 0x519 JUMP JUMPDEST STOP JUMPDEST PUSH2 0x274 PUSH2 0x52D JUMP JUMPDEST PUSH1 0x40 MLOAD PUSH2 0x281 SWAP2 SWAP1 PUSH2 0x13D0 JUMP JUMPDEST PUSH1 0x40 MLOAD DUP1 SWAP2 SUB SWAP1 RETURN JUMPDEST PUSH2 0x292 PUSH2 0x557 JUMP JUMPDEST PUSH1 0x40 MLOAD PUSH2 0x29F SWAP2 SWAP1 PUSH2 0x11B4 JUMP JUMPDEST PUSH1 0x40 MLOAD DUP1 SWAP2 SUB SWAP1 RETURN JUMPDEST PUSH2 0x2C2 PUSH1 0x4 DUP1 CALLDATASIZE SUB DUP2 ADD SWAP1 PUSH2 0x2BD SWAP2 SWAP1 PUSH2 0x126A JUMP JUMPDEST PUSH2 0x5E9 JUMP JUMPDEST PUSH1 0x40 MLOAD PUSH2 0x2CF SWAP2 SWAP1 PUSH2 0x12C5 JUMP JUMPDEST PUSH1 0x40 MLOAD DUP1 SWAP2 SUB SWAP1 RETURN JUMPDEST PUSH2 0x2F2 PUSH1 0x4 DUP1 CALLDATASIZE SUB DUP2 ADD SWAP1 PUSH2 0x2ED SWAP2 SWAP1 PUSH2 0x126A JUMP JUMPDEST PUSH2 0x660 JUMP JUMPDEST PUSH1 0x40 MLOAD PUSH2 0x2FF SWAP2 SWAP1 PUSH2 0x12C5 JUMP JUMPDEST PUSH1 0x40 MLOAD DUP1 SWAP2 SUB SWAP1 RETURN JUMPDEST PUSH2 0x322 PUSH1 0x4 DUP1 CALLDATASIZE SUB DUP2 ADD SWAP1 PUSH2 0x31D SWAP2 SWAP1 PUSH2 0x13EB JUMP JUMPDEST PUSH2 0x683 JUMP JUMPDEST PUSH1 0x40 MLOAD PUSH2 0x32F SWAP2 SWAP1 PUSH2 0x12EF JUMP JUMPDEST PUSH1 0x40 MLOAD DUP1 SWAP2 SUB SWAP1 RETURN JUMPDEST PUSH2 0x340 PUSH2 0x70A JUMP JUMPDEST PUSH1 0x40 MLOAD PUSH2 0x34D SWAP2 SWAP1 PUSH2 0x11B4 JUMP JUMPDEST PUSH1 0x40 MLOAD DUP1 SWAP2 SUB SWAP1 RETURN JUMPDEST PUSH2 0x370 PUSH1 0x4 DUP1 CALLDATASIZE SUB DUP2 ADD SWAP1 PUSH2 0x36B SWAP2 SWAP1 PUSH2 0x1394 JUMP JUMPDEST PUSH2 0x798 JUMP JUMPDEST STOP JUMPDEST PUSH2 0x37A PUSH2 0x81B JUMP JUMPDEST DUP1 PUSH1 0x6 SWAP1 DUP2 PUSH2 0x389 SWAP2 SWAP1 PUSH2 0x1637 JUMP JUMPDEST POP POP JUMP JUMPDEST PUSH1 0x60 PUSH1 0x3 DUP1 SLOAD PUSH2 0x39C SWAP1 PUSH2 0x145A JUMP JUMPDEST DUP1 PUSH1 0x1F ADD PUSH1 0x20 DUP1 SWAP2 DIV MUL PUSH1 0x20 ADD PUSH1 0x40 MLOAD SWAP1 DUP2 ADD PUSH1 0x40 MSTORE DUP1 SWAP3 SWAP2 SWAP1 DUP2 DUP2 MSTORE PUSH1 0x20 ADD DUP3 DUP1 SLOAD PUSH2 0x3C8 SWAP1 PUSH2 0x145A JUMP JUMPDEST DUP1 ISZERO PUSH2 0x415 JUMPI DUP1 PUSH1 0x1F LT PUSH2 0x3EA JUMPI PUSH2 0x100 DUP1 DUP4 SLOAD DIV MUL DUP4 MSTORE SWAP2 PUSH1 0x20 ADD SWAP2 PUSH2 0x415 JUMP JUMPDEST DUP3 ADD SWAP2 SWAP1 PUSH1 0x0 MSTORE PUSH1 0x20 PUSH1 0x0 KECCAK256 SWAP1 JUMPDEST DUP2 SLOAD DUP2 MSTORE SWAP1 PUSH1 0x1 ADD SWAP1 PUSH1 0x20 ADD DUP1 DUP4 GT PUSH2 0x3F8 JUMPI DUP3 SWAP1 SUB PUSH1 0x1F AND DUP3 ADD SWAP2 JUMPDEST POP POP POP POP POP SWAP1 POP SWAP1 JUMP JUMPDEST PUSH1 0x0 DUP1 PUSH2 0x42A PUSH2 0x899 JUMP JUMPDEST SWAP1 POP PUSH2 0x437 DUP2 DUP6 DUP6 PUSH2 0x8A1 JUMP JUMPDEST PUSH1 0x1 SWAP2 POP POP SWAP3 SWAP2 POP POP JUMP JUMPDEST PUSH1 0x0 PUSH1 0x2 SLOAD SWAP1 POP SWAP1 JUMP JUMPDEST PUSH1 0x0 DUP1 PUSH2 0x457 PUSH2 0x899 JUMP JUMPDEST SWAP1 POP PUSH2 0x464 DUP6 DUP3 DUP6 PUSH2 0xA6A JUMP JUMPDEST PUSH2 0x46F DUP6 DUP6 DUP6 PUSH2 0xAF6 JUMP JUMPDEST PUSH1 0x1 SWAP2 POP POP SWAP4 SWAP3 POP POP POP JUMP JUMPDEST PUSH1 0x0 PUSH1 0x12 SWAP1 POP SWAP1 JUMP JUMPDEST PUSH1 0x0 DUP1 PUSH2 0x48F PUSH2 0x899 JUMP JUMPDEST SWAP1 POP PUSH2 0x4B0 DUP2 DUP6 DUP6 PUSH2 0x4A1 DUP6 DUP10 PUSH2 0x683 JUMP JUMPDEST PUSH2 0x4AB SWAP2 SWAP1 PUSH2 0x1738 JUMP JUMPDEST PUSH2 0x8A1 JUMP JUMPDEST PUSH1 0x1 SWAP2 POP POP SWAP3 SWAP2 POP POP JUMP JUMPDEST PUSH2 0x4C3 PUSH2 0x81B JUMP JUMPDEST PUSH2 0x4CD DUP3 DUP3 PUSH2 0xD6C JUMP JUMPDEST POP POP JUMP JUMPDEST PUSH1 0x0 DUP1 PUSH1 0x0 DUP4 PUSH20 0xFFFFFFFFFFFFFFFFFFFFFFFFFFFFFFFFFFFFFFFF AND PUSH20 0xFFFFFFFFFFFFFFFFFFFFFFFFFFFFFFFFFFFFFFFF AND DUP2 MSTORE PUSH1 0x20 ADD SWAP1 DUP2 MSTORE PUSH1 0x20 ADD PUSH1 0x0 KECCAK256 SLOAD SWAP1 POP SWAP2 SWAP1 POP JUMP JUMPDEST PUSH2 0x521 PUSH2 0x81B JUMP JUMPDEST PUSH2 0x52B PUSH1 0x0 PUSH2 0xEC2 JUMP JUMPDEST JUMP JUMPDEST PUSH1 0x0 PUSH1 0x5 PUSH1 0x0 SWAP1 SLOAD SWAP1 PUSH2 0x100 EXP SWAP1 DIV PUSH20 0xFFFFFFFFFFFFFFFFFFFFFFFFFFFFFFFFFFFFFFFF AND SWAP1 POP SWAP1 JUMP JUMPDEST PUSH1 0x60 PUSH1 0x4 DUP1 SLOAD PUSH2 0x566 SWAP1 PUSH2 0x145A JUMP JUMPDEST DUP1 PUSH1 0x1F ADD PUSH1 0x20 DUP1 SWAP2 DIV MUL PUSH1 0x20 ADD PUSH1 0x40 MLOAD SWAP1 DUP2 ADD PUSH1 0x40 MSTORE DUP1 SWAP3 SWAP2 SWAP1 DUP2 DUP2 MSTORE PUSH1 0x20 ADD DUP3 DUP1 SLOAD PUSH2 0x592 SWAP1 PUSH2 0x145A JUMP JUMPDEST DUP1 ISZERO PUSH2 0x5DF JUMPI DUP1 PUSH1 0x1F LT PUSH2 0x5B4 JUMPI PUSH2 0x100 DUP1 DUP4 SLOAD DIV MUL DUP4 MSTORE SWAP2 PUSH1 0x20 ADD SWAP2 PUSH2 0x5DF JUMP JUMPDEST DUP3 ADD SWAP2 SWAP1 PUSH1 0x0 MSTORE PUSH1 0x20 PUSH1 0x0 KECCAK256 SWAP1 JUMPDEST DUP2 SLOAD DUP2 MSTORE SWAP1 PUSH1 0x1 ADD SWAP1 PUSH1 0x20 ADD DUP1 DUP4 GT PUSH2 0x5C2 JUMPI DUP3 SWAP1 SUB PUSH1 0x1F AND DUP3 ADD SWAP2 JUMPDEST POP POP POP POP POP SWAP1 POP SWAP1 JUMP JUMPDEST PUSH1 0x0 DUP1 PUSH2 0x5F4 PUSH2 0x899 JUMP JUMPDEST SWAP1 POP PUSH1 0x0 PUSH2 0x602 DUP3 DUP7 PUSH2 0x683 JUMP JUMPDEST SWAP1 POP DUP4 DUP2 LT ISZERO PUSH2 0x647 JUMPI PUSH1 0x40 MLOAD PUSH32 0x8C379A000000000000000000000000000000000000000000000000000000000 DUP2 MSTORE PUSH1 0x4 ADD PUSH2 0x63E SWAP1 PUSH2 0x17DE JUMP JUMPDEST PUSH1 0x40 MLOAD DUP1 SWAP2 SUB SWAP1 REVERT JUMPDEST PUSH2 0x654 DUP3 DUP7 DUP7 DUP5 SUB PUSH2 0x8A1 JUMP JUMPDEST PUSH1 0x1 SWAP3 POP POP POP SWAP3 SWAP2 POP POP JUMP JUMPDEST PUSH1 0x0 DUP1 PUSH2 0x66B PUSH2 0x899 JUMP JUMPDEST SWAP1 POP PUSH2 0x678 DUP2 DUP6 DUP6 PUSH2 0xAF6 JUMP JUMPDEST PUSH1 0x1 SWAP2 POP POP SWAP3 SWAP2 POP POP JUMP JUMPDEST PUSH1 0x0 PUSH1 0x1 PUSH1 0x0 DUP5 PUSH20 0xFFFFFFFFFFFFFFFFFFFFFFFFFFFFFFFFFFFFFFFF AND PUSH20 0xFFFFFFFFFFFFFFFFFFFFFFFFFFFFFFFFFFFFFFFF AND DUP2 MSTORE PUSH1 0x20 ADD SWAP1 DUP2 MSTORE PUSH1 0x20 ADD PUSH1 0x0 KECCAK256 PUSH1 0x0 DUP4 PUSH20 0xFFFFFFFFFFFFFFFFFFFFFFFFFFFFFFFFFFFFFFFF AND PUSH20 0xFFFFFFFFFFFFFFFFFFFFFFFFFFFFFFFFFFFFFFFF AND DUP2 MSTORE PUSH1 0x20 ADD SWAP1 DUP2 MSTORE PUSH1 0x20 ADD PUSH1 0x0 KECCAK256 SLOAD SWAP1 POP SWAP3 SWAP2 POP POP JUMP JUMPDEST PUSH1 0x6 DUP1 SLOAD PUSH2 0x717 SWAP1 PUSH2 0x145A JUMP JUMPDEST DUP1 PUSH1 0x1F ADD PUSH1 0x20 DUP1 SWAP2 DIV MUL PUSH1 0x20 ADD PUSH1 0x40 MLOAD SWAP1 DUP2 ADD PUSH1 0x40 MSTORE DUP1 SWAP3 SWAP2 SWAP1 DUP2 DUP2 MSTORE PUSH1 0x20 ADD DUP3 DUP1 SLOAD PUSH2 0x743 SWAP1 PUSH2 0x145A JUMP JUMPDEST DUP1 ISZERO PUSH2 0x790 JUMPI DUP1 PUSH1 0x1F LT PUSH2 0x765 JUMPI PUSH2 0x100 DUP1 DUP4 SLOAD DIV MUL DUP4 MSTORE SWAP2 PUSH1 0x20 ADD SWAP2 PUSH2 0x790 JUMP JUMPDEST DUP3 ADD SWAP2 SWAP1 PUSH1 0x0 MSTORE PUSH1 0x20 PUSH1 0x0 KECCAK256 SWAP1 JUMPDEST DUP2 SLOAD DUP2 MSTORE SWAP1 PUSH1 0x1 ADD SWAP1 PUSH1 0x20 ADD DUP1 DUP4 GT PUSH2 0x773 JUMPI DUP3 SWAP1 SUB PUSH1 0x1F AND DUP3 ADD SWAP2 JUMPDEST POP POP POP POP POP DUP2 JUMP JUMPDEST PUSH2 0x7A0 PUSH2 0x81B JUMP JUMPDEST PUSH1 0x0 PUSH20 0xFFFFFFFFFFFFFFFFFFFFFFFFFFFFFFFFFFFFFFFF AND DUP2 PUSH20 0xFFFFFFFFFFFFFFFFFFFFFFFFFFFFFFFFFFFFFFFF AND SUB PUSH2 0x80F JUMPI PUSH1 0x40 MLOAD PUSH32 0x8C379A000000000000000000000000000000000000000000000000000000000 DUP2 MSTORE PUSH1 0x4 ADD PUSH2 0x806 SWAP1 PUSH2 0x1870 JUMP JUMPDEST PUSH1 0x40 MLOAD DUP1 SWAP2 SUB SWAP1 REVERT JUMPDEST PUSH2 0x818 DUP2 PUSH2 0xEC2 JUMP JUMPDEST POP JUMP JUMPDEST PUSH2 0x823 PUSH2 0x899 JUMP JUMPDEST PUSH20 0xFFFFFFFFFFFFFFFFFFFFFFFFFFFFFFFFFFFFFFFF AND PUSH2 0x841 PUSH2 0x52D JUMP JUMPDEST PUSH20 0xFFFFFFFFFFFFFFFFFFFFFFFFFFFFFFFFFFFFFFFF AND EQ PUSH2 0x897 JUMPI PUSH1 0x40 MLOAD PUSH32 0x8C379A000000000000000000000000000000000000000000000000000000000 DUP2 MSTORE PUSH1 0x4 ADD PUSH2 0x88E SWAP1 PUSH2 0x18DC JUMP JUMPDEST PUSH1 0x40 MLOAD DUP1 SWAP2 SUB SWAP1 REVERT JUMPDEST JUMP JUMPDEST PUSH1 0x0 CALLER SWAP1 POP SWAP1 JUMP JUMPDEST PUSH1 0x0 PUSH20 0xFFFFFFFFFFFFFFFFFFFFFFFFFFFFFFFFFFFFFFFF AND DUP4 PUSH20 0xFFFFFFFFFFFFFFFFFFFFFFFFFFFFFFFFFFFFFFFF AND SUB PUSH2 0x910 JUMPI PUSH1 0x40 MLOAD PUSH32 0x8C379A000000000000000000000000000000000000000000000000000000000 DUP2 MSTORE PUSH1 0x4 ADD PUSH2 0x907 SWAP1 PUSH2 0x196E JUMP JUMPDEST PUSH1 0x40 MLOAD DUP1 SWAP2 SUB SWAP1 REVERT JUMPDEST PUSH1 0x0 PUSH20 0xFFFFFFFFFFFFFFFFFFFFFFFFFFFFFFFFFFFFFFFF AND DUP3 PUSH20 0xFFFFFFFFFFFFFFFFFFFFFFFFFFFFFFFFFFFFFFFF AND SUB PUSH2 0x97F JUMPI PUSH1 0x40 MLOAD PUSH32 0x8C379A000000000000000000000000000000000000000000000000000000000 DUP2 MSTORE PUSH1 0x4 ADD PUSH2 0x976 SWAP1 PUSH2 0x1A00 JUMP JUMPDEST PUSH1 0x40 MLOAD DUP1 SWAP2 SUB SWAP1 REVERT JUMPDEST DUP1 PUSH1 0x1 PUSH1 0x0 DUP6 PUSH20 0xFFFFFFFFFFFFFFFFFFFFFFFFFFFFFFFFFFFFFFFF AND PUSH20 0xFFFFFFFFFFFFFFFFFFFFFFFFFFFFFFFFFFFFFFFF AND DUP2 MSTORE PUSH1 0x20 ADD SWAP1 DUP2 MSTORE PUSH1 0x20 ADD PUSH1 0x0 KECCAK256 PUSH1 0x0 DUP5 PUSH20 0xFFFFFFFFFFFFFFFFFFFFFFFFFFFFFFFFFFFFFFFF AND PUSH20 0xFFFFFFFFFFFFFFFFFFFFFFFFFFFFFFFFFFFFFFFF AND DUP2 MSTORE PUSH1 0x20 ADD SWAP1 DUP2 MSTORE PUSH1 0x20 ADD PUSH1 0x0 KECCAK256 DUP2 SWAP1 SSTORE POP DUP2 PUSH20 0xFFFFFFFFFFFFFFFFFFFFFFFFFFFFFFFFFFFFFFFF AND DUP4 PUSH20 0xFFFFFFFFFFFFFFFFFFFFFFFFFFFFFFFFFFFFFFFF AND PUSH32 0x8C5BE1E5EBEC7D5BD14F71427D1E84F3DD0314C0F7B2291E5B200AC8C7C3B925 DUP4 PUSH1 0x40 MLOAD PUSH2 0xA5D SWAP2 SWAP1 PUSH2 0x12EF JUMP JUMPDEST PUSH1 0x40 MLOAD DUP1 SWAP2 SUB SWAP1 LOG3 POP POP POP JUMP JUMPDEST PUSH1 0x0 PUSH2 0xA76 DUP5 DUP5 PUSH2 0x683 JUMP JUMPDEST SWAP1 POP PUSH32 0xFFFFFFFFFFFFFFFFFFFFFFFFFFFFFFFFFFFFFFFFFFFFFFFFFFFFFFFFFFFFFFFF DUP2 EQ PUSH2 0xAF0 JUMPI DUP2 DUP2 LT ISZERO PUSH2 0xAE2 JUMPI PUSH1 0x40 MLOAD PUSH32 0x8C379A000000000000000000000000000000000000000000000000000000000 DUP2 MSTORE PUSH1 0x4 ADD PUSH2 0xAD9 SWAP1 PUSH2 0x1A6C JUMP JUMPDEST PUSH1 0x40 MLOAD DUP1 SWAP2 SUB SWAP1 REVERT JUMPDEST PUSH2 0xAEF DUP5 DUP5 DUP5 DUP5 SUB PUSH2 0x8A1 JUMP JUMPDEST JUMPDEST POP POP POP POP JUMP JUMPDEST PUSH1 0x0 PUSH20 0xFFFFFFFFFFFFFFFFFFFFFFFFFFFFFFFFFFFFFFFF AND DUP4 PUSH20 0xFFFFFFFFFFFFFFFFFFFFFFFFFFFFFFFFFFFFFFFF AND SUB PUSH2 0xB65 JUMPI PUSH1 0x40 MLOAD PUSH32 0x8C379A000000000000000000000000000000000000000000000000000000000 DUP2 MSTORE PUSH1 0x4 ADD PUSH2 0xB5C SWAP1 PUSH2 0x1AFE JUMP JUMPDEST PUSH1 0x40 MLOAD DUP1 SWAP2 SUB SWAP1 REVERT JUMPDEST PUSH1 0x0 PUSH20 0xFFFFFFFFFFFFFFFFFFFFFFFFFFFFFFFFFFFFFFFF AND DUP3 PUSH20 0xFFFFFFFFFFFFFFFFFFFFFFFFFFFFFFFFFFFFFFFF AND SUB PUSH2 0xBD4 JUMPI PUSH1 0x40 MLOAD PUSH32 0x8C379A000000000000000000000000000000000000000000000000000000000 DUP2 MSTORE PUSH1 0x4 ADD PUSH2 0xBCB SWAP1 PUSH2 0x1B90 JUMP JUMPDEST PUSH1 0x40 MLOAD DUP1 SWAP2 SUB SWAP1 REVERT JUMPDEST PUSH2 0xBDF DUP4 DUP4 DUP4 PUSH2 0xF88 JUMP JUMPDEST PUSH1 0x0 DUP1 PUSH1 0x0 DUP6 PUSH20 0xFFFFFFFFFFFFFFFFFFFFFFFFFFFFFFFFFFFFFFFF AND PUSH20 0xFFFFFFFFFFFFFFFFFFFFFFFFFFFFFFFFFFFFFFFF AND DUP2 MSTORE PUSH1 0x20 ADD SWAP1 DUP2 MSTORE PUSH1 0x20 ADD PUSH1 0x0 KECCAK256 SLOAD SWAP1 POP DUP2 DUP2 LT ISZERO PUSH2 0xC65 JUMPI PUSH1 0x40 MLOAD PUSH32 0x8C379A000000000000000000000000000000000000000000000000000000000 DUP2 MSTORE PUSH1 0x4 ADD PUSH2 0xC5C SWAP1 PUSH2 0x1C22 JUMP JUMPDEST PUSH1 0x40 MLOAD DUP1 SWAP2 SUB SWAP1 REVERT JUMPDEST DUP2 DUP2 SUB PUSH1 0x0 DUP1 DUP7 PUSH20 0xFFFFFFFFFFFFFFFFFFFFFFFFFFFFFFFFFFFFFFFF AND PUSH20 0xFFFFFFFFFFFFFFFFFFFFFFFFFFFFFFFFFFFFFFFF AND DUP2 MSTORE PUSH1 0x20 ADD SWAP1 DUP2 MSTORE PUSH1 0x20 ADD PUSH1 0x0 KECCAK256 DUP2 SWAP1 SSTORE POP DUP2 PUSH1 0x0 DUP1 DUP6 PUSH20 0xFFFFFFFFFFFFFFFFFFFFFFFFFFFFFFFFFFFFFFFF AND PUSH20 0xFFFFFFFFFFFFFFFFFFFFFFFFFFFFFFFFFFFFFFFF AND DUP2 MSTORE PUSH1 0x20 ADD SWAP1 DUP2 MSTORE PUSH1 0x20 ADD PUSH1 0x0 KECCAK256 PUSH1 0x0 DUP3 DUP3 SLOAD ADD SWAP3 POP POP DUP2 SWAP1 SSTORE POP DUP3 PUSH20 0xFFFFFFFFFFFFFFFFFFFFFFFFFFFFFFFFFFFFFFFF AND DUP5 PUSH20 0xFFFFFFFFFFFFFFFFFFFFFFFFFFFFFFFFFFFFFFFF AND PUSH32 0xDDF252AD1BE2C89B69C2B068FC378DAA952BA7F163C4A11628F55A4DF523B3EF DUP5 PUSH1 0x40 MLOAD PUSH2 0xD53 SWAP2 SWAP1 PUSH2 0x12EF JUMP JUMPDEST PUSH1 0x40 MLOAD DUP1 SWAP2 SUB SWAP1 LOG3 PUSH2 0xD66 DUP5 DUP5 DUP5 PUSH2 0xF8D JUMP JUMPDEST POP POP POP POP JUMP JUMPDEST PUSH1 0x0 PUSH20 0xFFFFFFFFFFFFFFFFFFFFFFFFFFFFFFFFFFFFFFFF AND DUP3 PUSH20 0xFFFFFFFFFFFFFFFFFFFFFFFFFFFFFFFFFFFFFFFF AND SUB PUSH2 0xDDB JUMPI PUSH1 0x40 MLOAD PUSH32 0x8C379A000000000000000000000000000000000000000000000000000000000 DUP2 MSTORE PUSH1 0x4 ADD PUSH2 0xDD2 SWAP1 PUSH2 0x1C8E JUMP JUMPDEST PUSH1 0x40 MLOAD DUP1 SWAP2 SUB SWAP1 REVERT JUMPDEST PUSH2 0xDE7 PUSH1 0x0 DUP4 DUP4 PUSH2 0xF88 JUMP JUMPDEST DUP1 PUSH1 0x2 PUSH1 0x0 DUP3 DUP3 SLOAD PUSH2 0xDF9 SWAP2 SWAP1 PUSH2 0x1738 JUMP JUMPDEST SWAP3 POP POP DUP2 SWAP1 SSTORE POP DUP1 PUSH1 0x0 DUP1 DUP5 PUSH20 0xFFFFFFFFFFFFFFFFFFFFFFFFFFFFFFFFFFFFFFFF AND PUSH20 0xFFFFFFFFFFFFFFFFFFFFFFFFFFFFFFFFFFFFFFFF AND DUP2 MSTORE PUSH1 0x20 ADD SWAP1 DUP2 MSTORE PUSH1 0x20 ADD PUSH1 0x0 KECCAK256 PUSH1 0x0 DUP3 DUP3 SLOAD ADD SWAP3 POP POP DUP2 SWAP1 SSTORE POP DUP2 PUSH20 0xFFFFFFFFFFFFFFFFFFFFFFFFFFFFFFFFFFFFFFFF AND PUSH1 0x0 PUSH20 0xFFFFFFFFFFFFFFFFFFFFFFFFFFFFFFFFFFFFFFFF AND PUSH32 0xDDF252AD1BE2C89B69C2B068FC378DAA952BA7F163C4A11628F55A4DF523B3EF DUP4 PUSH1 0x40 MLOAD PUSH2 0xEAA SWAP2 SWAP1 PUSH2 0x12EF JUMP JUMPDEST PUSH1 0x40 MLOAD DUP1 SWAP2 SUB SWAP1 LOG3 PUSH2 0xEBE PUSH1 0x0 DUP4 DUP4 PUSH2 0xF8D JUMP JUMPDEST POP POP JUMP JUMPDEST PUSH1 0x0 PUSH1 0x5 PUSH1 0x0 SWAP1 SLOAD SWAP1 PUSH2 0x100 EXP SWAP1 DIV PUSH20 0xFFFFFFFFFFFFFFFFFFFFFFFFFFFFFFFFFFFFFFFF AND SWAP1 POP DUP2 PUSH1 0x5 PUSH1 0x0 PUSH2 0x100 EXP DUP2 SLOAD DUP2 PUSH20 0xFFFFFFFFFFFFFFFFFFFFFFFFFFFFFFFFFFFFFFFF MUL NOT AND SWAP1 DUP4 PUSH20 0xFFFFFFFFFFFFFFFFFFFFFFFFFFFFFFFFFFFFFFFF AND MUL OR SWAP1 SSTORE POP DUP2 PUSH20 0xFFFFFFFFFFFFFFFFFFFFFFFFFFFFFFFFFFFFFFFF AND DUP2 PUSH20 0xFFFFFFFFFFFFFFFFFFFFFFFFFFFFFFFFFFFFFFFF AND PUSH32 0x8BE0079C531659141344CD1FD0A4F28419497F9722A3DAAFE3B4186F6B6457E0 PUSH1 0x40 MLOAD PUSH1 0x40 MLOAD DUP1 SWAP2 SUB SWAP1 LOG3 POP POP JUMP JUMPDEST POP POP POP JUMP JUMPDEST POP POP POP JUMP JUMPDEST PUSH1 0x0 PUSH1 0x40 MLOAD SWAP1 POP SWAP1 JUMP JUMPDEST PUSH1 0x0 DUP1 REVERT JUMPDEST PUSH1 0x0 DUP1 REVERT JUMPDEST PUSH1 0x0 DUP1 REVERT JUMPDEST PUSH1 0x0 DUP1 REVERT JUMPDEST PUSH1 0x0 PUSH1 0x1F NOT PUSH1 0x1F DUP4 ADD AND SWAP1 POP SWAP2 SWAP1 POP JUMP JUMPDEST PUSH32 0x4E487B7100000000000000000000000000000000000000000000000000000000 PUSH1 0x0 MSTORE PUSH1 0x41 PUSH1 0x4 MSTORE PUSH1 0x24 PUSH1 0x0 REVERT JUMPDEST PUSH2 0xFF9 DUP3 PUSH2 0xFB0 JUMP JUMPDEST DUP2 ADD DUP2 DUP2 LT PUSH8 0xFFFFFFFFFFFFFFFF DUP3 GT OR ISZERO PUSH2 0x1018 JUMPI PUSH2 0x1017 PUSH2 0xFC1 JUMP JUMPDEST JUMPDEST DUP1 PUSH1 0x40 MSTORE POP POP POP JUMP JUMPDEST PUSH1 0x0 PUSH2 0x102B PUSH2 0xF92 JUMP JUMPDEST SWAP1 POP PUSH2 0x1037 DUP3 DUP3 PUSH2 0xFF0 JUMP JUMPDEST SWAP2 SWAP1 POP JUMP JUMPDEST PUSH1 0x0 PUSH8 0xFFFFFFFFFFFFFFFF DUP3 GT ISZERO PUSH2 0x1057 JUMPI PUSH2 0x1056 PUSH2 0xFC1 JUMP JUMPDEST JUMPDEST PUSH2 0x1060 DUP3 PUSH2 0xFB0 JUMP JUMPDEST SWAP1 POP PUSH1 0x20 DUP2 ADD SWAP1 POP SWAP2 SWAP1 POP JUMP JUMPDEST DUP3 DUP2 DUP4 CALLDATACOPY PUSH1 0x0 DUP4 DUP4 ADD MSTORE POP POP POP JUMP JUMPDEST PUSH1 0x0 PUSH2 0x108F PUSH2 0x108A DUP5 PUSH2 0x103C JUMP JUMPDEST PUSH2 0x1021 JUMP JUMPDEST SWAP1 POP DUP3 DUP2 MSTORE PUSH1 0x20 DUP2 ADD DUP5 DUP5 DUP5 ADD GT ISZERO PUSH2 0x10AB JUMPI PUSH2 0x10AA PUSH2 0xFAB JUMP JUMPDEST JUMPDEST PUSH2 0x10B6 DUP5 DUP3 DUP6 PUSH2 0x106D JUMP JUMPDEST POP SWAP4 SWAP3 POP POP POP JUMP JUMPDEST PUSH1 0x0 DUP3 PUSH1 0x1F DUP4 ADD SLT PUSH2 0x10D3 JUMPI PUSH2 0x10D2 PUSH2 0xFA6 JUMP JUMPDEST JUMPDEST DUP2 CALLDATALOAD PUSH2 0x10E3 DUP5 DUP3 PUSH1 0x20 DUP7 ADD PUSH2 0x107C JUMP JUMPDEST SWAP2 POP POP SWAP3 SWAP2 POP POP JUMP JUMPDEST PUSH1 0x0 PUSH1 0x20 DUP3 DUP5 SUB SLT ISZERO PUSH2 0x1102 JUMPI PUSH2 0x1101 PUSH2 0xF9C JUMP JUMPDEST JUMPDEST PUSH1 0x0 DUP3 ADD CALLDATALOAD PUSH8 0xFFFFFFFFFFFFFFFF DUP2 GT ISZERO PUSH2 0x1120 JUMPI PUSH2 0x111F PUSH2 0xFA1 JUMP JUMPDEST JUMPDEST PUSH2 0x112C DUP5 DUP3 DUP6 ADD PUSH2 0x10BE JUMP JUMPDEST SWAP2 POP POP SWAP3 SWAP2 POP POP JUMP JUMPDEST PUSH1 0x0 DUP2 MLOAD SWAP1 POP SWAP2 SWAP1 POP JUMP JUMPDEST PUSH1 0x0 DUP3 DUP3 MSTORE PUSH1 0x20 DUP3 ADD SWAP1 POP SWAP3 SWAP2 POP POP JUMP JUMPDEST PUSH1 0x0 JUMPDEST DUP4 DUP2 LT ISZERO PUSH2 0x116F JUMPI DUP1 DUP3 ADD MLOAD DUP2 DUP5 ADD MSTORE PUSH1 0x20 DUP2 ADD SWAP1 POP PUSH2 0x1154 JUMP JUMPDEST PUSH1 0x0 DUP5 DUP5 ADD MSTORE POP POP POP POP JUMP JUMPDEST PUSH1 0x0 PUSH2 0x1186 DUP3 PUSH2 0x1135 JUMP JUMPDEST PUSH2 0x1190 DUP2 DUP6 PUSH2 0x1140 JUMP JUMPDEST SWAP4 POP PUSH2 0x11A0 DUP2 DUP6 PUSH1 0x20 DUP7 ADD PUSH2 0x1151 JUMP JUMPDEST PUSH2 0x11A9 DUP2 PUSH2 0xFB0 JUMP JUMPDEST DUP5 ADD SWAP2 POP POP SWAP3 SWAP2 POP POP JUMP JUMPDEST PUSH1 0x0 PUSH1 0x20 DUP3 ADD SWAP1 POP DUP2 DUP2 SUB PUSH1 0x0 DUP4 ADD MSTORE PUSH2 0x11CE DUP2 DUP5 PUSH2 0x117B JUMP JUMPDEST SWAP1 POP SWAP3 SWAP2 POP POP JUMP JUMPDEST PUSH1 0x0 PUSH20 0xFFFFFFFFFFFFFFFFFFFFFFFFFFFFFFFFFFFFFFFF DUP3 AND SWAP1 POP SWAP2 SWAP1 POP JUMP JUMPDEST PUSH1 0x0 PUSH2 0x1201 DUP3 PUSH2 0x11D6 JUMP JUMPDEST SWAP1 POP SWAP2 SWAP1 POP JUMP JUMPDEST PUSH2 0x1211 DUP2 PUSH2 0x11F6 JUMP JUMPDEST DUP2 EQ PUSH2 0x121C JUMPI PUSH1 0x0 DUP1 REVERT JUMPDEST POP JUMP JUMPDEST PUSH1 0x0 DUP2 CALLDATALOAD SWAP1 POP PUSH2 0x122E DUP2 PUSH2 0x1208 JUMP JUMPDEST SWAP3 SWAP2 POP POP JUMP JUMPDEST PUSH1 0x0 DUP2 SWAP1 POP SWAP2 SWAP1 POP JUMP JUMPDEST PUSH2 0x1247 DUP2 PUSH2 0x1234 JUMP JUMPDEST DUP2 EQ PUSH2 0x1252 JUMPI PUSH1 0x0 DUP1 REVERT JUMPDEST POP JUMP JUMPDEST PUSH1 0x0 DUP2 CALLDATALOAD SWAP1 POP PUSH2 0x1264 DUP2 PUSH2 0x123E JUMP JUMPDEST SWAP3 SWAP2 POP POP JUMP JUMPDEST PUSH1 0x0 DUP1 PUSH1 0x40 DUP4 DUP6 SUB SLT ISZERO PUSH2 0x1281 JUMPI PUSH2 0x1280 PUSH2 0xF9C JUMP JUMPDEST JUMPDEST PUSH1 0x0 PUSH2 0x128F DUP6 DUP3 DUP7 ADD PUSH2 0x121F JUMP JUMPDEST SWAP3 POP POP PUSH1 0x20 PUSH2 0x12A0 DUP6 DUP3 DUP7 ADD PUSH2 0x1255 JUMP JUMPDEST SWAP2 POP POP SWAP3 POP SWAP3 SWAP1 POP JUMP JUMPDEST PUSH1 0x0 DUP2 ISZERO ISZERO SWAP1 POP SWAP2 SWAP1 POP JUMP JUMPDEST PUSH2 0x12BF DUP2 PUSH2 0x12AA JUMP JUMPDEST DUP3 MSTORE POP POP JUMP JUMPDEST PUSH1 0x0 PUSH1 0x20 DUP3 ADD SWAP1 POP PUSH2 0x12DA PUSH1 0x0 DUP4 ADD DUP5 PUSH2 0x12B6 JUMP JUMPDEST SWAP3 SWAP2 POP POP JUMP JUMPDEST PUSH2 0x12E9 DUP2 PUSH2 0x1234 JUMP JUMPDEST DUP3 MSTORE POP POP JUMP JUMPDEST PUSH1 0x0 PUSH1 0x20 DUP3 ADD SWAP1 POP PUSH2 0x1304 PUSH1 0x0 DUP4 ADD DUP5 PUSH2 0x12E0 JUMP JUMPDEST SWAP3 SWAP2 POP POP JUMP JUMPDEST PUSH1 0x0 DUP1 PUSH1 0x0 PUSH1 0x60 DUP5 DUP7 SUB SLT ISZERO PUSH2 0x1323 JUMPI PUSH2 0x1322 PUSH2 0xF9C JUMP JUMPDEST JUMPDEST PUSH1 0x0 PUSH2 0x1331 DUP7 DUP3 DUP8 ADD PUSH2 0x121F JUMP JUMPDEST SWAP4 POP POP PUSH1 0x20 PUSH2 0x1342 DUP7 DUP3 DUP8 ADD PUSH2 0x121F JUMP JUMPDEST SWAP3 POP POP PUSH1 0x40 PUSH2 0x1353 DUP7 DUP3 DUP8 ADD PUSH2 0x1255 JUMP JUMPDEST SWAP2 POP POP SWAP3 POP SWAP3 POP SWAP3 JUMP JUMPDEST PUSH1 0x0 PUSH1 0xFF DUP3 AND SWAP1 POP SWAP2 SWAP1 POP JUMP JUMPDEST PUSH2 0x1373 DUP2 PUSH2 0x135D JUMP JUMPDEST DUP3 MSTORE POP POP JUMP JUMPDEST PUSH1 0x0 PUSH1 0x20 DUP3 ADD SWAP1 POP PUSH2 0x138E PUSH1 0x0 DUP4 ADD DUP5 PUSH2 0x136A JUMP JUMPDEST SWAP3 SWAP2 POP POP JUMP JUMPDEST PUSH1 0x0 PUSH1 0x20 DUP3 DUP5 SUB SLT ISZERO PUSH2 0x13AA JUMPI PUSH2 0x13A9 PUSH2 0xF9C JUMP JUMPDEST JUMPDEST PUSH1 0x0 PUSH2 0x13B8 DUP5 DUP3 DUP6 ADD PUSH2 0x121F JUMP JUMPDEST SWAP2 POP POP SWAP3 SWAP2 POP POP JUMP JUMPDEST PUSH2 0x13CA DUP2 PUSH2 0x11F6 JUMP JUMPDEST DUP3 MSTORE POP POP JUMP JUMPDEST PUSH1 0x0 PUSH1 0x20 DUP3 ADD SWAP1 POP PUSH2 0x13E5 PUSH1 0x0 DUP4 ADD DUP5 PUSH2 0x13C1 JUMP JUMPDEST SWAP3 SWAP2 POP POP JUMP JUMPDEST PUSH1 0x0 DUP1 PUSH1 0x40 DUP4 DUP6 SUB SLT ISZERO PUSH2 0x1402 JUMPI PUSH2 0x1401 PUSH2 0xF9C JUMP JUMPDEST JUMPDEST PUSH1 0x0 PUSH2 0x1410 DUP6 DUP3 DUP7 ADD PUSH2 0x121F JUMP JUMPDEST SWAP3 POP POP PUSH1 0x20 PUSH2 0x1421 DUP6 DUP3 DUP7 ADD PUSH2 0x121F JUMP JUMPDEST SWAP2 POP POP SWAP3 POP SWAP3 SWAP1 POP JUMP JUMPDEST PUSH32 0x4E487B7100000000000000000000000000000000000000000000000000000000 PUSH1 0x0 MSTORE PUSH1 0x22 PUSH1 0x4 MSTORE PUSH1 0x24 PUSH1 0x0 REVERT JUMPDEST PUSH1 0x0 PUSH1 0x2 DUP3 DIV SWAP1 POP PUSH1 0x1 DUP3 AND DUP1 PUSH2 0x1472 JUMPI PUSH1 0x7F DUP3 AND SWAP2 POP JUMPDEST PUSH1 0x20 DUP3 LT DUP2 SUB PUSH2 0x1485 JUMPI PUSH2 0x1484 PUSH2 0x142B JUMP JUMPDEST JUMPDEST POP SWAP2 SWAP1 POP JUMP JUMPDEST PUSH1 0x0 DUP2 SWAP1 POP DUP2 PUSH1 0x0 MSTORE PUSH1 0x20 PUSH1 0x0 KECCAK256 SWAP1 POP SWAP2 SWAP1 POP JUMP JUMPDEST PUSH1 0x0 PUSH1 0x20 PUSH1 0x1F DUP4 ADD DIV SWAP1 POP SWAP2 SWAP1 POP JUMP JUMPDEST PUSH1 0x0 DUP3 DUP3 SHL SWAP1 POP SWAP3 SWAP2 POP POP JUMP JUMPDEST PUSH1 0x0 PUSH1 0x8 DUP4 MUL PUSH2 0x14ED PUSH32 0xFFFFFFFFFFFFFFFFFFFFFFFFFFFFFFFFFFFFFFFFFFFFFFFFFFFFFFFFFFFFFFFF DUP3 PUSH2 0x14B0 JUMP JUMPDEST PUSH2 0x14F7 DUP7 DUP4 PUSH2 0x14B0 JUMP JUMPDEST SWAP6 POP DUP1 NOT DUP5 AND SWAP4 POP DUP1 DUP7 AND DUP5 OR SWAP3 POP POP POP SWAP4 SWAP3 POP POP POP JUMP JUMPDEST PUSH1 0x0 DUP2 SWAP1 POP SWAP2 SWAP1 POP JUMP JUMPDEST PUSH1 0x0 PUSH2 0x1534 PUSH2 0x152F PUSH2 0x152A DUP5 PUSH2 0x1234 JUMP JUMPDEST PUSH2 0x150F JUMP JUMPDEST PUSH2 0x1234 JUMP JUMPDEST SWAP1 POP SWAP2 SWAP1 POP JUMP JUMPDEST PUSH1 0x0 DUP2 SWAP1 POP SWAP2 SWAP1 POP JUMP JUMPDEST PUSH2 0x154E DUP4 PUSH2 0x1519 JUMP JUMPDEST PUSH2 0x1562 PUSH2 0x155A DUP3 PUSH2 0x153B JUMP JUMPDEST DUP5 DUP5 SLOAD PUSH2 0x14BD JUMP JUMPDEST DUP3 SSTORE POP POP POP POP JUMP JUMPDEST PUSH1 0x0 SWAP1 JUMP JUMPDEST PUSH2 0x1577 PUSH2 0x156A JUMP JUMPDEST PUSH2 0x1582 DUP2 DUP5 DUP5 PUSH2 0x1545 JUMP JUMPDEST POP POP POP JUMP JUMPDEST JUMPDEST DUP2 DUP2 LT ISZERO PUSH2 0x15A6 JUMPI PUSH2 0x159B PUSH1 0x0 DUP3 PUSH2 0x156F JUMP JUMPDEST PUSH1 0x1 DUP2 ADD SWAP1 POP PUSH2 0x1588 JUMP JUMPDEST POP POP JUMP JUMPDEST PUSH1 0x1F DUP3 GT ISZERO PUSH2 0x15EB JUMPI PUSH2 0x15BC DUP2 PUSH2 0x148B JUMP JUMPDEST PUSH2 0x15C5 DUP5 PUSH2 0x14A0 JUMP JUMPDEST DUP2 ADD PUSH1 0x20 DUP6 LT ISZERO PUSH2 0x15D4 JUMPI DUP2 SWAP1 POP JUMPDEST PUSH2 0x15E8 PUSH2 0x15E0 DUP6 PUSH2 0x14A0 JUMP JUMPDEST DUP4 ADD DUP3 PUSH2 0x1587 JUMP JUMPDEST POP POP JUMPDEST POP POP POP JUMP JUMPDEST PUSH1 0x0 DUP3 DUP3 SHR SWAP1 POP SWAP3 SWAP2 POP POP JUMP JUMPDEST PUSH1 0x0 PUSH2 0x160E PUSH1 0x0 NOT DUP5 PUSH1 0x8 MUL PUSH2 0x15F0 JUMP JUMPDEST NOT DUP1 DUP4 AND SWAP2 POP POP SWAP3 SWAP2 POP POP JUMP JUMPDEST PUSH1 0x0 PUSH2 0x1627 DUP4 DUP4 PUSH2 0x15FD JUMP JUMPDEST SWAP2 POP DUP3 PUSH1 0x2 MUL DUP3 OR SWAP1 POP SWAP3 SWAP2 POP POP JUMP JUMPDEST PUSH2 0x1640 DUP3 PUSH2 0x1135 JUMP JUMPDEST PUSH8 0xFFFFFFFFFFFFFFFF DUP2 GT ISZERO PUSH2 0x1659 JUMPI PUSH2 0x1658 PUSH2 0xFC1 JUMP JUMPDEST JUMPDEST PUSH2 0x1663 DUP3 SLOAD PUSH2 0x145A JUMP JUMPDEST PUSH2 0x166E DUP3 DUP3 DUP6 PUSH2 0x15AA JUMP JUMPDEST PUSH1 0x0 PUSH1 0x20 SWAP1 POP PUSH1 0x1F DUP4 GT PUSH1 0x1 DUP2 EQ PUSH2 0x16A1 JUMPI PUSH1 0x0 DUP5 ISZERO PUSH2 0x168F JUMPI DUP3 DUP8 ADD MLOAD SWAP1 POP JUMPDEST PUSH2 0x1699 DUP6 DUP3 PUSH2 0x161B JUMP JUMPDEST DUP7 SSTORE POP PUSH2 0x1701 JUMP JUMPDEST PUSH1 0x1F NOT DUP5 AND PUSH2 0x16AF DUP7 PUSH2 0x148B JUMP JUMPDEST PUSH1 0x0 JUMPDEST DUP3 DUP2 LT ISZERO PUSH2 0x16D7 JUMPI DUP5 DUP10 ADD MLOAD DUP3 SSTORE PUSH1 0x1 DUP3 ADD SWAP2 POP PUSH1 0x20 DUP6 ADD SWAP5 POP PUSH1 0x20 DUP2 ADD SWAP1 POP PUSH2 0x16B2 JUMP JUMPDEST DUP7 DUP4 LT ISZERO PUSH2 0x16F4 JUMPI DUP5 DUP10 ADD MLOAD PUSH2 0x16F0 PUSH1 0x1F DUP10 AND DUP3 PUSH2 0x15FD JUMP JUMPDEST DUP4 SSTORE POP JUMPDEST PUSH1 0x1 PUSH1 0x2 DUP9 MUL ADD DUP9 SSTORE POP POP POP JUMPDEST POP POP POP POP POP POP JUMP JUMPDEST PUSH32 0x4E487B7100000000000000000000000000000000000000000000000000000000 PUSH1 0x0 MSTORE PUSH1 0x11 PUSH1 0x4 MSTORE PUSH1 0x24 PUSH1 0x0 REVERT JUMPDEST PUSH1 0x0 PUSH2 0x1743 DUP3 PUSH2 0x1234 JUMP JUMPDEST SWAP2 POP PUSH2 0x174E DUP4 PUSH2 0x1234 JUMP JUMPDEST SWAP3 POP DUP3 DUP3 ADD SWAP1 POP DUP1 DUP3 GT ISZERO PUSH2 0x1766 JUMPI PUSH2 0x1765 PUSH2 0x1709 JUMP JUMPDEST JUMPDEST SWAP3 SWAP2 POP POP JUMP JUMPDEST PUSH32 0x45524332303A2064656372656173656420616C6C6F77616E63652062656C6F77 PUSH1 0x0 DUP3 ADD MSTORE PUSH32 0x207A65726F000000000000000000000000000000000000000000000000000000 PUSH1 0x20 DUP3 ADD MSTORE POP JUMP JUMPDEST PUSH1 0x0 PUSH2 0x17C8 PUSH1 0x25 DUP4 PUSH2 0x1140 JUMP JUMPDEST SWAP2 POP PUSH2 0x17D3 DUP3 PUSH2 0x176C JUMP JUMPDEST PUSH1 0x40 DUP3 ADD SWAP1 POP SWAP2 SWAP1 POP JUMP JUMPDEST PUSH1 0x0 PUSH1 0x20 DUP3 ADD SWAP1 POP DUP2 DUP2 SUB PUSH1 0x0 DUP4 ADD MSTORE PUSH2 0x17F7 DUP2 PUSH2 0x17BB JUMP JUMPDEST SWAP1 POP SWAP2 SWAP1 POP JUMP JUMPDEST PUSH32 0x4F776E61626C653A206E6577206F776E657220697320746865207A65726F2061 PUSH1 0x0 DUP3 ADD MSTORE PUSH32 0x6464726573730000000000000000000000000000000000000000000000000000 PUSH1 0x20 DUP3 ADD MSTORE POP JUMP JUMPDEST PUSH1 0x0 PUSH2 0x185A PUSH1 0x26 DUP4 PUSH2 0x1140 JUMP JUMPDEST SWAP2 POP PUSH2 0x1865 DUP3 PUSH2 0x17FE JUMP JUMPDEST PUSH1 0x40 DUP3 ADD SWAP1 POP SWAP2 SWAP1 POP JUMP JUMPDEST PUSH1 0x0 PUSH1 0x20 DUP3 ADD SWAP1 POP DUP2 DUP2 SUB PUSH1 0x0 DUP4 ADD MSTORE PUSH2 0x1889 DUP2 PUSH2 0x184D JUMP JUMPDEST SWAP1 POP SWAP2 SWAP1 POP JUMP JUMPDEST PUSH32 0x4F776E61626C653A2063616C6C6572206973206E6F7420746865206F776E6572 PUSH1 0x0 DUP3 ADD MSTORE POP JUMP JUMPDEST PUSH1 0x0 PUSH2 0x18C6 PUSH1 0x20 DUP4 PUSH2 0x1140 JUMP JUMPDEST SWAP2 POP PUSH2 0x18D1 DUP3 PUSH2 0x1890 JUMP JUMPDEST PUSH1 0x20 DUP3 ADD SWAP1 POP SWAP2 SWAP1 POP JUMP JUMPDEST PUSH1 0x0 PUSH1 0x20 DUP3 ADD SWAP1 POP DUP2 DUP2 SUB PUSH1 0x0 DUP4 ADD MSTORE PUSH2 0x18F5 DUP2 PUSH2 0x18B9 JUMP JUMPDEST SWAP1 POP SWAP2 SWAP1 POP JUMP JUMPDEST PUSH32 0x45524332303A20617070726F76652066726F6D20746865207A65726F20616464 PUSH1 0x0 DUP3 ADD MSTORE PUSH32 0x7265737300000000000000000000000000000000000000000000000000000000 PUSH1 0x20 DUP3 ADD MSTORE POP JUMP JUMPDEST PUSH1 0x0 PUSH2 0x1958 PUSH1 0x24 DUP4 PUSH2 0x1140 JUMP JUMPDEST SWAP2 POP PUSH2 0x1963 DUP3 PUSH2 0x18FC JUMP JUMPDEST PUSH1 0x40 DUP3 ADD SWAP1 POP SWAP2 SWAP1 POP JUMP JUMPDEST PUSH1 0x0 PUSH1 0x20 DUP3 ADD SWAP1 POP DUP2 DUP2 SUB PUSH1 0x0 DUP4 ADD MSTORE PUSH2 0x1987 DUP2 PUSH2 0x194B JUMP JUMPDEST SWAP1 POP SWAP2 SWAP1 POP JUMP JUMPDEST PUSH32 0x45524332303A20617070726F766520746F20746865207A65726F206164647265 PUSH1 0x0 DUP3 ADD MSTORE PUSH32 0x7373000000000000000000000000000000000000000000000000000000000000 PUSH1 0x20 DUP3 ADD MSTORE POP JUMP JUMPDEST PUSH1 0x0 PUSH2 0x19EA PUSH1 0x22 DUP4 PUSH2 0x1140 JUMP JUMPDEST SWAP2 POP PUSH2 0x19F5 DUP3 PUSH2 0x198E JUMP JUMPDEST PUSH1 0x40 DUP3 ADD SWAP1 POP SWAP2 SWAP1 POP JUMP JUMPDEST PUSH1 0x0 PUSH1 0x20 DUP3 ADD SWAP1 POP DUP2 DUP2 SUB PUSH1 0x0 DUP4 ADD MSTORE PUSH2 0x1A19 DUP2 PUSH2 0x19DD JUMP JUMPDEST SWAP1 POP SWAP2 SWAP1 POP JUMP JUMPDEST PUSH32 0x45524332303A20696E73756666696369656E7420616C6C6F77616E6365000000 PUSH1 0x0 DUP3 ADD MSTORE POP JUMP JUMPDEST PUSH1 0x0 PUSH2 0x1A56 PUSH1 0x1D DUP4 PUSH2 0x1140 JUMP JUMPDEST SWAP2 POP PUSH2 0x1A61 DUP3 PUSH2 0x1A20 JUMP JUMPDEST PUSH1 0x20 DUP3 ADD SWAP1 POP SWAP2 SWAP1 POP JUMP JUMPDEST PUSH1 0x0 PUSH1 0x20 DUP3 ADD SWAP1 POP DUP2 DUP2 SUB PUSH1 0x0 DUP4 ADD MSTORE PUSH2 0x1A85 DUP2 PUSH2 0x1A49 JUMP JUMPDEST SWAP1 POP SWAP2 SWAP1 POP JUMP JUMPDEST PUSH32 0x45524332303A207472616E736665722066726F6D20746865207A65726F206164 PUSH1 0x0 DUP3 ADD MSTORE PUSH32 0x6472657373000000000000000000000000000000000000000000000000000000 PUSH1 0x20 DUP3 ADD MSTORE POP JUMP JUMPDEST PUSH1 0x0 PUSH2 0x1AE8 PUSH1 0x25 DUP4 PUSH2 0x1140 JUMP JUMPDEST SWAP2 POP PUSH2 0x1AF3 DUP3 PUSH2 0x1A8C JUMP JUMPDEST PUSH1 0x40 DUP3 ADD SWAP1 POP SWAP2 SWAP1 POP JUMP JUMPDEST PUSH1 0x0 PUSH1 0x20 DUP3 ADD SWAP1 POP DUP2 DUP2 SUB PUSH1 0x0 DUP4 ADD MSTORE PUSH2 0x1B17 DUP2 PUSH2 0x1ADB JUMP JUMPDEST SWAP1 POP SWAP2 SWAP1 POP JUMP JUMPDEST PUSH32 0x45524332303A207472616E7366657220746F20746865207A65726F2061646472 PUSH1 0x0 DUP3 ADD MSTORE PUSH32 0x6573730000000000000000000000000000000000000000000000000000000000 PUSH1 0x20 DUP3 ADD MSTORE POP JUMP JUMPDEST PUSH1 0x0 PUSH2 0x1B7A PUSH1 0x23 DUP4 PUSH2 0x1140 JUMP JUMPDEST SWAP2 POP PUSH2 0x1B85 DUP3 PUSH2 0x1B1E JUMP JUMPDEST PUSH1 0x40 DUP3 ADD SWAP1 POP SWAP2 SWAP1 POP JUMP JUMPDEST PUSH1 0x0 PUSH1 0x20 DUP3 ADD SWAP1 POP DUP2 DUP2 SUB PUSH1 0x0 DUP4 ADD MSTORE PUSH2 0x1BA9 DUP2 PUSH2 0x1B6D JUMP JUMPDEST SWAP1 POP SWAP2 SWAP1 POP JUMP JUMPDEST PUSH32 0x45524332303A207472616E7366657220616D6F756E7420657863656564732062 PUSH1 0x0 DUP3 ADD MSTORE PUSH32 0x616C616E63650000000000000000000000000000000000000000000000000000 PUSH1 0x20 DUP3 ADD MSTORE POP JUMP JUMPDEST PUSH1 0x0 PUSH2 0x1C0C PUSH1 0x26 DUP4 PUSH2 0x1140 JUMP JUMPDEST SWAP2 POP PUSH2 0x1C17 DUP3 PUSH2 0x1BB0 JUMP JUMPDEST PUSH1 0x40 DUP3 ADD SWAP1 POP SWAP2 SWAP1 POP JUMP JUMPDEST PUSH1 0x0 PUSH1 0x20 DUP3 ADD SWAP1 POP DUP2 DUP2 SUB PUSH1 0x0 DUP4 ADD MSTORE PUSH2 0x1C3B DUP2 PUSH2 0x1BFF JUMP JUMPDEST SWAP1 POP SWAP2 SWAP1 POP JUMP JUMPDEST PUSH32 0x45524332303A206D696E7420746F20746865207A65726F206164647265737300 PUSH1 0x0 DUP3 ADD MSTORE POP JUMP JUMPDEST PUSH1 0x0 PUSH2 0x1C78 PUSH1 0x1F DUP4 PUSH2 0x1140 JUMP JUMPDEST SWAP2 POP PUSH2 0x1C83 DUP3 PUSH2 0x1C42 JUMP JUMPDEST PUSH1 0x20 DUP3 ADD SWAP1 POP SWAP2 SWAP1 POP JUMP JUMPDEST PUSH1 0x0 PUSH1 0x20 DUP3 ADD SWAP1 POP DUP2 DUP2 SUB PUSH1 0x0 DUP4 ADD MSTORE PUSH2 0x1CA7 DUP2 PUSH2 0x1C6B JUMP JUMPDEST SWAP1 POP SWAP2 SWAP1 POP JUMP INVALID LOG2 PUSH5 0x6970667358 0x22 SLT KECCAK256 0xB5 PUSH5 0xF9579D3407 0xAA 0xFC 0xE7 JUMPI 0xAE PUSH32 0xE64DB2074F7B6CC5691153C297FC2BD9D8927064736F6C63430008130033516D JUMPI PUSH17 0x666653675848426754336B4350756B6B77 0x4E PREVRANDAO PUSH17 0x7A794A41727438766B674C635777317153 CODESIZE JUMP PUSH21 0x677400000000000000000000000000000000000000 "
				},
				"gasEstimates": {
					"creation": {
						"codeDepositCost": "1479200",
						"executionCost": "infinite",
						"totalCost": "infinite"
					},
					"external": {
						"allowance(address,address)": "infinite",
						"approve(address,uint256)": "infinite",
						"balanceOf(address)": "2864",
						"decimals()": "388",
						"decreaseAllowance(address,uint256)": "infinite",
						"increaseAllowance(address,uint256)": "infinite",
						"logoHash()": "infinite",
						"mint(address,uint256)": "infinite",
						"name()": "infinite",
						"owner()": "2589",
						"renounceOwnership()": "30443",
						"setLogoHash(string)": "infinite",
						"symbol()": "infinite",
						"totalSupply()": "2527",
						"transfer(address,uint256)": "infinite",
						"transferFrom(address,address,uint256)": "infinite",
						"transferOwnership(address)": "30854"
					}
				},
				"methodIdentifiers": {
					"allowance(address,address)": "dd62ed3e",
					"approve(address,uint256)": "095ea7b3",
					"balanceOf(address)": "70a08231",
					"decimals()": "313ce567",
					"decreaseAllowance(address,uint256)": "a457c2d7",
					"increaseAllowance(address,uint256)": "39509351",
					"logoHash()": "df7be1ca",
					"mint(address,uint256)": "40c10f19",
					"name()": "06fdde03",
					"owner()": "8da5cb5b",
					"renounceOwnership()": "715018a6",
					"setLogoHash(string)": "01c402ff",
					"symbol()": "95d89b41",
					"totalSupply()": "18160ddd",
					"transfer(address,uint256)": "a9059cbb",
					"transferFrom(address,address,uint256)": "23b872dd",
					"transferOwnership(address)": "f2fde38b"
				}
			},
			"storageLayout": {
				"storage": [
					{
						"astId": 189,
						"contract": "TeslaToken.sol:TeslaToken",
						"label": "_balances",
						"offset": 0,
						"slot": "0",
						"type": "t_mapping(t_address,t_uint256)"
					},
					{
						"astId": 195,
						"contract": "TeslaToken.sol:TeslaToken",
						"label": "_allowances",
						"offset": 0,
						"slot": "1",
						"type": "t_mapping(t_address,t_mapping(t_address,t_uint256))"
					},
					{
						"astId": 197,
						"contract": "TeslaToken.sol:TeslaToken",
						"label": "_totalSupply",
						"offset": 0,
						"slot": "2",
						"type": "t_uint256"
					},
					{
						"astId": 199,
						"contract": "TeslaToken.sol:TeslaToken",
						"label": "_name",
						"offset": 0,
						"slot": "3",
						"type": "t_string_storage"
					},
					{
						"astId": 201,
						"contract": "TeslaToken.sol:TeslaToken",
						"label": "_symbol",
						"offset": 0,
						"slot": "4",
						"type": "t_string_storage"
					},
					{
						"astId": 68,
						"contract": "TeslaToken.sol:TeslaToken",
						"label": "_owner",
						"offset": 0,
						"slot": "5",
						"type": "t_address"
					},
					{
						"astId": 9,
						"contract": "TeslaToken.sol:TeslaToken",
						"label": "logoHash",
						"offset": 0,
						"slot": "6",
						"type": "t_string_storage"
					}
				],
				"types": {
					"t_address": {
						"encoding": "inplace",
						"label": "address",
						"numberOfBytes": "20"
					},
					"t_mapping(t_address,t_mapping(t_address,t_uint256))": {
						"encoding": "mapping",
						"key": "t_address",
						"label": "mapping(address => mapping(address => uint256))",
						"numberOfBytes": "32",
						"value": "t_mapping(t_address,t_uint256)"
					},
					"t_mapping(t_address,t_uint256)": {
						"encoding": "mapping",
						"key": "t_address",
						"label": "mapping(address => uint256)",
						"numberOfBytes": "32",
						"value": "t_uint256"
					},
					"t_string_storage": {
						"encoding": "bytes",
						"label": "string",
						"numberOfBytes": "32"
					},
					"t_uint256": {
						"encoding": "inplace",
						"label": "uint256",
						"numberOfBytes": "32"
					}
				}
			},
			"userdoc": {
				"kind": "user",
				"methods": {},
				"version": 1
			}
		}
	}
}